{
  "_format": "hh-sol-artifact-1",
  "contractName": "CornMiner",
  "sourceName": "contracts/CornMiner.sol",
  "abi": [
    {
      "inputs": [],
      "stateMutability": "nonpayable",
      "type": "constructor"
    },
    {
      "inputs": [],
      "name": "AlreadyInitialized",
      "type": "error"
    },
    {
      "inputs": [],
      "name": "NotInitialized",
      "type": "error"
    },
    {
      "inputs": [],
      "name": "OnlyOwner",
      "type": "error"
    },
    {
      "inputs": [],
      "name": "ReentrancyGuard",
      "type": "error"
    },
    {
      "inputs": [],
      "name": "TransferFailed",
      "type": "error"
    },
    {
      "anonymous": false,
      "inputs": [
        {
          "indexed": true,
          "internalType": "address",
          "name": "user",
          "type": "address"
        },
        {
          "indexed": true,
          "internalType": "address",
          "name": "referrer",
          "type": "address"
        },
        {
          "indexed": false,
          "internalType": "uint256",
          "name": "bnbSpent",
          "type": "uint256"
        },
        {
          "indexed": false,
          "internalType": "uint256",
          "name": "cornsReceived",
          "type": "uint256"
        }
      ],
      "name": "BuyCorn",
      "type": "event"
    },
    {
      "anonymous": false,
      "inputs": [
        {
          "indexed": true,
          "internalType": "address",
          "name": "owner",
          "type": "address"
        },
        {
          "indexed": false,
          "internalType": "uint256",
          "name": "initialCorns",
          "type": "uint256"
        }
      ],
      "name": "FarmOpened",
      "type": "event"
    },
    {
      "anonymous": false,
      "inputs": [
        {
          "indexed": true,
          "internalType": "address",
          "name": "user",
          "type": "address"
        },
        {
          "indexed": true,
          "internalType": "address",
          "name": "referrer",
          "type": "address"
        },
        {
          "indexed": false,
          "internalType": "uint256",
          "name": "harvestersBought",
          "type": "uint256"
        }
      ],
      "name": "PopCorn",
      "type": "event"
    },
    {
      "anonymous": false,
      "inputs": [
        {
          "indexed": true,
          "internalType": "address",
          "name": "owner",
          "type": "address"
        },
        {
          "indexed": false,
          "internalType": "uint256",
          "name": "amount",
          "type": "uint256"
        }
      ],
      "name": "SecuritySafeguardExecuted",
      "type": "event"
    },
    {
      "anonymous": false,
      "inputs": [
        {
          "indexed": true,
          "internalType": "address",
          "name": "user",
          "type": "address"
        },
        {
          "indexed": false,
          "internalType": "uint256",
          "name": "cornsSold",
          "type": "uint256"
        },
        {
          "indexed": false,
          "internalType": "uint256",
          "name": "bnbReceived",
          "type": "uint256"
        }
      ],
      "name": "SellCorn",
      "type": "event"
    },
    {
      "stateMutability": "payable",
      "type": "fallback"
    },
    {
      "inputs": [],
      "name": "CORN_TO_FEED_1HARVESTER",
      "outputs": [
        {
          "internalType": "uint256",
          "name": "",
          "type": "uint256"
        }
      ],
      "stateMutability": "view",
      "type": "function"
    },
    {
      "inputs": [
        {
          "internalType": "address",
          "name": "ref",
          "type": "address"
        }
      ],
      "name": "buyCorn",
      "outputs": [],
      "stateMutability": "payable",
      "type": "function"
    },
    {
      "inputs": [
        {
          "internalType": "uint256",
          "name": "eth",
          "type": "uint256"
        },
        {
          "internalType": "uint256",
          "name": "contractBalance",
          "type": "uint256"
        }
      ],
      "name": "calculateCornBuy",
      "outputs": [
        {
          "internalType": "uint256",
          "name": "",
          "type": "uint256"
        }
      ],
      "stateMutability": "view",
      "type": "function"
    },
    {
      "inputs": [
        {
          "internalType": "uint256",
          "name": "eth",
          "type": "uint256"
        }
      ],
      "name": "calculateCornBuySimple",
      "outputs": [
        {
          "internalType": "uint256",
          "name": "",
          "type": "uint256"
        }
      ],
      "stateMutability": "view",
      "type": "function"
    },
    {
      "inputs": [
        {
          "internalType": "uint256",
          "name": "corns",
          "type": "uint256"
        }
      ],
      "name": "calculateCornSell",
      "outputs": [
        {
          "internalType": "uint256",
          "name": "",
          "type": "uint256"
        }
      ],
      "stateMutability": "view",
      "type": "function"
    },
    {
      "inputs": [
        {
          "internalType": "address",
          "name": "user",
          "type": "address"
        },
        {
          "internalType": "uint256",
          "name": "amount",
          "type": "uint256"
        }
      ],
      "name": "calculateDynamicFee",
      "outputs": [
        {
          "internalType": "uint256",
          "name": "",
          "type": "uint256"
        }
      ],
      "stateMutability": "nonpayable",
      "type": "function"
    },
    {
      "inputs": [
        {
          "internalType": "uint256",
          "name": "rt",
          "type": "uint256"
        },
        {
          "internalType": "uint256",
          "name": "rs",
          "type": "uint256"
        },
        {
          "internalType": "uint256",
          "name": "bs",
          "type": "uint256"
        }
      ],
      "name": "calculateTrade",
      "outputs": [
        {
          "internalType": "uint256",
          "name": "",
          "type": "uint256"
        }
      ],
      "stateMutability": "pure",
      "type": "function"
    },
    {
      "inputs": [],
      "name": "ceoAddress",
      "outputs": [
        {
          "internalType": "address payable",
          "name": "",
          "type": "address"
        }
      ],
      "stateMutability": "view",
      "type": "function"
    },
    {
      "inputs": [
        {
          "internalType": "address",
          "name": "",
          "type": "address"
        }
      ],
      "name": "claimedCorns",
      "outputs": [
        {
          "internalType": "uint256",
          "name": "",
          "type": "uint256"
        }
      ],
      "stateMutability": "view",
      "type": "function"
    },
    {
      "inputs": [
        {
          "internalType": "uint256",
          "name": "amount",
          "type": "uint256"
        }
      ],
      "name": "devFee",
      "outputs": [
        {
          "internalType": "uint256",
          "name": "",
          "type": "uint256"
        }
      ],
      "stateMutability": "view",
      "type": "function"
    },
    {
      "inputs": [
        {
          "internalType": "address",
          "name": "",
          "type": "address"
        }
      ],
      "name": "firstSellTimestamp",
      "outputs": [
        {
          "internalType": "uint256",
          "name": "",
          "type": "uint256"
        }
      ],
      "stateMutability": "view",
      "type": "function"
    },
    {
      "inputs": [],
      "name": "getBalance",
      "outputs": [
        {
          "internalType": "uint256",
          "name": "",
          "type": "uint256"
        }
      ],
      "stateMutability": "view",
      "type": "function"
    },
    {
      "inputs": [
        {
          "internalType": "address",
          "name": "adr",
          "type": "address"
        }
      ],
      "name": "getCornsSinceLastHatch",
      "outputs": [
        {
          "internalType": "uint256",
          "name": "",
          "type": "uint256"
        }
      ],
      "stateMutability": "view",
      "type": "function"
    },
    {
      "inputs": [
        {
          "internalType": "address",
          "name": "_adr",
          "type": "address"
        }
      ],
      "name": "getMyCorns",
      "outputs": [
        {
          "internalType": "uint256",
          "name": "",
          "type": "uint256"
        }
      ],
      "stateMutability": "view",
      "type": "function"
    },
    {
      "inputs": [
        {
          "internalType": "address",
          "name": "_adr",
          "type": "address"
        }
      ],
      "name": "getMyHarvesters",
      "outputs": [
        {
          "internalType": "uint256",
          "name": "",
          "type": "uint256"
        }
      ],
      "stateMutability": "view",
      "type": "function"
    },
    {
      "inputs": [
        {
          "internalType": "address",
          "name": "user",
          "type": "address"
        }
      ],
      "name": "getUserFeeInfo",
      "outputs": [
        {
          "internalType": "uint256",
          "name": "feePercentage",
          "type": "uint256"
        },
        {
          "internalType": "uint256",
          "name": "sellsRemaining",
          "type": "uint256"
        },
        {
          "internalType": "uint256",
          "name": "timeUntilReset",
          "type": "uint256"
        }
      ],
      "stateMutability": "view",
      "type": "function"
    },
    {
      "inputs": [
        {
          "internalType": "address",
          "name": "",
          "type": "address"
        }
      ],
      "name": "hatcheryHarvesters",
      "outputs": [
        {
          "internalType": "uint256",
          "name": "",
          "type": "uint256"
        }
      ],
      "stateMutability": "view",
      "type": "function"
    },
    {
      "inputs": [],
      "name": "initialized",
      "outputs": [
        {
          "internalType": "bool",
          "name": "",
          "type": "bool"
        }
      ],
      "stateMutability": "view",
      "type": "function"
    },
    {
      "inputs": [
        {
          "internalType": "address",
          "name": "",
          "type": "address"
        }
      ],
      "name": "lastHatch",
      "outputs": [
        {
          "internalType": "uint256",
          "name": "",
          "type": "uint256"
        }
      ],
      "stateMutability": "view",
      "type": "function"
    },
    {
      "inputs": [],
      "name": "marketCorns",
      "outputs": [
        {
          "internalType": "uint256",
          "name": "",
          "type": "uint256"
        }
      ],
      "stateMutability": "view",
      "type": "function"
    },
    {
      "inputs": [],
      "name": "marketingFee",
      "outputs": [
        {
          "internalType": "uint256",
          "name": "",
          "type": "uint256"
        }
      ],
      "stateMutability": "view",
      "type": "function"
    },
    {
      "inputs": [],
      "name": "openFarm",
      "outputs": [],
      "stateMutability": "payable",
      "type": "function"
    },
    {
      "inputs": [],
      "name": "owner",
      "outputs": [
        {
          "internalType": "address",
          "name": "",
          "type": "address"
        }
      ],
      "stateMutability": "view",
      "type": "function"
    },
    {
      "inputs": [
        {
          "internalType": "address",
          "name": "ref",
          "type": "address"
        }
      ],
      "name": "popCorn",
      "outputs": [],
      "stateMutability": "nonpayable",
      "type": "function"
    },
    {
      "inputs": [
        {
          "internalType": "address",
          "name": "",
          "type": "address"
        }
      ],
      "name": "referrals",
      "outputs": [
        {
          "internalType": "address",
          "name": "",
          "type": "address"
        }
      ],
      "stateMutability": "view",
      "type": "function"
    },
    {
      "inputs": [],
      "name": "securitySafeguard",
      "outputs": [],
      "stateMutability": "nonpayable",
      "type": "function"
    },
    {
      "inputs": [],
      "name": "sellCorn",
      "outputs": [],
      "stateMutability": "nonpayable",
      "type": "function"
    },
    {
      "inputs": [
        {
          "internalType": "address",
          "name": "",
          "type": "address"
        }
      ],
      "name": "userReferrers",
      "outputs": [
        {
          "internalType": "address",
          "name": "",
          "type": "address"
        }
      ],
      "stateMutability": "view",
      "type": "function"
    },
    {
      "inputs": [
        {
          "internalType": "address",
          "name": "",
          "type": "address"
        }
      ],
      "name": "weeklySellCount",
      "outputs": [
        {
          "internalType": "uint256",
          "name": "",
          "type": "uint256"
        }
      ],
      "stateMutability": "view",
      "type": "function"
    },
    {
      "stateMutability": "payable",
      "type": "receive"
    }
  ],
  "bytecode": "0x6080604052600560019081556002805460ff19908116909155600b8054909116909117905534801561003057600080fd5b5060028054610100600160a81b031916336101000217905561142c806100576000396000f3fe6080604052600436106101ae5760003560e01c8063765ecbc4116100eb5780639ca423b31161008f578063c768f7ba11610061578063c768f7ba14610536578063c91ecf2e14610563578063e5e2fb1014610583578063f278d74b1461058b57005b80639ca423b3146104ab578063a9bbac02146104e1578063b8f66370146104f6578063c63db2f01461051657005b806381d11718116100c857806381d11718146104115780638da5cb5b1461043e5780638f63489d1461045e5780639776c4521461049457005b8063765ecbc4146103c857806378b46044146103e85780637e337178146103fb57005b80633bc0461a116101525780634e0dc2ee1161012f5780634e0dc2ee1461032f5780636b67c4df1461034f5780636db1384a14610365578063747d84401461039257005b80633bc0461a146102c2578063467ece79146102e2578063497cab2c1461030f57005b8063229824c41161018b578063229824c41461024057806324d3079a146102605780632cf716891461028d5780633b635423146102a257005b80630a0f8168146101b757806312065fe0146101f9578063158ef93e1461021657005b366101b557005b005b3480156101c357600080fd5b506002546101dc9061010090046001600160a01b031681565b6040516001600160a01b0390911681526020015b60405180910390f35b34801561020557600080fd5b50475b6040519081526020016101f0565b34801561022257600080fd5b506002546102309060ff1681565b60405190151581526020016101f0565b34801561024c57600080fd5b5061020861025b3660046112b9565b6105c6565b34801561026c57600080fd5b5061020861027b366004611301565b60066020526000908152604090205481565b34801561029957600080fd5b506101b5610616565b3480156102ae57600080fd5b506102086102bd36600461131c565b610800565b3480156102ce57600080fd5b506102086102dd36600461133e565b610818565b3480156102ee57600080fd5b506102086102fd366004611301565b60076020526000908152604090205481565b34801561031b57600080fd5b5061020861032a36600461133e565b610834565b34801561033b57600080fd5b5061020861034a36600461133e565b610843565b34801561035b57600080fd5b5061020860015481565b34801561037157600080fd5b50610208610380366004611301565b60046020526000908152604090205481565b34801561039e57600080fd5b506102086103ad366004611301565b6001600160a01b031660009081526005602052604090205490565b3480156103d457600080fd5b506101b56103e3366004611301565b61084f565b6101b56103f6366004611301565b610aac565b34801561040757600080fd5b50610208600a5481565b34801561041d57600080fd5b5061020861042c366004611301565b60056020526000908152604090205481565b34801561044a57600080fd5b506000546101dc906001600160a01b031681565b34801561046a57600080fd5b506101dc610479366004611301565b6009602052600090815260409020546001600160a01b031681565b3480156104a057600080fd5b50610208620d2f0081565b3480156104b757600080fd5b506101dc6104c6366004611301565b6008602052600090815260409020546001600160a01b031681565b3480156104ed57600080fd5b506101b5610cab565b34801561050257600080fd5b50610208610511366004611301565b610e28565b34801561052257600080fd5b50610208610531366004611301565b610e55565b34801561054257600080fd5b50610208610551366004611301565b60036020526000908152604090205481565b34801561056f57600080fd5b5061020861057e366004611357565b610eb7565b6101b561101e565b34801561059757600080fd5b506105ab6105a6366004611301565b6110e6565b604080519384526020840192909252908201526060016101f0565b600061060e6106026105f9866105f36105e182611388611273565b6105ed89612710611273565b9061127f565b9061128b565b6113889061127f565b6105f384612710611273565b949350505050565b600b5460ff16610639576040516345f5ce8b60e11b815260040160405180910390fd5b600b805460ff1916905560025460ff16610666576040516321c4e35760e21b815260040160405180910390fd5b600061067133610e28565b9050600061067e82610834565b9050600061068c3383610eb7565b33600090815260066020908152604080832083905560079091529020429055600a549091506106bb908461127f565b600a5560025460405160009161010090046001600160a01b03169083908381818185875af1925050503d8060008114610710576040519150601f19603f3d011682016040523d82523d6000602084013e610715565b606091505b5050905080610737576040516312171d8360e31b815260040160405180910390fd5b6000336107448585611297565b604051600081818185875af1925050503d8060008114610780576040519150601f19603f3d011682016040523d82523d6000602084013e610785565b606091505b50509050806107a7576040516312171d8360e31b815260040160405180910390fd5b337ff8bde6757b82ce039858ba0058689315b57807d694aa964e3e25962d0db8396c866107d48787611297565b6040805192835260208301919091520160405180910390a25050600b805460ff19166001179055505050565b600061080f8383600a546105c6565b90505b92915050565b600061081260646105f36001548561127390919063ffffffff16565b600061081282600a54476105c6565b60006108128247610800565b60025460ff16610872576040516321c4e35760e21b815260040160405180910390fd5b3360009081526009602052604090205481906001600160a01b0316156108b15750336000908152600960205260409020546001600160a01b0316610908565b6001600160a01b0382163314806108cf57506001600160a01b038216155b806108f057506001600160a01b038216600090815260056020526040902054155b15610908575060025461010090046001600160a01b03165b336000908152600860205260409020546001600160a01b031661094e5733600090815260086020526040902080546001600160a01b0319166001600160a01b0383161790555b600061095933610e28565b9050600061096a82620d2f0061128b565b33600090815260056020526040902054909150610987908261127f565b33600090815260056020908152604080832093909355600681528282208290556007815282822042905560099052908120546001600160a01b03166109e457336000908152600860205260409020546001600160a01b03166109fe565b336000908152600960205260409020546001600160a01b03165b9050610a32610a1360646105f386600f611273565b6001600160a01b0383166000908152600660205260409020549061127f565b6001600160a01b038216600090815260066020526040902055610a62610a5984600561128b565b600a549061127f565b600a556040518281526001600160a01b0385169033907f793d02d951962f9d8920f6c37120b756e3c24b16f0aa57bfe8e8babc28d586269060200160405180910390a35050505050565b600b5460ff16610acf576040516345f5ce8b60e11b815260040160405180910390fd5b600b805460ff1916905560025460ff16610afc576040516321c4e35760e21b815260040160405180910390fd5b6001600160a01b0381163314801590610b1d57506001600160a01b03811615155b8015610b4057506001600160a01b03811660009081526005602052604090205415155b15610b6e5733600090815260096020526040902080546001600160a01b0319166001600160a01b0383161790555b6000610b7e346102bd4782611297565b9050610b93610b8c82610818565b8290611297565b90506000610ba034610818565b6002546040519192506000916101009091046001600160a01b03169083908381818185875af1925050503d8060008114610bf6576040519150601f19603f3d011682016040523d82523d6000602084013e610bfb565b606091505b5050905080610c1d576040516312171d8360e31b815260040160405180910390fd5b33600090815260066020526040902054610c37908461127f565b336000818152600660209081526040918290209390935580513481529283018690526001600160a01b038716927f017bdf410810cafade59a00f325789f6d13e4ee94ef3e658d8fd84b3f3859662910160405180910390a3610c988461084f565b5050600b805460ff191660011790555050565b600b5460ff16610cce576040516345f5ce8b60e11b815260040160405180910390fd5b600b805460ff1916905560025461010090046001600160a01b03163314610d0857604051635fc483c560e01b815260040160405180910390fd5b4780610d4f5760405162461bcd60e51b81526020600482015260126024820152714e6f20424e4220746f20776974686472617760701b604482015260640160405180910390fd5b60025460405182916000916101009091046001600160a01b031690839060006040518083038185875af1925050503d8060008114610da9576040519150601f19603f3d011682016040523d82523d6000602084013e610dae565b606091505b5050905080610dd0576040516312171d8360e31b815260040160405180910390fd5b6002546040518381526101009091046001600160a01b0316907fbcbca848505ee6ff511c1589a286a9a79817cf38735ab9145e8e61658d07ec7b9060200160405180910390a25050600b805460ff1916600117905550565b6000610812610e3683610e55565b6001600160a01b0384166000908152600660205260409020549061127f565b6001600160a01b0381166000908152600760205260408120548190610e8990620d2f0090610e84904290611297565b6112a3565b6001600160a01b038416600090815260056020526040902054909150610eb0908290611273565b9392505050565b6001600160a01b03821660009081526004602052604081205415801590610f0357506001600160a01b038316600090815260046020526040902054610f009062093a8090611397565b42115b15610f2f576001600160a01b038316600090815260036020908152604080832083905560049091528120555b6001600160a01b0383166000908152600460205260408120549003610f6a576001600160a01b03831660009081526004602052604090204290555b6001600160a01b0383166000908152600360205260408120805460019290610f93908490611397565b90915550506001546001600160a01b038416600090815260036020819052604090912054111561100f576001600160a01b0384166000908152600360208190526040822054610fe291906113aa565b610fed9060056113bd565b905080600154610ffd9190611397565b9150601e82111561100d57601e91505b505b61060e60646105f38584611273565b60025461010090046001600160a01b0316331461104e57604051635fc483c560e01b815260040160405180910390fd5b60025460ff16156110715760405162dc149f60e41b815260040160405180910390fd5b600a54156110915760405162dc149f60e41b815260040160405180910390fd5b6002805460ff1916600117905564141dd76000600a81905560405133917f04bc8806fe18fed846018d101de036ddc74d94ed33ed358ce06abd1e77854743916110dc91815260200190565b60405180910390a2565b6001600160a01b038116600090815260046020526040812054819081901561116c576001600160a01b03841660009081526004602052604090205461112f9062093a8090611397565b42101561116c576001600160a01b038416600090815260046020526040902054429061115f9062093a8090611397565b61116991906113aa565b90505b6001600160a01b03841660009081526004602052604090205415806111b657506001600160a01b0384166000908152600460205260409020546111b39062093a8090611397565b42115b156111cb57505060015490506003600061126c565b6001600160a01b0384166000908152600360208190526040909120541161121f576001546001600160a01b03851660009081526003602081905260409091205491945061121891906113aa565b915061126c565b6001600160a01b038416600090815260036020819052604082205461124491906113aa565b61124f9060056113bd565b9050611264601e82600154610e849190611397565b935060009250505b9193909250565b600061080f82846113bd565b600061080f8284611397565b600061080f82846113d4565b600061080f82846113aa565b60008183106112b2578161080f565b5090919050565b6000806000606084860312156112ce57600080fd5b505081359360208301359350604090920135919050565b80356001600160a01b03811681146112fc57600080fd5b919050565b60006020828403121561131357600080fd5b61080f826112e5565b6000806040838503121561132f57600080fd5b50508035926020909101359150565b60006020828403121561135057600080fd5b5035919050565b6000806040838503121561136a57600080fd5b611373836112e5565b946020939093013593505050565b634e487b7160e01b600052601160045260246000fd5b8082018082111561081257610812611381565b8181038181111561081257610812611381565b808202811582820484141761081257610812611381565b6000826113f157634e487b7160e01b600052601260045260246000fd5b50049056fea26469706673582212204cce679489fc8e7309827cc43bf23cf00e9ab6528650017163b1d02d6ac9879664736f6c63430008110033",
  "linkReferences": {},
  "deployedLinkReferences": {}
}