{
  "_format": "hh-sol-artifact-1",
  "contractName": "CornMiner",
  "sourceName": "contracts/CornMiner.sol",
  "abi": [
    {
      "inputs": [],
      "stateMutability": "nonpayable",
      "type": "constructor"
    },
    {
      "inputs": [],
      "name": "AlreadyInitialized",
      "type": "error"
    },
    {
      "inputs": [],
      "name": "NotInitialized",
      "type": "error"
    },
    {
      "inputs": [],
      "name": "OnlyOwner",
      "type": "error"
    },
    {
      "inputs": [],
      "name": "ReentrancyGuard",
      "type": "error"
    },
    {
      "inputs": [],
      "name": "TransferFailed",
      "type": "error"
    },
    {
      "anonymous": false,
      "inputs": [
        {
          "indexed": true,
          "internalType": "address",
          "name": "user",
          "type": "address"
        },
        {
          "indexed": true,
          "internalType": "address",
          "name": "referrer",
          "type": "address"
        },
        {
          "indexed": false,
          "internalType": "uint256",
          "name": "bnbSpent",
          "type": "uint256"
        },
        {
          "indexed": false,
          "internalType": "uint256",
          "name": "cornsReceived",
          "type": "uint256"
        }
      ],
      "name": "BuyCorn",
      "type": "event"
    },
    {
      "anonymous": false,
      "inputs": [
        {
          "indexed": true,
          "internalType": "address",
          "name": "owner",
          "type": "address"
        },
        {
          "indexed": false,
          "internalType": "uint256",
          "name": "initialCorns",
          "type": "uint256"
        }
      ],
      "name": "FarmOpened",
      "type": "event"
    },
    {
      "anonymous": false,
      "inputs": [
        {
          "indexed": true,
          "internalType": "address",
          "name": "user",
          "type": "address"
        },
        {
          "indexed": true,
          "internalType": "address",
          "name": "referrer",
          "type": "address"
        },
        {
          "indexed": false,
          "internalType": "uint256",
          "name": "harvestersBought",
          "type": "uint256"
        }
      ],
      "name": "PopCorn",
      "type": "event"
    },
    {
      "anonymous": false,
      "inputs": [
        {
          "indexed": true,
          "internalType": "address",
          "name": "owner",
          "type": "address"
        },
        {
          "indexed": false,
          "internalType": "uint256",
          "name": "amount",
          "type": "uint256"
        }
      ],
      "name": "SecuritySafeguardExecuted",
      "type": "event"
    },
    {
      "anonymous": false,
      "inputs": [
        {
          "indexed": true,
          "internalType": "address",
          "name": "user",
          "type": "address"
        },
        {
          "indexed": false,
          "internalType": "uint256",
          "name": "cornsSold",
          "type": "uint256"
        },
        {
          "indexed": false,
          "internalType": "uint256",
          "name": "bnbReceived",
          "type": "uint256"
        }
      ],
      "name": "SellCorn",
      "type": "event"
    },
    {
      "stateMutability": "payable",
      "type": "fallback"
    },
    {
      "inputs": [],
      "name": "CORN_TO_FEED_1HARVESTER",
      "outputs": [
        {
          "internalType": "uint256",
          "name": "",
          "type": "uint256"
        }
      ],
      "stateMutability": "view",
      "type": "function"
    },
    {
      "inputs": [
        {
          "internalType": "address",
          "name": "ref",
          "type": "address"
        }
      ],
      "name": "buyCorn",
      "outputs": [],
      "stateMutability": "payable",
      "type": "function"
    },
    {
      "inputs": [
        {
          "internalType": "uint256",
          "name": "eth",
          "type": "uint256"
        },
        {
          "internalType": "uint256",
          "name": "contractBalance",
          "type": "uint256"
        }
      ],
      "name": "calculateCornBuy",
      "outputs": [
        {
          "internalType": "uint256",
          "name": "",
          "type": "uint256"
        }
      ],
      "stateMutability": "view",
      "type": "function"
    },
    {
      "inputs": [
        {
          "internalType": "uint256",
          "name": "eth",
          "type": "uint256"
        }
      ],
      "name": "calculateCornBuySimple",
      "outputs": [
        {
          "internalType": "uint256",
          "name": "",
          "type": "uint256"
        }
      ],
      "stateMutability": "view",
      "type": "function"
    },
    {
      "inputs": [
        {
          "internalType": "uint256",
          "name": "corns",
          "type": "uint256"
        }
      ],
      "name": "calculateCornSell",
      "outputs": [
        {
          "internalType": "uint256",
          "name": "",
          "type": "uint256"
        }
      ],
      "stateMutability": "view",
      "type": "function"
    },
    {
      "inputs": [
        {
          "internalType": "address",
          "name": "user",
          "type": "address"
        },
        {
          "internalType": "uint256",
          "name": "amount",
          "type": "uint256"
        }
      ],
      "name": "calculateDynamicFee",
      "outputs": [
        {
          "internalType": "uint256",
          "name": "",
          "type": "uint256"
        }
      ],
      "stateMutability": "nonpayable",
      "type": "function"
    },
    {
      "inputs": [
        {
          "internalType": "uint256",
          "name": "rt",
          "type": "uint256"
        },
        {
          "internalType": "uint256",
          "name": "rs",
          "type": "uint256"
        },
        {
          "internalType": "uint256",
          "name": "bs",
          "type": "uint256"
        }
      ],
      "name": "calculateTrade",
      "outputs": [
        {
          "internalType": "uint256",
          "name": "",
          "type": "uint256"
        }
      ],
      "stateMutability": "pure",
      "type": "function"
    },
    {
      "inputs": [],
      "name": "ceoAddress",
      "outputs": [
        {
          "internalType": "address payable",
          "name": "",
          "type": "address"
        }
      ],
      "stateMutability": "view",
      "type": "function"
    },
    {
      "inputs": [
        {
          "internalType": "address",
          "name": "",
          "type": "address"
        }
      ],
      "name": "claimedCorns",
      "outputs": [
        {
          "internalType": "uint256",
          "name": "",
          "type": "uint256"
        }
      ],
      "stateMutability": "view",
      "type": "function"
    },
    {
      "inputs": [
        {
          "internalType": "uint256",
          "name": "amount",
          "type": "uint256"
        }
      ],
      "name": "devFee",
      "outputs": [
        {
          "internalType": "uint256",
          "name": "",
          "type": "uint256"
        }
      ],
      "stateMutability": "view",
      "type": "function"
    },
    {
      "inputs": [
        {
          "internalType": "address",
          "name": "",
          "type": "address"
        }
      ],
      "name": "firstSellTimestamp",
      "outputs": [
        {
          "internalType": "uint256",
          "name": "",
          "type": "uint256"
        }
      ],
      "stateMutability": "view",
      "type": "function"
    },
    {
      "inputs": [],
      "name": "getBalance",
      "outputs": [
        {
          "internalType": "uint256",
          "name": "",
          "type": "uint256"
        }
      ],
      "stateMutability": "view",
      "type": "function"
    },
    {
      "inputs": [
        {
          "internalType": "address",
          "name": "adr",
          "type": "address"
        }
      ],
      "name": "getCornsSinceLastHatch",
      "outputs": [
        {
          "internalType": "uint256",
          "name": "",
          "type": "uint256"
        }
      ],
      "stateMutability": "view",
      "type": "function"
    },
    {
      "inputs": [
        {
          "internalType": "address",
          "name": "_adr",
          "type": "address"
        }
      ],
      "name": "getMyCorns",
      "outputs": [
        {
          "internalType": "uint256",
          "name": "",
          "type": "uint256"
        }
      ],
      "stateMutability": "view",
      "type": "function"
    },
    {
      "inputs": [
        {
          "internalType": "address",
          "name": "_adr",
          "type": "address"
        }
      ],
      "name": "getMyHarvesters",
      "outputs": [
        {
          "internalType": "uint256",
          "name": "",
          "type": "uint256"
        }
      ],
      "stateMutability": "view",
      "type": "function"
    },
    {
      "inputs": [
        {
          "internalType": "address",
          "name": "user",
          "type": "address"
        }
      ],
      "name": "getUserFeeInfo",
      "outputs": [
        {
          "internalType": "uint256",
          "name": "feePercentage",
          "type": "uint256"
        },
        {
          "internalType": "uint256",
          "name": "sellsRemaining",
          "type": "uint256"
        },
        {
          "internalType": "uint256",
          "name": "timeUntilReset",
          "type": "uint256"
        }
      ],
      "stateMutability": "view",
      "type": "function"
    },
    {
      "inputs": [
        {
          "internalType": "address",
          "name": "",
          "type": "address"
        }
      ],
      "name": "hatcheryHarvesters",
      "outputs": [
        {
          "internalType": "uint256",
          "name": "",
          "type": "uint256"
        }
      ],
      "stateMutability": "view",
      "type": "function"
    },
    {
      "inputs": [],
      "name": "initialized",
      "outputs": [
        {
          "internalType": "bool",
          "name": "",
          "type": "bool"
        }
      ],
      "stateMutability": "view",
      "type": "function"
    },
    {
      "inputs": [
        {
          "internalType": "address",
          "name": "",
          "type": "address"
        }
      ],
      "name": "lastHatch",
      "outputs": [
        {
          "internalType": "uint256",
          "name": "",
          "type": "uint256"
        }
      ],
      "stateMutability": "view",
      "type": "function"
    },
    {
      "inputs": [],
      "name": "marketCorns",
      "outputs": [
        {
          "internalType": "uint256",
          "name": "",
          "type": "uint256"
        }
      ],
      "stateMutability": "view",
      "type": "function"
    },
    {
      "inputs": [],
      "name": "marketingFee",
      "outputs": [
        {
          "internalType": "uint256",
          "name": "",
          "type": "uint256"
        }
      ],
      "stateMutability": "view",
      "type": "function"
    },
    {
      "inputs": [],
      "name": "openFarm",
      "outputs": [],
      "stateMutability": "payable",
      "type": "function"
    },
    {
      "inputs": [],
      "name": "owner",
      "outputs": [
        {
          "internalType": "address",
          "name": "",
          "type": "address"
        }
      ],
      "stateMutability": "view",
      "type": "function"
    },
    {
      "inputs": [
        {
          "internalType": "address",
          "name": "ref",
          "type": "address"
        }
      ],
      "name": "popCorn",
      "outputs": [],
      "stateMutability": "nonpayable",
      "type": "function"
    },
    {
      "inputs": [
        {
          "internalType": "address",
          "name": "",
          "type": "address"
        }
      ],
      "name": "referrals",
      "outputs": [
        {
          "internalType": "address",
          "name": "",
          "type": "address"
        }
      ],
      "stateMutability": "view",
      "type": "function"
    },
    {
      "inputs": [],
      "name": "securitySafeguard",
      "outputs": [],
      "stateMutability": "nonpayable",
      "type": "function"
    },
    {
      "inputs": [],
      "name": "sellCorn",
      "outputs": [],
      "stateMutability": "nonpayable",
      "type": "function"
    },
    {
      "inputs": [
        {
          "internalType": "address",
          "name": "",
          "type": "address"
        }
      ],
      "name": "weeklySellCount",
      "outputs": [
        {
          "internalType": "uint256",
          "name": "",
          "type": "uint256"
        }
      ],
      "stateMutability": "view",
      "type": "function"
    },
    {
      "stateMutability": "payable",
      "type": "receive"
    }
  ],
  "bytecode": "0x6080604052600560019081556002805460ff19908116909155600a8054909116909117905534801561003057600080fd5b5060028054610100600160a81b0319163361010002179055611301806100576000396000f3fe6080604052600436106101a35760003560e01c8063765ecbc4116100e0578063a9bbac0211610084578063c768f7ba11610061578063c768f7ba146104f5578063c91ecf2e14610522578063e5e2fb1014610542578063f278d74b1461054a57005b8063a9bbac02146104a0578063b8f66370146104b5578063c63db2f0146104d557005b806381d11718116100bd57806381d11718146104065780638da5cb5b146104335780639776c452146104535780639ca423b31461046a57005b8063765ecbc4146103bd57806378b46044146103dd5780637e337178146103f057005b80633bc0461a116101475780634e0dc2ee116101245780634e0dc2ee146103245780636b67c4df146103445780636db1384a1461035a578063747d84401461038757005b80633bc0461a146102b7578063467ece79146102d7578063497cab2c1461030457005b8063229824c411610180578063229824c41461023557806324d3079a146102555780632cf71689146102825780633b6354231461029757005b80630a0f8168146101ac57806312065fe0146101ee578063158ef93e1461020b57005b366101aa57005b005b3480156101b857600080fd5b506002546101d19061010090046001600160a01b031681565b6040516001600160a01b0390911681526020015b60405180910390f35b3480156101fa57600080fd5b50475b6040519081526020016101e5565b34801561021757600080fd5b506002546102259060ff1681565b60405190151581526020016101e5565b34801561024157600080fd5b506101fd61025036600461118e565b610585565b34801561026157600080fd5b506101fd6102703660046111d6565b60066020526000908152604090205481565b34801561028e57600080fd5b506101aa6105d5565b3480156102a357600080fd5b506101fd6102b23660046111f1565b6107bf565b3480156102c357600080fd5b506101fd6102d2366004611213565b6107d7565b3480156102e357600080fd5b506101fd6102f23660046111d6565b60076020526000908152604090205481565b34801561031057600080fd5b506101fd61031f366004611213565b6107f3565b34801561033057600080fd5b506101fd61033f366004611213565b610802565b34801561035057600080fd5b506101fd60015481565b34801561036657600080fd5b506101fd6103753660046111d6565b60046020526000908152604090205481565b34801561039357600080fd5b506101fd6103a23660046111d6565b6001600160a01b031660009081526005602052604090205490565b3480156103c957600080fd5b506101aa6103d83660046111d6565b61080e565b6101aa6103eb3660046111d6565b6109f3565b3480156103fc57600080fd5b506101fd60095481565b34801561041257600080fd5b506101fd6104213660046111d6565b60056020526000908152604090205481565b34801561043f57600080fd5b506000546101d1906001600160a01b031681565b34801561045f57600080fd5b506101fd620d2f0081565b34801561047657600080fd5b506101d16104853660046111d6565b6008602052600090815260409020546001600160a01b031681565b3480156104ac57600080fd5b506101aa610b80565b3480156104c157600080fd5b506101fd6104d03660046111d6565b610cfd565b3480156104e157600080fd5b506101fd6104f03660046111d6565b610d2a565b34801561050157600080fd5b506101fd6105103660046111d6565b60036020526000908152604090205481565b34801561052e57600080fd5b506101fd61053d36600461122c565b610d8c565b6101aa610ef3565b34801561055657600080fd5b5061056a6105653660046111d6565b610fbb565b604080519384526020840192909252908201526060016101e5565b60006105cd6105c16105b8866105b26105a082611388611148565b6105ac89612710611148565b90611154565b90611160565b61138890611154565b6105b284612710611148565b949350505050565b600a5460ff166105f8576040516345f5ce8b60e11b815260040160405180910390fd5b600a805460ff1916905560025460ff16610625576040516321c4e35760e21b815260040160405180910390fd5b600061063033610cfd565b9050600061063d826107f3565b9050600061064b3383610d8c565b3360009081526006602090815260408083208390556007909152902042905560095490915061067a9084611154565b60095560025460405160009161010090046001600160a01b03169083908381818185875af1925050503d80600081146106cf576040519150601f19603f3d011682016040523d82523d6000602084013e6106d4565b606091505b50509050806106f6576040516312171d8360e31b815260040160405180910390fd5b600033610703858561116c565b604051600081818185875af1925050503d806000811461073f576040519150601f19603f3d011682016040523d82523d6000602084013e610744565b606091505b5050905080610766576040516312171d8360e31b815260040160405180910390fd5b337ff8bde6757b82ce039858ba0058689315b57807d694aa964e3e25962d0db8396c86610793878761116c565b6040805192835260208301919091520160405180910390a25050600a805460ff19166001179055505050565b60006107ce8383600954610585565b90505b92915050565b60006107d160646105b26001548561114890919063ffffffff16565b60006107d18260095447610585565b60006107d182476107bf565b60025460ff16610831576040516321c4e35760e21b815260040160405180910390fd5b6001600160a01b03811633148061084f57506001600160a01b038116155b8061087057506001600160a01b038116600090815260056020526040902054155b15610888575060025461010090046001600160a01b03165b336000908152600860205260409020546001600160a01b03166108ce5733600090815260086020526040902080546001600160a01b0319166001600160a01b0383161790555b60006108d933610cfd565b905060006108ea82620d2f00611160565b336000908152600560205260409020549091506109079082611154565b3360009081526005602090815260408083209390935560068152828220829055600790522042905561096e61094260646105b285600f611148565b336000908152600860209081526040808320546001600160a01b03168352600690915290205490611154565b336000908152600860209081526040808320546001600160a01b0316835260069091529020556109ab6109a2836005611160565b60095490611154565b6009556040518181526001600160a01b0384169033907f793d02d951962f9d8920f6c37120b756e3c24b16f0aa57bfe8e8babc28d586269060200160405180910390a3505050565b600a5460ff16610a16576040516345f5ce8b60e11b815260040160405180910390fd5b600a805460ff1916905560025460ff16610a43576040516321c4e35760e21b815260040160405180910390fd5b6000610a53346102b2478261116c565b9050610a68610a61826107d7565b829061116c565b90506000610a75346107d7565b6002546040519192506000916101009091046001600160a01b03169083908381818185875af1925050503d8060008114610acb576040519150601f19603f3d011682016040523d82523d6000602084013e610ad0565b606091505b5050905080610af2576040516312171d8360e31b815260040160405180910390fd5b33600090815260066020526040902054610b0c9084611154565b336000818152600660209081526040918290209390935580513481529283018690526001600160a01b038716927f017bdf410810cafade59a00f325789f6d13e4ee94ef3e658d8fd84b3f3859662910160405180910390a3610b6d8461080e565b5050600a805460ff191660011790555050565b600a5460ff16610ba3576040516345f5ce8b60e11b815260040160405180910390fd5b600a805460ff1916905560025461010090046001600160a01b03163314610bdd57604051635fc483c560e01b815260040160405180910390fd5b4780610c245760405162461bcd60e51b81526020600482015260126024820152714e6f20424e4220746f20776974686472617760701b604482015260640160405180910390fd5b60025460405182916000916101009091046001600160a01b031690839060006040518083038185875af1925050503d8060008114610c7e576040519150601f19603f3d011682016040523d82523d6000602084013e610c83565b606091505b5050905080610ca5576040516312171d8360e31b815260040160405180910390fd5b6002546040518381526101009091046001600160a01b0316907fbcbca848505ee6ff511c1589a286a9a79817cf38735ab9145e8e61658d07ec7b9060200160405180910390a25050600a805460ff1916600117905550565b60006107d1610d0b83610d2a565b6001600160a01b03841660009081526006602052604090205490611154565b6001600160a01b0381166000908152600760205260408120548190610d5e90620d2f0090610d5990429061116c565b611178565b6001600160a01b038416600090815260056020526040902054909150610d85908290611148565b9392505050565b6001600160a01b03821660009081526004602052604081205415801590610dd857506001600160a01b038316600090815260046020526040902054610dd59062093a809061126c565b42115b15610e04576001600160a01b038316600090815260036020908152604080832083905560049091528120555b6001600160a01b0383166000908152600460205260408120549003610e3f576001600160a01b03831660009081526004602052604090204290555b6001600160a01b0383166000908152600360205260408120805460019290610e6890849061126c565b90915550506001546001600160a01b0384166000908152600360208190526040909120541115610ee4576001600160a01b0384166000908152600360208190526040822054610eb7919061127f565b610ec2906005611292565b905080600154610ed2919061126c565b9150601e821115610ee257601e91505b505b6105cd60646105b28584611148565b60025461010090046001600160a01b03163314610f2357604051635fc483c560e01b815260040160405180910390fd5b60025460ff1615610f465760405162dc149f60e41b815260040160405180910390fd5b60095415610f665760405162dc149f60e41b815260040160405180910390fd5b6002805460ff1916600117905564141dd76000600981905560405133917f04bc8806fe18fed846018d101de036ddc74d94ed33ed358ce06abd1e7785474391610fb191815260200190565b60405180910390a2565b6001600160a01b0381166000908152600460205260408120548190819015611041576001600160a01b0384166000908152600460205260409020546110049062093a809061126c565b421015611041576001600160a01b03841660009081526004602052604090205442906110349062093a809061126c565b61103e919061127f565b90505b6001600160a01b038416600090815260046020526040902054158061108b57506001600160a01b0384166000908152600460205260409020546110889062093a809061126c565b42115b156110a0575050600154905060036000611141565b6001600160a01b038416600090815260036020819052604090912054116110f4576001546001600160a01b0385166000908152600360208190526040909120549194506110ed919061127f565b9150611141565b6001600160a01b0384166000908152600360208190526040822054611119919061127f565b611124906005611292565b9050611139601e82600154610d59919061126c565b935060009250505b9193909250565b60006107ce8284611292565b60006107ce828461126c565b60006107ce82846112a9565b60006107ce828461127f565b600081831061118757816107ce565b5090919050565b6000806000606084860312156111a357600080fd5b505081359360208301359350604090920135919050565b80356001600160a01b03811681146111d157600080fd5b919050565b6000602082840312156111e857600080fd5b6107ce826111ba565b6000806040838503121561120457600080fd5b50508035926020909101359150565b60006020828403121561122557600080fd5b5035919050565b6000806040838503121561123f57600080fd5b611248836111ba565b946020939093013593505050565b634e487b7160e01b600052601160045260246000fd5b808201808211156107d1576107d1611256565b818103818111156107d1576107d1611256565b80820281158282048414176107d1576107d1611256565b6000826112c657634e487b7160e01b600052601260045260246000fd5b50049056fea2646970667358221220d88bb1e167bbb01414ddeb08a0db44f974fbec74c51a60954fe454e9d925390e64736f6c63430008110033",
  "linkReferences": {},
  "deployedLinkReferences": {}
}