{"contracts/CornMiner.sol":{"CornMiner":{"abi":[{"inputs":[],"stateMutability":"nonpayable","type":"constructor"},{"inputs":[],"name":"AlreadyInitialized","type":"error"},{"inputs":[],"name":"NotInitialized","type":"error"},{"inputs":[],"name":"OnlyOwner","type":"error"},{"inputs":[],"name":"ReentrancyGuard","type":"error"},{"inputs":[],"name":"TransferFailed","type":"error"},{"anonymous":false,"inputs":[{"indexed":true,"internalType":"address","name":"user","type":"address"},{"indexed":true,"internalType":"address","name":"referrer","type":"address"},{"indexed":false,"internalType":"uint256","name":"bnbSpent","type":"uint256"},{"indexed":false,"internalType":"uint256","name":"cornsReceived","type":"uint256"}],"name":"BuyCorn","type":"event"},{"anonymous":false,"inputs":[{"indexed":true,"internalType":"address","name":"owner","type":"address"},{"indexed":false,"internalType":"uint256","name":"initialCorns","type":"uint256"}],"name":"FarmOpened","type":"event"},{"anonymous":false,"inputs":[{"indexed":true,"internalType":"address","name":"user","type":"address"},{"indexed":true,"internalType":"address","name":"referrer","type":"address"},{"indexed":false,"internalType":"uint256","name":"harvestersBought","type":"uint256"}],"name":"PopCorn","type":"event"},{"anonymous":false,"inputs":[{"indexed":true,"internalType":"address","name":"owner","type":"address"},{"indexed":false,"internalType":"uint256","name":"amount","type":"uint256"}],"name":"SecuritySafeguardExecuted","type":"event"},{"anonymous":false,"inputs":[{"indexed":true,"internalType":"address","name":"user","type":"address"},{"indexed":false,"internalType":"uint256","name":"cornsSold","type":"uint256"},{"indexed":false,"internalType":"uint256","name":"bnbReceived","type":"uint256"}],"name":"SellCorn","type":"event"},{"stateMutability":"payable","type":"fallback"},{"inputs":[],"name":"CORN_TO_FEED_1HARVESTER","outputs":[{"internalType":"uint256","name":"","type":"uint256"}],"stateMutability":"view","type":"function"},{"inputs":[{"internalType":"address","name":"ref","type":"address"}],"name":"buyCorn","outputs":[],"stateMutability":"payable","type":"function"},{"inputs":[{"internalType":"uint256","name":"eth","type":"uint256"},{"internalType":"uint256","name":"contractBalance","type":"uint256"}],"name":"calculateCornBuy","outputs":[{"internalType":"uint256","name":"","type":"uint256"}],"stateMutability":"view","type":"function"},{"inputs":[{"internalType":"uint256","name":"eth","type":"uint256"}],"name":"calculateCornBuySimple","outputs":[{"internalType":"uint256","name":"","type":"uint256"}],"stateMutability":"view","type":"function"},{"inputs":[{"internalType":"uint256","name":"corns","type":"uint256"}],"name":"calculateCornSell","outputs":[{"internalType":"uint256","name":"","type":"uint256"}],"stateMutability":"view","type":"function"},{"inputs":[{"internalType":"address","name":"user","type":"address"},{"internalType":"uint256","name":"amount","type":"uint256"}],"name":"calculateDynamicFee","outputs":[{"internalType":"uint256","name":"","type":"uint256"}],"stateMutability":"nonpayable","type":"function"},{"inputs":[{"internalType":"uint256","name":"rt","type":"uint256"},{"internalType":"uint256","name":"rs","type":"uint256"},{"internalType":"uint256","name":"bs","type":"uint256"}],"name":"calculateTrade","outputs":[{"internalType":"uint256","name":"","type":"uint256"}],"stateMutability":"pure","type":"function"},{"inputs":[],"name":"ceoAddress","outputs":[{"internalType":"address payable","name":"","type":"address"}],"stateMutability":"view","type":"function"},{"inputs":[{"internalType":"address","name":"","type":"address"}],"name":"claimedCorns","outputs":[{"internalType":"uint256","name":"","type":"uint256"}],"stateMutability":"view","type":"function"},{"inputs":[{"internalType":"uint256","name":"amount","type":"uint256"}],"name":"devFee","outputs":[{"internalType":"uint256","name":"","type":"uint256"}],"stateMutability":"view","type":"function"},{"inputs":[{"internalType":"address","name":"","type":"address"}],"name":"firstSellTimestamp","outputs":[{"internalType":"uint256","name":"","type":"uint256"}],"stateMutability":"view","type":"function"},{"inputs":[],"name":"getBalance","outputs":[{"internalType":"uint256","name":"","type":"uint256"}],"stateMutability":"view","type":"function"},{"inputs":[{"internalType":"address","name":"adr","type":"address"}],"name":"getCornsSinceLastHatch","outputs":[{"internalType":"uint256","name":"","type":"uint256"}],"stateMutability":"view","type":"function"},{"inputs":[{"internalType":"address","name":"_adr","type":"address"}],"name":"getMyCorns","outputs":[{"internalType":"uint256","name":"","type":"uint256"}],"stateMutability":"view","type":"function"},{"inputs":[{"internalType":"address","name":"_adr","type":"address"}],"name":"getMyHarvesters","outputs":[{"internalType":"uint256","name":"","type":"uint256"}],"stateMutability":"view","type":"function"},{"inputs":[{"internalType":"address","name":"user","type":"address"}],"name":"getUserFeeInfo","outputs":[{"internalType":"uint256","name":"feePercentage","type":"uint256"},{"internalType":"uint256","name":"sellsRemaining","type":"uint256"},{"internalType":"uint256","name":"timeUntilReset","type":"uint256"}],"stateMutability":"view","type":"function"},{"inputs":[{"internalType":"address","name":"","type":"address"}],"name":"hatcheryHarvesters","outputs":[{"internalType":"uint256","name":"","type":"uint256"}],"stateMutability":"view","type":"function"},{"inputs":[],"name":"initialized","outputs":[{"internalType":"bool","name":"","type":"bool"}],"stateMutability":"view","type":"function"},{"inputs":[{"internalType":"address","name":"","type":"address"}],"name":"lastHatch","outputs":[{"internalType":"uint256","name":"","type":"uint256"}],"stateMutability":"view","type":"function"},{"inputs":[],"name":"marketCorns","outputs":[{"internalType":"uint256","name":"","type":"uint256"}],"stateMutability":"view","type":"function"},{"inputs":[],"name":"marketingFee","outputs":[{"internalType":"uint256","name":"","type":"uint256"}],"stateMutability":"view","type":"function"},{"inputs":[],"name":"openFarm","outputs":[],"stateMutability":"payable","type":"function"},{"inputs":[],"name":"owner","outputs":[{"internalType":"address","name":"","type":"address"}],"stateMutability":"view","type":"function"},{"inputs":[{"internalType":"address","name":"ref","type":"address"}],"name":"popCorn","outputs":[],"stateMutability":"nonpayable","type":"function"},{"inputs":[{"internalType":"address","name":"","type":"address"}],"name":"referrals","outputs":[{"internalType":"address","name":"","type":"address"}],"stateMutability":"view","type":"function"},{"inputs":[],"name":"securitySafeguard","outputs":[],"stateMutability":"nonpayable","type":"function"},{"inputs":[],"name":"sellCorn","outputs":[],"stateMutability":"nonpayable","type":"function"},{"inputs":[{"internalType":"address","name":"","type":"address"}],"name":"userReferrers","outputs":[{"internalType":"address","name":"","type":"address"}],"stateMutability":"view","type":"function"},{"inputs":[{"internalType":"address","name":"","type":"address"}],"name":"weeklySellCount","outputs":[{"internalType":"uint256","name":"","type":"uint256"}],"stateMutability":"view","type":"function"},{"stateMutability":"payable","type":"receive"}],"evm":{"bytecode":{"linkReferences":{},"object":"6080604052600560019081556002805460ff19908116909155600b8054909116909117905534801561003057600080fd5b5060028054610100600160a81b031916336101000217905561142c806100576000396000f3fe6080604052600436106101ae5760003560e01c8063765ecbc4116100eb5780639ca423b31161008f578063c768f7ba11610061578063c768f7ba14610536578063c91ecf2e14610563578063e5e2fb1014610583578063f278d74b1461058b57005b80639ca423b3146104ab578063a9bbac02146104e1578063b8f66370146104f6578063c63db2f01461051657005b806381d11718116100c857806381d11718146104115780638da5cb5b1461043e5780638f63489d1461045e5780639776c4521461049457005b8063765ecbc4146103c857806378b46044146103e85780637e337178146103fb57005b80633bc0461a116101525780634e0dc2ee1161012f5780634e0dc2ee1461032f5780636b67c4df1461034f5780636db1384a14610365578063747d84401461039257005b80633bc0461a146102c2578063467ece79146102e2578063497cab2c1461030f57005b8063229824c41161018b578063229824c41461024057806324d3079a146102605780632cf716891461028d5780633b635423146102a257005b80630a0f8168146101b757806312065fe0146101f9578063158ef93e1461021657005b366101b557005b005b3480156101c357600080fd5b506002546101dc9061010090046001600160a01b031681565b6040516001600160a01b0390911681526020015b60405180910390f35b34801561020557600080fd5b50475b6040519081526020016101f0565b34801561022257600080fd5b506002546102309060ff1681565b60405190151581526020016101f0565b34801561024c57600080fd5b5061020861025b3660046112b9565b6105c6565b34801561026c57600080fd5b5061020861027b366004611301565b60066020526000908152604090205481565b34801561029957600080fd5b506101b5610616565b3480156102ae57600080fd5b506102086102bd36600461131c565b610800565b3480156102ce57600080fd5b506102086102dd36600461133e565b610818565b3480156102ee57600080fd5b506102086102fd366004611301565b60076020526000908152604090205481565b34801561031b57600080fd5b5061020861032a36600461133e565b610834565b34801561033b57600080fd5b5061020861034a36600461133e565b610843565b34801561035b57600080fd5b5061020860015481565b34801561037157600080fd5b50610208610380366004611301565b60046020526000908152604090205481565b34801561039e57600080fd5b506102086103ad366004611301565b6001600160a01b031660009081526005602052604090205490565b3480156103d457600080fd5b506101b56103e3366004611301565b61084f565b6101b56103f6366004611301565b610aac565b34801561040757600080fd5b50610208600a5481565b34801561041d57600080fd5b5061020861042c366004611301565b60056020526000908152604090205481565b34801561044a57600080fd5b506000546101dc906001600160a01b031681565b34801561046a57600080fd5b506101dc610479366004611301565b6009602052600090815260409020546001600160a01b031681565b3480156104a057600080fd5b50610208620d2f0081565b3480156104b757600080fd5b506101dc6104c6366004611301565b6008602052600090815260409020546001600160a01b031681565b3480156104ed57600080fd5b506101b5610cab565b34801561050257600080fd5b50610208610511366004611301565b610e28565b34801561052257600080fd5b50610208610531366004611301565b610e55565b34801561054257600080fd5b50610208610551366004611301565b60036020526000908152604090205481565b34801561056f57600080fd5b5061020861057e366004611357565b610eb7565b6101b561101e565b34801561059757600080fd5b506105ab6105a6366004611301565b6110e6565b604080519384526020840192909252908201526060016101f0565b600061060e6106026105f9866105f36105e182611388611273565b6105ed89612710611273565b9061127f565b9061128b565b6113889061127f565b6105f384612710611273565b949350505050565b600b5460ff16610639576040516345f5ce8b60e11b815260040160405180910390fd5b600b805460ff1916905560025460ff16610666576040516321c4e35760e21b815260040160405180910390fd5b600061067133610e28565b9050600061067e82610834565b9050600061068c3383610eb7565b33600090815260066020908152604080832083905560079091529020429055600a549091506106bb908461127f565b600a5560025460405160009161010090046001600160a01b03169083908381818185875af1925050503d8060008114610710576040519150601f19603f3d011682016040523d82523d6000602084013e610715565b606091505b5050905080610737576040516312171d8360e31b815260040160405180910390fd5b6000336107448585611297565b604051600081818185875af1925050503d8060008114610780576040519150601f19603f3d011682016040523d82523d6000602084013e610785565b606091505b50509050806107a7576040516312171d8360e31b815260040160405180910390fd5b337ff8bde6757b82ce039858ba0058689315b57807d694aa964e3e25962d0db8396c866107d48787611297565b6040805192835260208301919091520160405180910390a25050600b805460ff19166001179055505050565b600061080f8383600a546105c6565b90505b92915050565b600061081260646105f36001548561127390919063ffffffff16565b600061081282600a54476105c6565b60006108128247610800565b60025460ff16610872576040516321c4e35760e21b815260040160405180910390fd5b3360009081526009602052604090205481906001600160a01b0316156108b15750336000908152600960205260409020546001600160a01b0316610908565b6001600160a01b0382163314806108cf57506001600160a01b038216155b806108f057506001600160a01b038216600090815260056020526040902054155b15610908575060025461010090046001600160a01b03165b336000908152600860205260409020546001600160a01b031661094e5733600090815260086020526040902080546001600160a01b0319166001600160a01b0383161790555b600061095933610e28565b9050600061096a82620d2f0061128b565b33600090815260056020526040902054909150610987908261127f565b33600090815260056020908152604080832093909355600681528282208290556007815282822042905560099052908120546001600160a01b03166109e457336000908152600860205260409020546001600160a01b03166109fe565b336000908152600960205260409020546001600160a01b03165b9050610a32610a1360646105f386600f611273565b6001600160a01b0383166000908152600660205260409020549061127f565b6001600160a01b038216600090815260066020526040902055610a62610a5984600561128b565b600a549061127f565b600a556040518281526001600160a01b0385169033907f793d02d951962f9d8920f6c37120b756e3c24b16f0aa57bfe8e8babc28d586269060200160405180910390a35050505050565b600b5460ff16610acf576040516345f5ce8b60e11b815260040160405180910390fd5b600b805460ff1916905560025460ff16610afc576040516321c4e35760e21b815260040160405180910390fd5b6001600160a01b0381163314801590610b1d57506001600160a01b03811615155b8015610b4057506001600160a01b03811660009081526005602052604090205415155b15610b6e5733600090815260096020526040902080546001600160a01b0319166001600160a01b0383161790555b6000610b7e346102bd4782611297565b9050610b93610b8c82610818565b8290611297565b90506000610ba034610818565b6002546040519192506000916101009091046001600160a01b03169083908381818185875af1925050503d8060008114610bf6576040519150601f19603f3d011682016040523d82523d6000602084013e610bfb565b606091505b5050905080610c1d576040516312171d8360e31b815260040160405180910390fd5b33600090815260066020526040902054610c37908461127f565b336000818152600660209081526040918290209390935580513481529283018690526001600160a01b038716927f017bdf410810cafade59a00f325789f6d13e4ee94ef3e658d8fd84b3f3859662910160405180910390a3610c988461084f565b5050600b805460ff191660011790555050565b600b5460ff16610cce576040516345f5ce8b60e11b815260040160405180910390fd5b600b805460ff1916905560025461010090046001600160a01b03163314610d0857604051635fc483c560e01b815260040160405180910390fd5b4780610d4f5760405162461bcd60e51b81526020600482015260126024820152714e6f20424e4220746f20776974686472617760701b604482015260640160405180910390fd5b60025460405182916000916101009091046001600160a01b031690839060006040518083038185875af1925050503d8060008114610da9576040519150601f19603f3d011682016040523d82523d6000602084013e610dae565b606091505b5050905080610dd0576040516312171d8360e31b815260040160405180910390fd5b6002546040518381526101009091046001600160a01b0316907fbcbca848505ee6ff511c1589a286a9a79817cf38735ab9145e8e61658d07ec7b9060200160405180910390a25050600b805460ff1916600117905550565b6000610812610e3683610e55565b6001600160a01b0384166000908152600660205260409020549061127f565b6001600160a01b0381166000908152600760205260408120548190610e8990620d2f0090610e84904290611297565b6112a3565b6001600160a01b038416600090815260056020526040902054909150610eb0908290611273565b9392505050565b6001600160a01b03821660009081526004602052604081205415801590610f0357506001600160a01b038316600090815260046020526040902054610f009062093a8090611397565b42115b15610f2f576001600160a01b038316600090815260036020908152604080832083905560049091528120555b6001600160a01b0383166000908152600460205260408120549003610f6a576001600160a01b03831660009081526004602052604090204290555b6001600160a01b0383166000908152600360205260408120805460019290610f93908490611397565b90915550506001546001600160a01b038416600090815260036020819052604090912054111561100f576001600160a01b0384166000908152600360208190526040822054610fe291906113aa565b610fed9060056113bd565b905080600154610ffd9190611397565b9150601e82111561100d57601e91505b505b61060e60646105f38584611273565b60025461010090046001600160a01b0316331461104e57604051635fc483c560e01b815260040160405180910390fd5b60025460ff16156110715760405162dc149f60e41b815260040160405180910390fd5b600a54156110915760405162dc149f60e41b815260040160405180910390fd5b6002805460ff1916600117905564141dd76000600a81905560405133917f04bc8806fe18fed846018d101de036ddc74d94ed33ed358ce06abd1e77854743916110dc91815260200190565b60405180910390a2565b6001600160a01b038116600090815260046020526040812054819081901561116c576001600160a01b03841660009081526004602052604090205461112f9062093a8090611397565b42101561116c576001600160a01b038416600090815260046020526040902054429061115f9062093a8090611397565b61116991906113aa565b90505b6001600160a01b03841660009081526004602052604090205415806111b657506001600160a01b0384166000908152600460205260409020546111b39062093a8090611397565b42115b156111cb57505060015490506003600061126c565b6001600160a01b0384166000908152600360208190526040909120541161121f576001546001600160a01b03851660009081526003602081905260409091205491945061121891906113aa565b915061126c565b6001600160a01b038416600090815260036020819052604082205461124491906113aa565b61124f9060056113bd565b9050611264601e82600154610e849190611397565b935060009250505b9193909250565b600061080f82846113bd565b600061080f8284611397565b600061080f82846113d4565b600061080f82846113aa565b60008183106112b2578161080f565b5090919050565b6000806000606084860312156112ce57600080fd5b505081359360208301359350604090920135919050565b80356001600160a01b03811681146112fc57600080fd5b919050565b60006020828403121561131357600080fd5b61080f826112e5565b6000806040838503121561132f57600080fd5b50508035926020909101359150565b60006020828403121561135057600080fd5b5035919050565b6000806040838503121561136a57600080fd5b611373836112e5565b946020939093013593505050565b634e487b7160e01b600052601160045260246000fd5b8082018082111561081257610812611381565b8181038181111561081257610812611381565b808202811582820484141761081257610812611381565b6000826113f157634e487b7160e01b600052601260045260246000fd5b50049056fea26469706673582212204cce679489fc8e7309827cc43bf23cf00e9ab6528650017163b1d02d6ac9879664736f6c63430008110033","opcodes":"PUSH1 0x80 PUSH1 0x40 MSTORE PUSH1 0x5 PUSH1 0x1 SWAP1 DUP2 SSTORE PUSH1 0x2 DUP1 SLOAD PUSH1 0xFF NOT SWAP1 DUP2 AND SWAP1 SWAP2 SSTORE PUSH1 0xB DUP1 SLOAD SWAP1 SWAP2 AND SWAP1 SWAP2 OR SWAP1 SSTORE CALLVALUE DUP1 ISZERO PUSH2 0x30 JUMPI PUSH1 0x0 DUP1 REVERT JUMPDEST POP PUSH1 0x2 DUP1 SLOAD PUSH2 0x100 PUSH1 0x1 PUSH1 0xA8 SHL SUB NOT AND CALLER PUSH2 0x100 MUL OR SWAP1 SSTORE PUSH2 0x142C DUP1 PUSH2 0x57 PUSH1 0x0 CODECOPY PUSH1 0x0 RETURN INVALID PUSH1 0x80 PUSH1 0x40 MSTORE PUSH1 0x4 CALLDATASIZE LT PUSH2 0x1AE JUMPI PUSH1 0x0 CALLDATALOAD PUSH1 0xE0 SHR DUP1 PUSH4 0x765ECBC4 GT PUSH2 0xEB JUMPI DUP1 PUSH4 0x9CA423B3 GT PUSH2 0x8F JUMPI DUP1 PUSH4 0xC768F7BA GT PUSH2 0x61 JUMPI DUP1 PUSH4 0xC768F7BA EQ PUSH2 0x536 JUMPI DUP1 PUSH4 0xC91ECF2E EQ PUSH2 0x563 JUMPI DUP1 PUSH4 0xE5E2FB10 EQ PUSH2 0x583 JUMPI DUP1 PUSH4 0xF278D74B EQ PUSH2 0x58B JUMPI STOP JUMPDEST DUP1 PUSH4 0x9CA423B3 EQ PUSH2 0x4AB JUMPI DUP1 PUSH4 0xA9BBAC02 EQ PUSH2 0x4E1 JUMPI DUP1 PUSH4 0xB8F66370 EQ PUSH2 0x4F6 JUMPI DUP1 PUSH4 0xC63DB2F0 EQ PUSH2 0x516 JUMPI STOP JUMPDEST DUP1 PUSH4 0x81D11718 GT PUSH2 0xC8 JUMPI DUP1 PUSH4 0x81D11718 EQ PUSH2 0x411 JUMPI DUP1 PUSH4 0x8DA5CB5B EQ PUSH2 0x43E JUMPI DUP1 PUSH4 0x8F63489D EQ PUSH2 0x45E JUMPI DUP1 PUSH4 0x9776C452 EQ PUSH2 0x494 JUMPI STOP JUMPDEST DUP1 PUSH4 0x765ECBC4 EQ PUSH2 0x3C8 JUMPI DUP1 PUSH4 0x78B46044 EQ PUSH2 0x3E8 JUMPI DUP1 PUSH4 0x7E337178 EQ PUSH2 0x3FB JUMPI STOP JUMPDEST DUP1 PUSH4 0x3BC0461A GT PUSH2 0x152 JUMPI DUP1 PUSH4 0x4E0DC2EE GT PUSH2 0x12F JUMPI DUP1 PUSH4 0x4E0DC2EE EQ PUSH2 0x32F JUMPI DUP1 PUSH4 0x6B67C4DF EQ PUSH2 0x34F JUMPI DUP1 PUSH4 0x6DB1384A EQ PUSH2 0x365 JUMPI DUP1 PUSH4 0x747D8440 EQ PUSH2 0x392 JUMPI STOP JUMPDEST DUP1 PUSH4 0x3BC0461A EQ PUSH2 0x2C2 JUMPI DUP1 PUSH4 0x467ECE79 EQ PUSH2 0x2E2 JUMPI DUP1 PUSH4 0x497CAB2C EQ PUSH2 0x30F JUMPI STOP JUMPDEST DUP1 PUSH4 0x229824C4 GT PUSH2 0x18B JUMPI DUP1 PUSH4 0x229824C4 EQ PUSH2 0x240 JUMPI DUP1 PUSH4 0x24D3079A EQ PUSH2 0x260 JUMPI DUP1 PUSH4 0x2CF71689 EQ PUSH2 0x28D JUMPI DUP1 PUSH4 0x3B635423 EQ PUSH2 0x2A2 JUMPI STOP JUMPDEST DUP1 PUSH4 0xA0F8168 EQ PUSH2 0x1B7 JUMPI DUP1 PUSH4 0x12065FE0 EQ PUSH2 0x1F9 JUMPI DUP1 PUSH4 0x158EF93E EQ PUSH2 0x216 JUMPI STOP JUMPDEST CALLDATASIZE PUSH2 0x1B5 JUMPI STOP JUMPDEST STOP JUMPDEST CALLVALUE DUP1 ISZERO PUSH2 0x1C3 JUMPI PUSH1 0x0 DUP1 REVERT JUMPDEST POP PUSH1 0x2 SLOAD PUSH2 0x1DC SWAP1 PUSH2 0x100 SWAP1 DIV PUSH1 0x1 PUSH1 0x1 PUSH1 0xA0 SHL SUB AND DUP2 JUMP JUMPDEST PUSH1 0x40 MLOAD PUSH1 0x1 PUSH1 0x1 PUSH1 0xA0 SHL SUB SWAP1 SWAP2 AND DUP2 MSTORE PUSH1 0x20 ADD JUMPDEST PUSH1 0x40 MLOAD DUP1 SWAP2 SUB SWAP1 RETURN JUMPDEST CALLVALUE DUP1 ISZERO PUSH2 0x205 JUMPI PUSH1 0x0 DUP1 REVERT JUMPDEST POP SELFBALANCE JUMPDEST PUSH1 0x40 MLOAD SWAP1 DUP2 MSTORE PUSH1 0x20 ADD PUSH2 0x1F0 JUMP JUMPDEST CALLVALUE DUP1 ISZERO PUSH2 0x222 JUMPI PUSH1 0x0 DUP1 REVERT JUMPDEST POP PUSH1 0x2 SLOAD PUSH2 0x230 SWAP1 PUSH1 0xFF AND DUP2 JUMP JUMPDEST PUSH1 0x40 MLOAD SWAP1 ISZERO ISZERO DUP2 MSTORE PUSH1 0x20 ADD PUSH2 0x1F0 JUMP JUMPDEST CALLVALUE DUP1 ISZERO PUSH2 0x24C JUMPI PUSH1 0x0 DUP1 REVERT JUMPDEST POP PUSH2 0x208 PUSH2 0x25B CALLDATASIZE PUSH1 0x4 PUSH2 0x12B9 JUMP JUMPDEST PUSH2 0x5C6 JUMP JUMPDEST CALLVALUE DUP1 ISZERO PUSH2 0x26C JUMPI PUSH1 0x0 DUP1 REVERT JUMPDEST POP PUSH2 0x208 PUSH2 0x27B CALLDATASIZE PUSH1 0x4 PUSH2 0x1301 JUMP JUMPDEST PUSH1 0x6 PUSH1 0x20 MSTORE PUSH1 0x0 SWAP1 DUP2 MSTORE PUSH1 0x40 SWAP1 KECCAK256 SLOAD DUP2 JUMP JUMPDEST CALLVALUE DUP1 ISZERO PUSH2 0x299 JUMPI PUSH1 0x0 DUP1 REVERT JUMPDEST POP PUSH2 0x1B5 PUSH2 0x616 JUMP JUMPDEST CALLVALUE DUP1 ISZERO PUSH2 0x2AE JUMPI PUSH1 0x0 DUP1 REVERT JUMPDEST POP PUSH2 0x208 PUSH2 0x2BD CALLDATASIZE PUSH1 0x4 PUSH2 0x131C JUMP JUMPDEST PUSH2 0x800 JUMP JUMPDEST CALLVALUE DUP1 ISZERO PUSH2 0x2CE JUMPI PUSH1 0x0 DUP1 REVERT JUMPDEST POP PUSH2 0x208 PUSH2 0x2DD CALLDATASIZE PUSH1 0x4 PUSH2 0x133E JUMP JUMPDEST PUSH2 0x818 JUMP JUMPDEST CALLVALUE DUP1 ISZERO PUSH2 0x2EE JUMPI PUSH1 0x0 DUP1 REVERT JUMPDEST POP PUSH2 0x208 PUSH2 0x2FD CALLDATASIZE PUSH1 0x4 PUSH2 0x1301 JUMP JUMPDEST PUSH1 0x7 PUSH1 0x20 MSTORE PUSH1 0x0 SWAP1 DUP2 MSTORE PUSH1 0x40 SWAP1 KECCAK256 SLOAD DUP2 JUMP JUMPDEST CALLVALUE DUP1 ISZERO PUSH2 0x31B JUMPI PUSH1 0x0 DUP1 REVERT JUMPDEST POP PUSH2 0x208 PUSH2 0x32A CALLDATASIZE PUSH1 0x4 PUSH2 0x133E JUMP JUMPDEST PUSH2 0x834 JUMP JUMPDEST CALLVALUE DUP1 ISZERO PUSH2 0x33B JUMPI PUSH1 0x0 DUP1 REVERT JUMPDEST POP PUSH2 0x208 PUSH2 0x34A CALLDATASIZE PUSH1 0x4 PUSH2 0x133E JUMP JUMPDEST PUSH2 0x843 JUMP JUMPDEST CALLVALUE DUP1 ISZERO PUSH2 0x35B JUMPI PUSH1 0x0 DUP1 REVERT JUMPDEST POP PUSH2 0x208 PUSH1 0x1 SLOAD DUP2 JUMP JUMPDEST CALLVALUE DUP1 ISZERO PUSH2 0x371 JUMPI PUSH1 0x0 DUP1 REVERT JUMPDEST POP PUSH2 0x208 PUSH2 0x380 CALLDATASIZE PUSH1 0x4 PUSH2 0x1301 JUMP JUMPDEST PUSH1 0x4 PUSH1 0x20 MSTORE PUSH1 0x0 SWAP1 DUP2 MSTORE PUSH1 0x40 SWAP1 KECCAK256 SLOAD DUP2 JUMP JUMPDEST CALLVALUE DUP1 ISZERO PUSH2 0x39E JUMPI PUSH1 0x0 DUP1 REVERT JUMPDEST POP PUSH2 0x208 PUSH2 0x3AD CALLDATASIZE PUSH1 0x4 PUSH2 0x1301 JUMP JUMPDEST PUSH1 0x1 PUSH1 0x1 PUSH1 0xA0 SHL SUB AND PUSH1 0x0 SWAP1 DUP2 MSTORE PUSH1 0x5 PUSH1 0x20 MSTORE PUSH1 0x40 SWAP1 KECCAK256 SLOAD SWAP1 JUMP JUMPDEST CALLVALUE DUP1 ISZERO PUSH2 0x3D4 JUMPI PUSH1 0x0 DUP1 REVERT JUMPDEST POP PUSH2 0x1B5 PUSH2 0x3E3 CALLDATASIZE PUSH1 0x4 PUSH2 0x1301 JUMP JUMPDEST PUSH2 0x84F JUMP JUMPDEST PUSH2 0x1B5 PUSH2 0x3F6 CALLDATASIZE PUSH1 0x4 PUSH2 0x1301 JUMP JUMPDEST PUSH2 0xAAC JUMP JUMPDEST CALLVALUE DUP1 ISZERO PUSH2 0x407 JUMPI PUSH1 0x0 DUP1 REVERT JUMPDEST POP PUSH2 0x208 PUSH1 0xA SLOAD DUP2 JUMP JUMPDEST CALLVALUE DUP1 ISZERO PUSH2 0x41D JUMPI PUSH1 0x0 DUP1 REVERT JUMPDEST POP PUSH2 0x208 PUSH2 0x42C CALLDATASIZE PUSH1 0x4 PUSH2 0x1301 JUMP JUMPDEST PUSH1 0x5 PUSH1 0x20 MSTORE PUSH1 0x0 SWAP1 DUP2 MSTORE PUSH1 0x40 SWAP1 KECCAK256 SLOAD DUP2 JUMP JUMPDEST CALLVALUE DUP1 ISZERO PUSH2 0x44A JUMPI PUSH1 0x0 DUP1 REVERT JUMPDEST POP PUSH1 0x0 SLOAD PUSH2 0x1DC SWAP1 PUSH1 0x1 PUSH1 0x1 PUSH1 0xA0 SHL SUB AND DUP2 JUMP JUMPDEST CALLVALUE DUP1 ISZERO PUSH2 0x46A JUMPI PUSH1 0x0 DUP1 REVERT JUMPDEST POP PUSH2 0x1DC PUSH2 0x479 CALLDATASIZE PUSH1 0x4 PUSH2 0x1301 JUMP JUMPDEST PUSH1 0x9 PUSH1 0x20 MSTORE PUSH1 0x0 SWAP1 DUP2 MSTORE PUSH1 0x40 SWAP1 KECCAK256 SLOAD PUSH1 0x1 PUSH1 0x1 PUSH1 0xA0 SHL SUB AND DUP2 JUMP JUMPDEST CALLVALUE DUP1 ISZERO PUSH2 0x4A0 JUMPI PUSH1 0x0 DUP1 REVERT JUMPDEST POP PUSH2 0x208 PUSH3 0xD2F00 DUP2 JUMP JUMPDEST CALLVALUE DUP1 ISZERO PUSH2 0x4B7 JUMPI PUSH1 0x0 DUP1 REVERT JUMPDEST POP PUSH2 0x1DC PUSH2 0x4C6 CALLDATASIZE PUSH1 0x4 PUSH2 0x1301 JUMP JUMPDEST PUSH1 0x8 PUSH1 0x20 MSTORE PUSH1 0x0 SWAP1 DUP2 MSTORE PUSH1 0x40 SWAP1 KECCAK256 SLOAD PUSH1 0x1 PUSH1 0x1 PUSH1 0xA0 SHL SUB AND DUP2 JUMP JUMPDEST CALLVALUE DUP1 ISZERO PUSH2 0x4ED JUMPI PUSH1 0x0 DUP1 REVERT JUMPDEST POP PUSH2 0x1B5 PUSH2 0xCAB JUMP JUMPDEST CALLVALUE DUP1 ISZERO PUSH2 0x502 JUMPI PUSH1 0x0 DUP1 REVERT JUMPDEST POP PUSH2 0x208 PUSH2 0x511 CALLDATASIZE PUSH1 0x4 PUSH2 0x1301 JUMP JUMPDEST PUSH2 0xE28 JUMP JUMPDEST CALLVALUE DUP1 ISZERO PUSH2 0x522 JUMPI PUSH1 0x0 DUP1 REVERT JUMPDEST POP PUSH2 0x208 PUSH2 0x531 CALLDATASIZE PUSH1 0x4 PUSH2 0x1301 JUMP JUMPDEST PUSH2 0xE55 JUMP JUMPDEST CALLVALUE DUP1 ISZERO PUSH2 0x542 JUMPI PUSH1 0x0 DUP1 REVERT JUMPDEST POP PUSH2 0x208 PUSH2 0x551 CALLDATASIZE PUSH1 0x4 PUSH2 0x1301 JUMP JUMPDEST PUSH1 0x3 PUSH1 0x20 MSTORE PUSH1 0x0 SWAP1 DUP2 MSTORE PUSH1 0x40 SWAP1 KECCAK256 SLOAD DUP2 JUMP JUMPDEST CALLVALUE DUP1 ISZERO PUSH2 0x56F JUMPI PUSH1 0x0 DUP1 REVERT JUMPDEST POP PUSH2 0x208 PUSH2 0x57E CALLDATASIZE PUSH1 0x4 PUSH2 0x1357 JUMP JUMPDEST PUSH2 0xEB7 JUMP JUMPDEST PUSH2 0x1B5 PUSH2 0x101E JUMP JUMPDEST CALLVALUE DUP1 ISZERO PUSH2 0x597 JUMPI PUSH1 0x0 DUP1 REVERT JUMPDEST POP PUSH2 0x5AB PUSH2 0x5A6 CALLDATASIZE PUSH1 0x4 PUSH2 0x1301 JUMP JUMPDEST PUSH2 0x10E6 JUMP JUMPDEST PUSH1 0x40 DUP1 MLOAD SWAP4 DUP5 MSTORE PUSH1 0x20 DUP5 ADD SWAP3 SWAP1 SWAP3 MSTORE SWAP1 DUP3 ADD MSTORE PUSH1 0x60 ADD PUSH2 0x1F0 JUMP JUMPDEST PUSH1 0x0 PUSH2 0x60E PUSH2 0x602 PUSH2 0x5F9 DUP7 PUSH2 0x5F3 PUSH2 0x5E1 DUP3 PUSH2 0x1388 PUSH2 0x1273 JUMP JUMPDEST PUSH2 0x5ED DUP10 PUSH2 0x2710 PUSH2 0x1273 JUMP JUMPDEST SWAP1 PUSH2 0x127F JUMP JUMPDEST SWAP1 PUSH2 0x128B JUMP JUMPDEST PUSH2 0x1388 SWAP1 PUSH2 0x127F JUMP JUMPDEST PUSH2 0x5F3 DUP5 PUSH2 0x2710 PUSH2 0x1273 JUMP JUMPDEST SWAP5 SWAP4 POP POP POP POP JUMP JUMPDEST PUSH1 0xB SLOAD PUSH1 0xFF AND PUSH2 0x639 JUMPI PUSH1 0x40 MLOAD PUSH4 0x45F5CE8B PUSH1 0xE1 SHL DUP2 MSTORE PUSH1 0x4 ADD PUSH1 0x40 MLOAD DUP1 SWAP2 SUB SWAP1 REVERT JUMPDEST PUSH1 0xB DUP1 SLOAD PUSH1 0xFF NOT AND SWAP1 SSTORE PUSH1 0x2 SLOAD PUSH1 0xFF AND PUSH2 0x666 JUMPI PUSH1 0x40 MLOAD PUSH4 0x21C4E357 PUSH1 0xE2 SHL DUP2 MSTORE PUSH1 0x4 ADD PUSH1 0x40 MLOAD DUP1 SWAP2 SUB SWAP1 REVERT JUMPDEST PUSH1 0x0 PUSH2 0x671 CALLER PUSH2 0xE28 JUMP JUMPDEST SWAP1 POP PUSH1 0x0 PUSH2 0x67E DUP3 PUSH2 0x834 JUMP JUMPDEST SWAP1 POP PUSH1 0x0 PUSH2 0x68C CALLER DUP4 PUSH2 0xEB7 JUMP JUMPDEST CALLER PUSH1 0x0 SWAP1 DUP2 MSTORE PUSH1 0x6 PUSH1 0x20 SWAP1 DUP2 MSTORE PUSH1 0x40 DUP1 DUP4 KECCAK256 DUP4 SWAP1 SSTORE PUSH1 0x7 SWAP1 SWAP2 MSTORE SWAP1 KECCAK256 TIMESTAMP SWAP1 SSTORE PUSH1 0xA SLOAD SWAP1 SWAP2 POP PUSH2 0x6BB SWAP1 DUP5 PUSH2 0x127F JUMP JUMPDEST PUSH1 0xA SSTORE PUSH1 0x2 SLOAD PUSH1 0x40 MLOAD PUSH1 0x0 SWAP2 PUSH2 0x100 SWAP1 DIV PUSH1 0x1 PUSH1 0x1 PUSH1 0xA0 SHL SUB AND SWAP1 DUP4 SWAP1 DUP4 DUP2 DUP2 DUP2 DUP6 DUP8 GAS CALL SWAP3 POP POP POP RETURNDATASIZE DUP1 PUSH1 0x0 DUP2 EQ PUSH2 0x710 JUMPI PUSH1 0x40 MLOAD SWAP2 POP PUSH1 0x1F NOT PUSH1 0x3F RETURNDATASIZE ADD AND DUP3 ADD PUSH1 0x40 MSTORE RETURNDATASIZE DUP3 MSTORE RETURNDATASIZE PUSH1 0x0 PUSH1 0x20 DUP5 ADD RETURNDATACOPY PUSH2 0x715 JUMP JUMPDEST PUSH1 0x60 SWAP2 POP JUMPDEST POP POP SWAP1 POP DUP1 PUSH2 0x737 JUMPI PUSH1 0x40 MLOAD PUSH4 0x12171D83 PUSH1 0xE3 SHL DUP2 MSTORE PUSH1 0x4 ADD PUSH1 0x40 MLOAD DUP1 SWAP2 SUB SWAP1 REVERT JUMPDEST PUSH1 0x0 CALLER PUSH2 0x744 DUP6 DUP6 PUSH2 0x1297 JUMP JUMPDEST PUSH1 0x40 MLOAD PUSH1 0x0 DUP2 DUP2 DUP2 DUP6 DUP8 GAS CALL SWAP3 POP POP POP RETURNDATASIZE DUP1 PUSH1 0x0 DUP2 EQ PUSH2 0x780 JUMPI PUSH1 0x40 MLOAD SWAP2 POP PUSH1 0x1F NOT PUSH1 0x3F RETURNDATASIZE ADD AND DUP3 ADD PUSH1 0x40 MSTORE RETURNDATASIZE DUP3 MSTORE RETURNDATASIZE PUSH1 0x0 PUSH1 0x20 DUP5 ADD RETURNDATACOPY PUSH2 0x785 JUMP JUMPDEST PUSH1 0x60 SWAP2 POP JUMPDEST POP POP SWAP1 POP DUP1 PUSH2 0x7A7 JUMPI PUSH1 0x40 MLOAD PUSH4 0x12171D83 PUSH1 0xE3 SHL DUP2 MSTORE PUSH1 0x4 ADD PUSH1 0x40 MLOAD DUP1 SWAP2 SUB SWAP1 REVERT JUMPDEST CALLER PUSH32 0xF8BDE6757B82CE039858BA0058689315B57807D694AA964E3E25962D0DB8396C DUP7 PUSH2 0x7D4 DUP8 DUP8 PUSH2 0x1297 JUMP JUMPDEST PUSH1 0x40 DUP1 MLOAD SWAP3 DUP4 MSTORE PUSH1 0x20 DUP4 ADD SWAP2 SWAP1 SWAP2 MSTORE ADD PUSH1 0x40 MLOAD DUP1 SWAP2 SUB SWAP1 LOG2 POP POP PUSH1 0xB DUP1 SLOAD PUSH1 0xFF NOT AND PUSH1 0x1 OR SWAP1 SSTORE POP POP POP JUMP JUMPDEST PUSH1 0x0 PUSH2 0x80F DUP4 DUP4 PUSH1 0xA SLOAD PUSH2 0x5C6 JUMP JUMPDEST SWAP1 POP JUMPDEST SWAP3 SWAP2 POP POP JUMP JUMPDEST PUSH1 0x0 PUSH2 0x812 PUSH1 0x64 PUSH2 0x5F3 PUSH1 0x1 SLOAD DUP6 PUSH2 0x1273 SWAP1 SWAP2 SWAP1 PUSH4 0xFFFFFFFF AND JUMP JUMPDEST PUSH1 0x0 PUSH2 0x812 DUP3 PUSH1 0xA SLOAD SELFBALANCE PUSH2 0x5C6 JUMP JUMPDEST PUSH1 0x0 PUSH2 0x812 DUP3 SELFBALANCE PUSH2 0x800 JUMP JUMPDEST PUSH1 0x2 SLOAD PUSH1 0xFF AND PUSH2 0x872 JUMPI PUSH1 0x40 MLOAD PUSH4 0x21C4E357 PUSH1 0xE2 SHL DUP2 MSTORE PUSH1 0x4 ADD PUSH1 0x40 MLOAD DUP1 SWAP2 SUB SWAP1 REVERT JUMPDEST CALLER PUSH1 0x0 SWAP1 DUP2 MSTORE PUSH1 0x9 PUSH1 0x20 MSTORE PUSH1 0x40 SWAP1 KECCAK256 SLOAD DUP2 SWAP1 PUSH1 0x1 PUSH1 0x1 PUSH1 0xA0 SHL SUB AND ISZERO PUSH2 0x8B1 JUMPI POP CALLER PUSH1 0x0 SWAP1 DUP2 MSTORE PUSH1 0x9 PUSH1 0x20 MSTORE PUSH1 0x40 SWAP1 KECCAK256 SLOAD PUSH1 0x1 PUSH1 0x1 PUSH1 0xA0 SHL SUB AND PUSH2 0x908 JUMP JUMPDEST PUSH1 0x1 PUSH1 0x1 PUSH1 0xA0 SHL SUB DUP3 AND CALLER EQ DUP1 PUSH2 0x8CF JUMPI POP PUSH1 0x1 PUSH1 0x1 PUSH1 0xA0 SHL SUB DUP3 AND ISZERO JUMPDEST DUP1 PUSH2 0x8F0 JUMPI POP PUSH1 0x1 PUSH1 0x1 PUSH1 0xA0 SHL SUB DUP3 AND PUSH1 0x0 SWAP1 DUP2 MSTORE PUSH1 0x5 PUSH1 0x20 MSTORE PUSH1 0x40 SWAP1 KECCAK256 SLOAD ISZERO JUMPDEST ISZERO PUSH2 0x908 JUMPI POP PUSH1 0x2 SLOAD PUSH2 0x100 SWAP1 DIV PUSH1 0x1 PUSH1 0x1 PUSH1 0xA0 SHL SUB AND JUMPDEST CALLER PUSH1 0x0 SWAP1 DUP2 MSTORE PUSH1 0x8 PUSH1 0x20 MSTORE PUSH1 0x40 SWAP1 KECCAK256 SLOAD PUSH1 0x1 PUSH1 0x1 PUSH1 0xA0 SHL SUB AND PUSH2 0x94E JUMPI CALLER PUSH1 0x0 SWAP1 DUP2 MSTORE PUSH1 0x8 PUSH1 0x20 MSTORE PUSH1 0x40 SWAP1 KECCAK256 DUP1 SLOAD PUSH1 0x1 PUSH1 0x1 PUSH1 0xA0 SHL SUB NOT AND PUSH1 0x1 PUSH1 0x1 PUSH1 0xA0 SHL SUB DUP4 AND OR SWAP1 SSTORE JUMPDEST PUSH1 0x0 PUSH2 0x959 CALLER PUSH2 0xE28 JUMP JUMPDEST SWAP1 POP PUSH1 0x0 PUSH2 0x96A DUP3 PUSH3 0xD2F00 PUSH2 0x128B JUMP JUMPDEST CALLER PUSH1 0x0 SWAP1 DUP2 MSTORE PUSH1 0x5 PUSH1 0x20 MSTORE PUSH1 0x40 SWAP1 KECCAK256 SLOAD SWAP1 SWAP2 POP PUSH2 0x987 SWAP1 DUP3 PUSH2 0x127F JUMP JUMPDEST CALLER PUSH1 0x0 SWAP1 DUP2 MSTORE PUSH1 0x5 PUSH1 0x20 SWAP1 DUP2 MSTORE PUSH1 0x40 DUP1 DUP4 KECCAK256 SWAP4 SWAP1 SWAP4 SSTORE PUSH1 0x6 DUP2 MSTORE DUP3 DUP3 KECCAK256 DUP3 SWAP1 SSTORE PUSH1 0x7 DUP2 MSTORE DUP3 DUP3 KECCAK256 TIMESTAMP SWAP1 SSTORE PUSH1 0x9 SWAP1 MSTORE SWAP1 DUP2 KECCAK256 SLOAD PUSH1 0x1 PUSH1 0x1 PUSH1 0xA0 SHL SUB AND PUSH2 0x9E4 JUMPI CALLER PUSH1 0x0 SWAP1 DUP2 MSTORE PUSH1 0x8 PUSH1 0x20 MSTORE PUSH1 0x40 SWAP1 KECCAK256 SLOAD PUSH1 0x1 PUSH1 0x1 PUSH1 0xA0 SHL SUB AND PUSH2 0x9FE JUMP JUMPDEST CALLER PUSH1 0x0 SWAP1 DUP2 MSTORE PUSH1 0x9 PUSH1 0x20 MSTORE PUSH1 0x40 SWAP1 KECCAK256 SLOAD PUSH1 0x1 PUSH1 0x1 PUSH1 0xA0 SHL SUB AND JUMPDEST SWAP1 POP PUSH2 0xA32 PUSH2 0xA13 PUSH1 0x64 PUSH2 0x5F3 DUP7 PUSH1 0xF PUSH2 0x1273 JUMP JUMPDEST PUSH1 0x1 PUSH1 0x1 PUSH1 0xA0 SHL SUB DUP4 AND PUSH1 0x0 SWAP1 DUP2 MSTORE PUSH1 0x6 PUSH1 0x20 MSTORE PUSH1 0x40 SWAP1 KECCAK256 SLOAD SWAP1 PUSH2 0x127F JUMP JUMPDEST PUSH1 0x1 PUSH1 0x1 PUSH1 0xA0 SHL SUB DUP3 AND PUSH1 0x0 SWAP1 DUP2 MSTORE PUSH1 0x6 PUSH1 0x20 MSTORE PUSH1 0x40 SWAP1 KECCAK256 SSTORE PUSH2 0xA62 PUSH2 0xA59 DUP5 PUSH1 0x5 PUSH2 0x128B JUMP JUMPDEST PUSH1 0xA SLOAD SWAP1 PUSH2 0x127F JUMP JUMPDEST PUSH1 0xA SSTORE PUSH1 0x40 MLOAD DUP3 DUP2 MSTORE PUSH1 0x1 PUSH1 0x1 PUSH1 0xA0 SHL SUB DUP6 AND SWAP1 CALLER SWAP1 PUSH32 0x793D02D951962F9D8920F6C37120B756E3C24B16F0AA57BFE8E8BABC28D58626 SWAP1 PUSH1 0x20 ADD PUSH1 0x40 MLOAD DUP1 SWAP2 SUB SWAP1 LOG3 POP POP POP POP POP JUMP JUMPDEST PUSH1 0xB SLOAD PUSH1 0xFF AND PUSH2 0xACF JUMPI PUSH1 0x40 MLOAD PUSH4 0x45F5CE8B PUSH1 0xE1 SHL DUP2 MSTORE PUSH1 0x4 ADD PUSH1 0x40 MLOAD DUP1 SWAP2 SUB SWAP1 REVERT JUMPDEST PUSH1 0xB DUP1 SLOAD PUSH1 0xFF NOT AND SWAP1 SSTORE PUSH1 0x2 SLOAD PUSH1 0xFF AND PUSH2 0xAFC JUMPI PUSH1 0x40 MLOAD PUSH4 0x21C4E357 PUSH1 0xE2 SHL DUP2 MSTORE PUSH1 0x4 ADD PUSH1 0x40 MLOAD DUP1 SWAP2 SUB SWAP1 REVERT JUMPDEST PUSH1 0x1 PUSH1 0x1 PUSH1 0xA0 SHL SUB DUP2 AND CALLER EQ DUP1 ISZERO SWAP1 PUSH2 0xB1D JUMPI POP PUSH1 0x1 PUSH1 0x1 PUSH1 0xA0 SHL SUB DUP2 AND ISZERO ISZERO JUMPDEST DUP1 ISZERO PUSH2 0xB40 JUMPI POP PUSH1 0x1 PUSH1 0x1 PUSH1 0xA0 SHL SUB DUP2 AND PUSH1 0x0 SWAP1 DUP2 MSTORE PUSH1 0x5 PUSH1 0x20 MSTORE PUSH1 0x40 SWAP1 KECCAK256 SLOAD ISZERO ISZERO JUMPDEST ISZERO PUSH2 0xB6E JUMPI CALLER PUSH1 0x0 SWAP1 DUP2 MSTORE PUSH1 0x9 PUSH1 0x20 MSTORE PUSH1 0x40 SWAP1 KECCAK256 DUP1 SLOAD PUSH1 0x1 PUSH1 0x1 PUSH1 0xA0 SHL SUB NOT AND PUSH1 0x1 PUSH1 0x1 PUSH1 0xA0 SHL SUB DUP4 AND OR SWAP1 SSTORE JUMPDEST PUSH1 0x0 PUSH2 0xB7E CALLVALUE PUSH2 0x2BD SELFBALANCE DUP3 PUSH2 0x1297 JUMP JUMPDEST SWAP1 POP PUSH2 0xB93 PUSH2 0xB8C DUP3 PUSH2 0x818 JUMP JUMPDEST DUP3 SWAP1 PUSH2 0x1297 JUMP JUMPDEST SWAP1 POP PUSH1 0x0 PUSH2 0xBA0 CALLVALUE PUSH2 0x818 JUMP JUMPDEST PUSH1 0x2 SLOAD PUSH1 0x40 MLOAD SWAP2 SWAP3 POP PUSH1 0x0 SWAP2 PUSH2 0x100 SWAP1 SWAP2 DIV PUSH1 0x1 PUSH1 0x1 PUSH1 0xA0 SHL SUB AND SWAP1 DUP4 SWAP1 DUP4 DUP2 DUP2 DUP2 DUP6 DUP8 GAS CALL SWAP3 POP POP POP RETURNDATASIZE DUP1 PUSH1 0x0 DUP2 EQ PUSH2 0xBF6 JUMPI PUSH1 0x40 MLOAD SWAP2 POP PUSH1 0x1F NOT PUSH1 0x3F RETURNDATASIZE ADD AND DUP3 ADD PUSH1 0x40 MSTORE RETURNDATASIZE DUP3 MSTORE RETURNDATASIZE PUSH1 0x0 PUSH1 0x20 DUP5 ADD RETURNDATACOPY PUSH2 0xBFB JUMP JUMPDEST PUSH1 0x60 SWAP2 POP JUMPDEST POP POP SWAP1 POP DUP1 PUSH2 0xC1D JUMPI PUSH1 0x40 MLOAD PUSH4 0x12171D83 PUSH1 0xE3 SHL DUP2 MSTORE PUSH1 0x4 ADD PUSH1 0x40 MLOAD DUP1 SWAP2 SUB SWAP1 REVERT JUMPDEST CALLER PUSH1 0x0 SWAP1 DUP2 MSTORE PUSH1 0x6 PUSH1 0x20 MSTORE PUSH1 0x40 SWAP1 KECCAK256 SLOAD PUSH2 0xC37 SWAP1 DUP5 PUSH2 0x127F JUMP JUMPDEST CALLER PUSH1 0x0 DUP2 DUP2 MSTORE PUSH1 0x6 PUSH1 0x20 SWAP1 DUP2 MSTORE PUSH1 0x40 SWAP2 DUP3 SWAP1 KECCAK256 SWAP4 SWAP1 SWAP4 SSTORE DUP1 MLOAD CALLVALUE DUP2 MSTORE SWAP3 DUP4 ADD DUP7 SWAP1 MSTORE PUSH1 0x1 PUSH1 0x1 PUSH1 0xA0 SHL SUB DUP8 AND SWAP3 PUSH32 0x17BDF410810CAFADE59A00F325789F6D13E4EE94EF3E658D8FD84B3F3859662 SWAP2 ADD PUSH1 0x40 MLOAD DUP1 SWAP2 SUB SWAP1 LOG3 PUSH2 0xC98 DUP5 PUSH2 0x84F JUMP JUMPDEST POP POP PUSH1 0xB DUP1 SLOAD PUSH1 0xFF NOT AND PUSH1 0x1 OR SWAP1 SSTORE POP POP JUMP JUMPDEST PUSH1 0xB SLOAD PUSH1 0xFF AND PUSH2 0xCCE JUMPI PUSH1 0x40 MLOAD PUSH4 0x45F5CE8B PUSH1 0xE1 SHL DUP2 MSTORE PUSH1 0x4 ADD PUSH1 0x40 MLOAD DUP1 SWAP2 SUB SWAP1 REVERT JUMPDEST PUSH1 0xB DUP1 SLOAD PUSH1 0xFF NOT AND SWAP1 SSTORE PUSH1 0x2 SLOAD PUSH2 0x100 SWAP1 DIV PUSH1 0x1 PUSH1 0x1 PUSH1 0xA0 SHL SUB AND CALLER EQ PUSH2 0xD08 JUMPI PUSH1 0x40 MLOAD PUSH4 0x5FC483C5 PUSH1 0xE0 SHL DUP2 MSTORE PUSH1 0x4 ADD PUSH1 0x40 MLOAD DUP1 SWAP2 SUB SWAP1 REVERT JUMPDEST SELFBALANCE DUP1 PUSH2 0xD4F JUMPI PUSH1 0x40 MLOAD PUSH3 0x461BCD PUSH1 0xE5 SHL DUP2 MSTORE PUSH1 0x20 PUSH1 0x4 DUP3 ADD MSTORE PUSH1 0x12 PUSH1 0x24 DUP3 ADD MSTORE PUSH18 0x4E6F20424E4220746F207769746864726177 PUSH1 0x70 SHL PUSH1 0x44 DUP3 ADD MSTORE PUSH1 0x64 ADD PUSH1 0x40 MLOAD DUP1 SWAP2 SUB SWAP1 REVERT JUMPDEST PUSH1 0x2 SLOAD PUSH1 0x40 MLOAD DUP3 SWAP2 PUSH1 0x0 SWAP2 PUSH2 0x100 SWAP1 SWAP2 DIV PUSH1 0x1 PUSH1 0x1 PUSH1 0xA0 SHL SUB AND SWAP1 DUP4 SWAP1 PUSH1 0x0 PUSH1 0x40 MLOAD DUP1 DUP4 SUB DUP2 DUP6 DUP8 GAS CALL SWAP3 POP POP POP RETURNDATASIZE DUP1 PUSH1 0x0 DUP2 EQ PUSH2 0xDA9 JUMPI PUSH1 0x40 MLOAD SWAP2 POP PUSH1 0x1F NOT PUSH1 0x3F RETURNDATASIZE ADD AND DUP3 ADD PUSH1 0x40 MSTORE RETURNDATASIZE DUP3 MSTORE RETURNDATASIZE PUSH1 0x0 PUSH1 0x20 DUP5 ADD RETURNDATACOPY PUSH2 0xDAE JUMP JUMPDEST PUSH1 0x60 SWAP2 POP JUMPDEST POP POP SWAP1 POP DUP1 PUSH2 0xDD0 JUMPI PUSH1 0x40 MLOAD PUSH4 0x12171D83 PUSH1 0xE3 SHL DUP2 MSTORE PUSH1 0x4 ADD PUSH1 0x40 MLOAD DUP1 SWAP2 SUB SWAP1 REVERT JUMPDEST PUSH1 0x2 SLOAD PUSH1 0x40 MLOAD DUP4 DUP2 MSTORE PUSH2 0x100 SWAP1 SWAP2 DIV PUSH1 0x1 PUSH1 0x1 PUSH1 0xA0 SHL SUB AND SWAP1 PUSH32 0xBCBCA848505EE6FF511C1589A286A9A79817CF38735AB9145E8E61658D07EC7B SWAP1 PUSH1 0x20 ADD PUSH1 0x40 MLOAD DUP1 SWAP2 SUB SWAP1 LOG2 POP POP PUSH1 0xB DUP1 SLOAD PUSH1 0xFF NOT AND PUSH1 0x1 OR SWAP1 SSTORE POP JUMP JUMPDEST PUSH1 0x0 PUSH2 0x812 PUSH2 0xE36 DUP4 PUSH2 0xE55 JUMP JUMPDEST PUSH1 0x1 PUSH1 0x1 PUSH1 0xA0 SHL SUB DUP5 AND PUSH1 0x0 SWAP1 DUP2 MSTORE PUSH1 0x6 PUSH1 0x20 MSTORE PUSH1 0x40 SWAP1 KECCAK256 SLOAD SWAP1 PUSH2 0x127F JUMP JUMPDEST PUSH1 0x1 PUSH1 0x1 PUSH1 0xA0 SHL SUB DUP2 AND PUSH1 0x0 SWAP1 DUP2 MSTORE PUSH1 0x7 PUSH1 0x20 MSTORE PUSH1 0x40 DUP2 KECCAK256 SLOAD DUP2 SWAP1 PUSH2 0xE89 SWAP1 PUSH3 0xD2F00 SWAP1 PUSH2 0xE84 SWAP1 TIMESTAMP SWAP1 PUSH2 0x1297 JUMP JUMPDEST PUSH2 0x12A3 JUMP JUMPDEST PUSH1 0x1 PUSH1 0x1 PUSH1 0xA0 SHL SUB DUP5 AND PUSH1 0x0 SWAP1 DUP2 MSTORE PUSH1 0x5 PUSH1 0x20 MSTORE PUSH1 0x40 SWAP1 KECCAK256 SLOAD SWAP1 SWAP2 POP PUSH2 0xEB0 SWAP1 DUP3 SWAP1 PUSH2 0x1273 JUMP JUMPDEST SWAP4 SWAP3 POP POP POP JUMP JUMPDEST PUSH1 0x1 PUSH1 0x1 PUSH1 0xA0 SHL SUB DUP3 AND PUSH1 0x0 SWAP1 DUP2 MSTORE PUSH1 0x4 PUSH1 0x20 MSTORE PUSH1 0x40 DUP2 KECCAK256 SLOAD ISZERO DUP1 ISZERO SWAP1 PUSH2 0xF03 JUMPI POP PUSH1 0x1 PUSH1 0x1 PUSH1 0xA0 SHL SUB DUP4 AND PUSH1 0x0 SWAP1 DUP2 MSTORE PUSH1 0x4 PUSH1 0x20 MSTORE PUSH1 0x40 SWAP1 KECCAK256 SLOAD PUSH2 0xF00 SWAP1 PUSH3 0x93A80 SWAP1 PUSH2 0x1397 JUMP JUMPDEST TIMESTAMP GT JUMPDEST ISZERO PUSH2 0xF2F JUMPI PUSH1 0x1 PUSH1 0x1 PUSH1 0xA0 SHL SUB DUP4 AND PUSH1 0x0 SWAP1 DUP2 MSTORE PUSH1 0x3 PUSH1 0x20 SWAP1 DUP2 MSTORE PUSH1 0x40 DUP1 DUP4 KECCAK256 DUP4 SWAP1 SSTORE PUSH1 0x4 SWAP1 SWAP2 MSTORE DUP2 KECCAK256 SSTORE JUMPDEST PUSH1 0x1 PUSH1 0x1 PUSH1 0xA0 SHL SUB DUP4 AND PUSH1 0x0 SWAP1 DUP2 MSTORE PUSH1 0x4 PUSH1 0x20 MSTORE PUSH1 0x40 DUP2 KECCAK256 SLOAD SWAP1 SUB PUSH2 0xF6A JUMPI PUSH1 0x1 PUSH1 0x1 PUSH1 0xA0 SHL SUB DUP4 AND PUSH1 0x0 SWAP1 DUP2 MSTORE PUSH1 0x4 PUSH1 0x20 MSTORE PUSH1 0x40 SWAP1 KECCAK256 TIMESTAMP SWAP1 SSTORE JUMPDEST PUSH1 0x1 PUSH1 0x1 PUSH1 0xA0 SHL SUB DUP4 AND PUSH1 0x0 SWAP1 DUP2 MSTORE PUSH1 0x3 PUSH1 0x20 MSTORE PUSH1 0x40 DUP2 KECCAK256 DUP1 SLOAD PUSH1 0x1 SWAP3 SWAP1 PUSH2 0xF93 SWAP1 DUP5 SWAP1 PUSH2 0x1397 JUMP JUMPDEST SWAP1 SWAP2 SSTORE POP POP PUSH1 0x1 SLOAD PUSH1 0x1 PUSH1 0x1 PUSH1 0xA0 SHL SUB DUP5 AND PUSH1 0x0 SWAP1 DUP2 MSTORE PUSH1 0x3 PUSH1 0x20 DUP2 SWAP1 MSTORE PUSH1 0x40 SWAP1 SWAP2 KECCAK256 SLOAD GT ISZERO PUSH2 0x100F JUMPI PUSH1 0x1 PUSH1 0x1 PUSH1 0xA0 SHL SUB DUP5 AND PUSH1 0x0 SWAP1 DUP2 MSTORE PUSH1 0x3 PUSH1 0x20 DUP2 SWAP1 MSTORE PUSH1 0x40 DUP3 KECCAK256 SLOAD PUSH2 0xFE2 SWAP2 SWAP1 PUSH2 0x13AA JUMP JUMPDEST PUSH2 0xFED SWAP1 PUSH1 0x5 PUSH2 0x13BD JUMP JUMPDEST SWAP1 POP DUP1 PUSH1 0x1 SLOAD PUSH2 0xFFD SWAP2 SWAP1 PUSH2 0x1397 JUMP JUMPDEST SWAP2 POP PUSH1 0x1E DUP3 GT ISZERO PUSH2 0x100D JUMPI PUSH1 0x1E SWAP2 POP JUMPDEST POP JUMPDEST PUSH2 0x60E PUSH1 0x64 PUSH2 0x5F3 DUP6 DUP5 PUSH2 0x1273 JUMP JUMPDEST PUSH1 0x2 SLOAD PUSH2 0x100 SWAP1 DIV PUSH1 0x1 PUSH1 0x1 PUSH1 0xA0 SHL SUB AND CALLER EQ PUSH2 0x104E JUMPI PUSH1 0x40 MLOAD PUSH4 0x5FC483C5 PUSH1 0xE0 SHL DUP2 MSTORE PUSH1 0x4 ADD PUSH1 0x40 MLOAD DUP1 SWAP2 SUB SWAP1 REVERT JUMPDEST PUSH1 0x2 SLOAD PUSH1 0xFF AND ISZERO PUSH2 0x1071 JUMPI PUSH1 0x40 MLOAD PUSH3 0xDC149F PUSH1 0xE4 SHL DUP2 MSTORE PUSH1 0x4 ADD PUSH1 0x40 MLOAD DUP1 SWAP2 SUB SWAP1 REVERT JUMPDEST PUSH1 0xA SLOAD ISZERO PUSH2 0x1091 JUMPI PUSH1 0x40 MLOAD PUSH3 0xDC149F PUSH1 0xE4 SHL DUP2 MSTORE PUSH1 0x4 ADD PUSH1 0x40 MLOAD DUP1 SWAP2 SUB SWAP1 REVERT JUMPDEST PUSH1 0x2 DUP1 SLOAD PUSH1 0xFF NOT AND PUSH1 0x1 OR SWAP1 SSTORE PUSH5 0x141DD76000 PUSH1 0xA DUP2 SWAP1 SSTORE PUSH1 0x40 MLOAD CALLER SWAP2 PUSH32 0x4BC8806FE18FED846018D101DE036DDC74D94ED33ED358CE06ABD1E77854743 SWAP2 PUSH2 0x10DC SWAP2 DUP2 MSTORE PUSH1 0x20 ADD SWAP1 JUMP JUMPDEST PUSH1 0x40 MLOAD DUP1 SWAP2 SUB SWAP1 LOG2 JUMP JUMPDEST PUSH1 0x1 PUSH1 0x1 PUSH1 0xA0 SHL SUB DUP2 AND PUSH1 0x0 SWAP1 DUP2 MSTORE PUSH1 0x4 PUSH1 0x20 MSTORE PUSH1 0x40 DUP2 KECCAK256 SLOAD DUP2 SWAP1 DUP2 SWAP1 ISZERO PUSH2 0x116C JUMPI PUSH1 0x1 PUSH1 0x1 PUSH1 0xA0 SHL SUB DUP5 AND PUSH1 0x0 SWAP1 DUP2 MSTORE PUSH1 0x4 PUSH1 0x20 MSTORE PUSH1 0x40 SWAP1 KECCAK256 SLOAD PUSH2 0x112F SWAP1 PUSH3 0x93A80 SWAP1 PUSH2 0x1397 JUMP JUMPDEST TIMESTAMP LT ISZERO PUSH2 0x116C JUMPI PUSH1 0x1 PUSH1 0x1 PUSH1 0xA0 SHL SUB DUP5 AND PUSH1 0x0 SWAP1 DUP2 MSTORE PUSH1 0x4 PUSH1 0x20 MSTORE PUSH1 0x40 SWAP1 KECCAK256 SLOAD TIMESTAMP SWAP1 PUSH2 0x115F SWAP1 PUSH3 0x93A80 SWAP1 PUSH2 0x1397 JUMP JUMPDEST PUSH2 0x1169 SWAP2 SWAP1 PUSH2 0x13AA JUMP JUMPDEST SWAP1 POP JUMPDEST PUSH1 0x1 PUSH1 0x1 PUSH1 0xA0 SHL SUB DUP5 AND PUSH1 0x0 SWAP1 DUP2 MSTORE PUSH1 0x4 PUSH1 0x20 MSTORE PUSH1 0x40 SWAP1 KECCAK256 SLOAD ISZERO DUP1 PUSH2 0x11B6 JUMPI POP PUSH1 0x1 PUSH1 0x1 PUSH1 0xA0 SHL SUB DUP5 AND PUSH1 0x0 SWAP1 DUP2 MSTORE PUSH1 0x4 PUSH1 0x20 MSTORE PUSH1 0x40 SWAP1 KECCAK256 SLOAD PUSH2 0x11B3 SWAP1 PUSH3 0x93A80 SWAP1 PUSH2 0x1397 JUMP JUMPDEST TIMESTAMP GT JUMPDEST ISZERO PUSH2 0x11CB JUMPI POP POP PUSH1 0x1 SLOAD SWAP1 POP PUSH1 0x3 PUSH1 0x0 PUSH2 0x126C JUMP JUMPDEST PUSH1 0x1 PUSH1 0x1 PUSH1 0xA0 SHL SUB DUP5 AND PUSH1 0x0 SWAP1 DUP2 MSTORE PUSH1 0x3 PUSH1 0x20 DUP2 SWAP1 MSTORE PUSH1 0x40 SWAP1 SWAP2 KECCAK256 SLOAD GT PUSH2 0x121F JUMPI PUSH1 0x1 SLOAD PUSH1 0x1 PUSH1 0x1 PUSH1 0xA0 SHL SUB DUP6 AND PUSH1 0x0 SWAP1 DUP2 MSTORE PUSH1 0x3 PUSH1 0x20 DUP2 SWAP1 MSTORE PUSH1 0x40 SWAP1 SWAP2 KECCAK256 SLOAD SWAP2 SWAP5 POP PUSH2 0x1218 SWAP2 SWAP1 PUSH2 0x13AA JUMP JUMPDEST SWAP2 POP PUSH2 0x126C JUMP JUMPDEST PUSH1 0x1 PUSH1 0x1 PUSH1 0xA0 SHL SUB DUP5 AND PUSH1 0x0 SWAP1 DUP2 MSTORE PUSH1 0x3 PUSH1 0x20 DUP2 SWAP1 MSTORE PUSH1 0x40 DUP3 KECCAK256 SLOAD PUSH2 0x1244 SWAP2 SWAP1 PUSH2 0x13AA JUMP JUMPDEST PUSH2 0x124F SWAP1 PUSH1 0x5 PUSH2 0x13BD JUMP JUMPDEST SWAP1 POP PUSH2 0x1264 PUSH1 0x1E DUP3 PUSH1 0x1 SLOAD PUSH2 0xE84 SWAP2 SWAP1 PUSH2 0x1397 JUMP JUMPDEST SWAP4 POP PUSH1 0x0 SWAP3 POP POP JUMPDEST SWAP2 SWAP4 SWAP1 SWAP3 POP JUMP JUMPDEST PUSH1 0x0 PUSH2 0x80F DUP3 DUP5 PUSH2 0x13BD JUMP JUMPDEST PUSH1 0x0 PUSH2 0x80F DUP3 DUP5 PUSH2 0x1397 JUMP JUMPDEST PUSH1 0x0 PUSH2 0x80F DUP3 DUP5 PUSH2 0x13D4 JUMP JUMPDEST PUSH1 0x0 PUSH2 0x80F DUP3 DUP5 PUSH2 0x13AA JUMP JUMPDEST PUSH1 0x0 DUP2 DUP4 LT PUSH2 0x12B2 JUMPI DUP2 PUSH2 0x80F JUMP JUMPDEST POP SWAP1 SWAP2 SWAP1 POP JUMP JUMPDEST PUSH1 0x0 DUP1 PUSH1 0x0 PUSH1 0x60 DUP5 DUP7 SUB SLT ISZERO PUSH2 0x12CE JUMPI PUSH1 0x0 DUP1 REVERT JUMPDEST POP POP DUP2 CALLDATALOAD SWAP4 PUSH1 0x20 DUP4 ADD CALLDATALOAD SWAP4 POP PUSH1 0x40 SWAP1 SWAP3 ADD CALLDATALOAD SWAP2 SWAP1 POP JUMP JUMPDEST DUP1 CALLDATALOAD PUSH1 0x1 PUSH1 0x1 PUSH1 0xA0 SHL SUB DUP2 AND DUP2 EQ PUSH2 0x12FC JUMPI PUSH1 0x0 DUP1 REVERT JUMPDEST SWAP2 SWAP1 POP JUMP JUMPDEST PUSH1 0x0 PUSH1 0x20 DUP3 DUP5 SUB SLT ISZERO PUSH2 0x1313 JUMPI PUSH1 0x0 DUP1 REVERT JUMPDEST PUSH2 0x80F DUP3 PUSH2 0x12E5 JUMP JUMPDEST PUSH1 0x0 DUP1 PUSH1 0x40 DUP4 DUP6 SUB SLT ISZERO PUSH2 0x132F JUMPI PUSH1 0x0 DUP1 REVERT JUMPDEST POP POP DUP1 CALLDATALOAD SWAP3 PUSH1 0x20 SWAP1 SWAP2 ADD CALLDATALOAD SWAP2 POP JUMP JUMPDEST PUSH1 0x0 PUSH1 0x20 DUP3 DUP5 SUB SLT ISZERO PUSH2 0x1350 JUMPI PUSH1 0x0 DUP1 REVERT JUMPDEST POP CALLDATALOAD SWAP2 SWAP1 POP JUMP JUMPDEST PUSH1 0x0 DUP1 PUSH1 0x40 DUP4 DUP6 SUB SLT ISZERO PUSH2 0x136A JUMPI PUSH1 0x0 DUP1 REVERT JUMPDEST PUSH2 0x1373 DUP4 PUSH2 0x12E5 JUMP JUMPDEST SWAP5 PUSH1 0x20 SWAP4 SWAP1 SWAP4 ADD CALLDATALOAD SWAP4 POP POP POP JUMP JUMPDEST PUSH4 0x4E487B71 PUSH1 0xE0 SHL PUSH1 0x0 MSTORE PUSH1 0x11 PUSH1 0x4 MSTORE PUSH1 0x24 PUSH1 0x0 REVERT JUMPDEST DUP1 DUP3 ADD DUP1 DUP3 GT ISZERO PUSH2 0x812 JUMPI PUSH2 0x812 PUSH2 0x1381 JUMP JUMPDEST DUP2 DUP2 SUB DUP2 DUP2 GT ISZERO PUSH2 0x812 JUMPI PUSH2 0x812 PUSH2 0x1381 JUMP JUMPDEST DUP1 DUP3 MUL DUP2 ISZERO DUP3 DUP3 DIV DUP5 EQ OR PUSH2 0x812 JUMPI PUSH2 0x812 PUSH2 0x1381 JUMP JUMPDEST PUSH1 0x0 DUP3 PUSH2 0x13F1 JUMPI PUSH4 0x4E487B71 PUSH1 0xE0 SHL PUSH1 0x0 MSTORE PUSH1 0x12 PUSH1 0x4 MSTORE PUSH1 0x24 PUSH1 0x0 REVERT JUMPDEST POP DIV SWAP1 JUMP INVALID LOG2 PUSH5 0x6970667358 0x22 SLT KECCAK256 0x4C 0xCE PUSH8 0x9489FC8E7309827C 0xC4 EXTCODESIZE CALLCODE EXTCODECOPY CREATE 0xE SWAP11 0xB6 MSTORE DUP7 POP ADD PUSH18 0x63B1D02D6AC9879664736F6C634300081100 CALLER "},"methodIdentifiers":{"CORN_TO_FEED_1HARVESTER()":"9776c452","buyCorn(address)":"78b46044","calculateCornBuy(uint256,uint256)":"3b635423","calculateCornBuySimple(uint256)":"4e0dc2ee","calculateCornSell(uint256)":"497cab2c","calculateDynamicFee(address,uint256)":"c91ecf2e","calculateTrade(uint256,uint256,uint256)":"229824c4","ceoAddress()":"0a0f8168","claimedCorns(address)":"24d3079a","devFee(uint256)":"3bc0461a","firstSellTimestamp(address)":"6db1384a","getBalance()":"12065fe0","getCornsSinceLastHatch(address)":"c63db2f0","getMyCorns(address)":"b8f66370","getMyHarvesters(address)":"747d8440","getUserFeeInfo(address)":"f278d74b","hatcheryHarvesters(address)":"81d11718","initialized()":"158ef93e","lastHatch(address)":"467ece79","marketCorns()":"7e337178","marketingFee()":"6b67c4df","openFarm()":"e5e2fb10","owner()":"8da5cb5b","popCorn(address)":"765ecbc4","referrals(address)":"9ca423b3","securitySafeguard()":"a9bbac02","sellCorn()":"2cf71689","userReferrers(address)":"8f63489d","weeklySellCount(address)":"c768f7ba"}}}}}