{"contracts/BakedPizza.sol":{"BakedPizza":{"abi":[{"inputs":[],"stateMutability":"nonpayable","type":"constructor"},{"inputs":[],"name":"AlreadyInitialized","type":"error"},{"inputs":[],"name":"NotInitialized","type":"error"},{"inputs":[],"name":"OnlyOwner","type":"error"},{"inputs":[],"name":"ReentrancyGuard","type":"error"},{"inputs":[],"name":"TransferFailed","type":"error"},{"anonymous":false,"inputs":[{"indexed":true,"internalType":"address","name":"user","type":"address"},{"indexed":true,"internalType":"address","name":"referrer","type":"address"},{"indexed":false,"internalType":"uint256","name":"bnbSpent","type":"uint256"},{"indexed":false,"internalType":"uint256","name":"eggsReceived","type":"uint256"}],"name":"BakePizza","type":"event"},{"anonymous":false,"inputs":[{"indexed":true,"internalType":"address","name":"user","type":"address"},{"indexed":false,"internalType":"uint256","name":"eggsSold","type":"uint256"},{"indexed":false,"internalType":"uint256","name":"bnbReceived","type":"uint256"}],"name":"EatPizza","type":"event"},{"anonymous":false,"inputs":[{"indexed":true,"internalType":"address","name":"owner","type":"address"},{"indexed":false,"internalType":"uint256","name":"initialEggs","type":"uint256"}],"name":"KitchenOpened","type":"event"},{"anonymous":false,"inputs":[{"indexed":true,"internalType":"address","name":"user","type":"address"},{"indexed":true,"internalType":"address","name":"referrer","type":"address"},{"indexed":false,"internalType":"uint256","name":"minersBought","type":"uint256"}],"name":"RebakePizza","type":"event"},{"stateMutability":"payable","type":"fallback"},{"inputs":[],"name":"EGGS_TO_HATCH_1MINERS","outputs":[{"internalType":"uint256","name":"","type":"uint256"}],"stateMutability":"view","type":"function"},{"inputs":[{"internalType":"address","name":"ref","type":"address"}],"name":"bakePizza","outputs":[],"stateMutability":"payable","type":"function"},{"inputs":[{"internalType":"uint256","name":"eth","type":"uint256"},{"internalType":"uint256","name":"contractBalance","type":"uint256"}],"name":"calculateEggBuy","outputs":[{"internalType":"uint256","name":"","type":"uint256"}],"stateMutability":"view","type":"function"},{"inputs":[{"internalType":"uint256","name":"eth","type":"uint256"}],"name":"calculateEggBuySimple","outputs":[{"internalType":"uint256","name":"","type":"uint256"}],"stateMutability":"view","type":"function"},{"inputs":[{"internalType":"uint256","name":"eggs","type":"uint256"}],"name":"calculateEggSell","outputs":[{"internalType":"uint256","name":"","type":"uint256"}],"stateMutability":"view","type":"function"},{"inputs":[{"internalType":"uint256","name":"rt","type":"uint256"},{"internalType":"uint256","name":"rs","type":"uint256"},{"internalType":"uint256","name":"bs","type":"uint256"}],"name":"calculateTrade","outputs":[{"internalType":"uint256","name":"","type":"uint256"}],"stateMutability":"pure","type":"function"},{"inputs":[],"name":"ceoAddress","outputs":[{"internalType":"address payable","name":"","type":"address"}],"stateMutability":"view","type":"function"},{"inputs":[{"internalType":"address","name":"","type":"address"}],"name":"claimedEggs","outputs":[{"internalType":"uint256","name":"","type":"uint256"}],"stateMutability":"view","type":"function"},{"inputs":[{"internalType":"uint256","name":"amount","type":"uint256"}],"name":"devFee","outputs":[{"internalType":"uint256","name":"","type":"uint256"}],"stateMutability":"view","type":"function"},{"inputs":[],"name":"eatPizza","outputs":[],"stateMutability":"nonpayable","type":"function"},{"inputs":[],"name":"getBalance","outputs":[{"internalType":"uint256","name":"","type":"uint256"}],"stateMutability":"view","type":"function"},{"inputs":[{"internalType":"address","name":"adr","type":"address"}],"name":"getEggsSinceLastHatch","outputs":[{"internalType":"uint256","name":"","type":"uint256"}],"stateMutability":"view","type":"function"},{"inputs":[{"internalType":"address","name":"_adr","type":"address"}],"name":"getMyEggs","outputs":[{"internalType":"uint256","name":"","type":"uint256"}],"stateMutability":"view","type":"function"},{"inputs":[{"internalType":"address","name":"_adr","type":"address"}],"name":"getMyMiners","outputs":[{"internalType":"uint256","name":"","type":"uint256"}],"stateMutability":"view","type":"function"},{"inputs":[{"internalType":"address","name":"","type":"address"}],"name":"hatcheryMiners","outputs":[{"internalType":"uint256","name":"","type":"uint256"}],"stateMutability":"view","type":"function"},{"inputs":[],"name":"initialized","outputs":[{"internalType":"bool","name":"","type":"bool"}],"stateMutability":"view","type":"function"},{"inputs":[{"internalType":"address","name":"","type":"address"}],"name":"lastHatch","outputs":[{"internalType":"uint256","name":"","type":"uint256"}],"stateMutability":"view","type":"function"},{"inputs":[],"name":"marketEggs","outputs":[{"internalType":"uint256","name":"","type":"uint256"}],"stateMutability":"view","type":"function"},{"inputs":[],"name":"marketingFee","outputs":[{"internalType":"uint256","name":"","type":"uint256"}],"stateMutability":"view","type":"function"},{"inputs":[],"name":"openKitchen","outputs":[],"stateMutability":"payable","type":"function"},{"inputs":[{"internalType":"address","name":"ref","type":"address"}],"name":"rebakePizza","outputs":[],"stateMutability":"nonpayable","type":"function"},{"inputs":[{"internalType":"address","name":"","type":"address"}],"name":"referrals","outputs":[{"internalType":"address","name":"","type":"address"}],"stateMutability":"view","type":"function"},{"stateMutability":"payable","type":"receive"}],"evm":{"bytecode":{"linkReferences":{},"object":"608060405260056000556001805460ff19908116825560078054909116909117905534801561002d57600080fd5b5060018054610100600160a81b0319163361010002179055610d01806100546000396000f3fe60806040526004361061012d5760003560e01c80636b67c4df116100a5578063847349ef1161006c578063847349ef146103745780638e3163271461037c5780639ca423b31461039c578063d7c8843b146103d2578063e00a9663146103f2578063f7fb81681461041257005b80636b67c4df146102cd57806372670361146102e357806379532aa9146103105780637cdebc211461033d5780637e56fde51461035457005b806326fd8422116100f457806326fd8422146101f45780632e9392bb146102145780632ef6a7431461022a5780633bc0461a1461024a578063467ece791461026a5780634b634b061461029757005b806309e1a83d146101365780630a0f81681461014b57806312065fe01461018d578063158ef93e146101aa578063229824c4146101d457005b3661013457005b005b34801561014257600080fd5b50610134610425565b34801561015757600080fd5b506001546101709061010090046001600160a01b031681565b6040516001600160a01b0390911681526020015b60405180910390f35b34801561019957600080fd5b50475b604051908152602001610184565b3480156101b657600080fd5b506001546101c49060ff1681565b6040519015158152602001610184565b3480156101e057600080fd5b5061019c6101ef366004610bc6565b61060e565b34801561020057600080fd5b5061019c61020f366004610bf2565b61065e565b34801561022057600080fd5b5061019c60065481565b34801561023657600080fd5b5061019c610245366004610c14565b610676565b34801561025657600080fd5b5061019c610265366004610c3d565b6106a3565b34801561027657600080fd5b5061019c610285366004610c14565b60046020526000908152604090205481565b3480156102a357600080fd5b5061019c6102b2366004610c14565b6001600160a01b031660009081526002602052604090205490565b3480156102d957600080fd5b5061019c60005481565b3480156102ef57600080fd5b5061019c6102fe366004610c14565b60036020526000908152604090205481565b34801561031c57600080fd5b5061019c61032b366004610c14565b60026020526000908152604090205481565b34801561034957600080fd5b5061019c620d2f0081565b34801561036057600080fd5b5061019c61036f366004610c3d565b6106bf565b6101346106cb565b34801561038857600080fd5b5061019c610397366004610c3d565b61078c565b3480156103a857600080fd5b506101706103b7366004610c14565b6005602052600090815260409020546001600160a01b031681565b3480156103de57600080fd5b5061019c6103ed366004610c14565b61079b565b3480156103fe57600080fd5b5061013461040d366004610c14565b6107fd565b610134610420366004610c14565b6109e7565b60075460ff16610448576040516345f5ce8b60e11b815260040160405180910390fd5b6007805460ff1916905560015460ff16610475576040516321c4e35760e21b815260040160405180910390fd5b600061048033610676565b9050600061048d8261078c565b9050600061049a826106a3565b336000908152600360209081526040808320839055600490915290204290556006549091506104c99084610b80565b60065560015460405160009161010090046001600160a01b03169083908381818185875af1925050503d806000811461051e576040519150601f19603f3d011682016040523d82523d6000602084013e610523565b606091505b5050905080610545576040516312171d8360e31b815260040160405180910390fd5b6000336105528585610b8c565b604051600081818185875af1925050503d806000811461058e576040519150601f19603f3d011682016040523d82523d6000602084013e610593565b606091505b50509050806105b5576040516312171d8360e31b815260040160405180910390fd5b337fbc02d675d4f3cb76a691910a19db1c4e3b02987050ce8759812b2bfe0d6195a9866105e28787610b8c565b6040805192835260208301919091520160405180910390a250506007805460ff19166001179055505050565b600061065661064a6106418661063b61062982611388610b98565b61063589612710610b98565b90610b80565b90610ba4565b61138890610b80565b61063b84612710610b98565b949350505050565b600061066d838360065461060e565b90505b92915050565b60006106706106848361079b565b6001600160a01b03841660009081526003602052604090205490610b80565b6000610670606461063b60005485610b9890919063ffffffff16565b6000610670824761065e565b60015461010090046001600160a01b031633146106fb57604051635fc483c560e01b815260040160405180910390fd5b60015460ff161561071e5760405162dc149f60e41b815260040160405180910390fd5b6006541561073e5760405162dc149f60e41b815260040160405180910390fd5b6001805460ff19168117905564141dd76000600681905560405190815233907f037c4b085918ab85df3c0955512353ae2b5120cd7f55a2244e3df45aa21ea6df9060200160405180910390a2565b6000610670826006544761060e565b6001600160a01b03811660009081526004602052604081205481906107cf90620d2f00906107ca904290610b8c565b610bb0565b6001600160a01b0384166000908152600260205260409020549091506107f6908290610b98565b9392505050565b60015460ff16610820576040516321c4e35760e21b815260040160405180910390fd5b6001600160a01b03811633148061083e57506001600160a01b038116155b8061085f57506001600160a01b038116600090815260026020526040902054155b15610877575060015461010090046001600160a01b03165b336000908152600560205260409020546001600160a01b03166108bd5733600090815260056020526040902080546001600160a01b0319166001600160a01b0383161790555b60006108c833610676565b905060006108d982620d2f00610ba4565b336000908152600260205260409020549091506108f69082610b80565b3360009081526002602090815260408083209390935560038152828220829055600490522042905561095d610931606461063b85600f610b98565b336000908152600560209081526040808320546001600160a01b03168352600390915290205490610b80565b336000908152600560208181526040808420546001600160a01b0316845260039091529091209190915561099f90610996908490610ba4565b60065490610b80565b6006556040518181526001600160a01b0384169033907fa53e8a589ce50aa24b199c42f0dabb1fd499c2e819c307cd3beb8f23ea7cf0c39060200160405180910390a3505050565b60075460ff16610a0a576040516345f5ce8b60e11b815260040160405180910390fd5b6007805460ff1916905560015460ff16610a37576040516321c4e35760e21b815260040160405180910390fd5b6000610a473461020f4782610b8c565b9050610a5c610a55826106a3565b8290610b8c565b90506000610a69346106a3565b9050600060018054906101000a90046001600160a01b03166001600160a01b03168260405160006040518083038185875af1925050503d8060008114610acb576040519150601f19603f3d011682016040523d82523d6000602084013e610ad0565b606091505b5050905080610af2576040516312171d8360e31b815260040160405180910390fd5b33600090815260036020526040902054610b0c9084610b80565b336000818152600360209081526040918290209390935580513481529283018690526001600160a01b038716927f278329b9130a1054ce12d9a420fa9a41b4b2081dfd752875caba188cd2578c01910160405180910390a3610b6d846107fd565b50506007805460ff191660011790555050565b600061066d8284610c6c565b600061066d8284610c7f565b600061066d8284610c92565b600061066d8284610ca9565b6000818310610bbf578161066d565b5090919050565b600080600060608486031215610bdb57600080fd5b505081359360208301359350604090920135919050565b60008060408385031215610c0557600080fd5b50508035926020909101359150565b600060208284031215610c2657600080fd5b81356001600160a01b03811681146107f657600080fd5b600060208284031215610c4f57600080fd5b5035919050565b634e487b7160e01b600052601160045260246000fd5b8082018082111561067057610670610c56565b8181038181111561067057610670610c56565b808202811582820484141761067057610670610c56565b600082610cc657634e487b7160e01b600052601260045260246000fd5b50049056fea2646970667358221220aebac3988402d331b30fbb274b01c672692c21efaa89d4c334375f07e452c5da64736f6c63430008110033","opcodes":"PUSH1 0x80 PUSH1 0x40 MSTORE PUSH1 0x5 PUSH1 0x0 SSTORE PUSH1 0x1 DUP1 SLOAD PUSH1 0xFF NOT SWAP1 DUP2 AND DUP3 SSTORE PUSH1 0x7 DUP1 SLOAD SWAP1 SWAP2 AND SWAP1 SWAP2 OR SWAP1 SSTORE CALLVALUE DUP1 ISZERO PUSH2 0x2D JUMPI PUSH1 0x0 DUP1 REVERT JUMPDEST POP PUSH1 0x1 DUP1 SLOAD PUSH2 0x100 PUSH1 0x1 PUSH1 0xA8 SHL SUB NOT AND CALLER PUSH2 0x100 MUL OR SWAP1 SSTORE PUSH2 0xD01 DUP1 PUSH2 0x54 PUSH1 0x0 CODECOPY PUSH1 0x0 RETURN INVALID PUSH1 0x80 PUSH1 0x40 MSTORE PUSH1 0x4 CALLDATASIZE LT PUSH2 0x12D JUMPI PUSH1 0x0 CALLDATALOAD PUSH1 0xE0 SHR DUP1 PUSH4 0x6B67C4DF GT PUSH2 0xA5 JUMPI DUP1 PUSH4 0x847349EF GT PUSH2 0x6C JUMPI DUP1 PUSH4 0x847349EF EQ PUSH2 0x374 JUMPI DUP1 PUSH4 0x8E316327 EQ PUSH2 0x37C JUMPI DUP1 PUSH4 0x9CA423B3 EQ PUSH2 0x39C JUMPI DUP1 PUSH4 0xD7C8843B EQ PUSH2 0x3D2 JUMPI DUP1 PUSH4 0xE00A9663 EQ PUSH2 0x3F2 JUMPI DUP1 PUSH4 0xF7FB8168 EQ PUSH2 0x412 JUMPI STOP JUMPDEST DUP1 PUSH4 0x6B67C4DF EQ PUSH2 0x2CD JUMPI DUP1 PUSH4 0x72670361 EQ PUSH2 0x2E3 JUMPI DUP1 PUSH4 0x79532AA9 EQ PUSH2 0x310 JUMPI DUP1 PUSH4 0x7CDEBC21 EQ PUSH2 0x33D JUMPI DUP1 PUSH4 0x7E56FDE5 EQ PUSH2 0x354 JUMPI STOP JUMPDEST DUP1 PUSH4 0x26FD8422 GT PUSH2 0xF4 JUMPI DUP1 PUSH4 0x26FD8422 EQ PUSH2 0x1F4 JUMPI DUP1 PUSH4 0x2E9392BB EQ PUSH2 0x214 JUMPI DUP1 PUSH4 0x2EF6A743 EQ PUSH2 0x22A JUMPI DUP1 PUSH4 0x3BC0461A EQ PUSH2 0x24A JUMPI DUP1 PUSH4 0x467ECE79 EQ PUSH2 0x26A JUMPI DUP1 PUSH4 0x4B634B06 EQ PUSH2 0x297 JUMPI STOP JUMPDEST DUP1 PUSH4 0x9E1A83D EQ PUSH2 0x136 JUMPI DUP1 PUSH4 0xA0F8168 EQ PUSH2 0x14B JUMPI DUP1 PUSH4 0x12065FE0 EQ PUSH2 0x18D JUMPI DUP1 PUSH4 0x158EF93E EQ PUSH2 0x1AA JUMPI DUP1 PUSH4 0x229824C4 EQ PUSH2 0x1D4 JUMPI STOP JUMPDEST CALLDATASIZE PUSH2 0x134 JUMPI STOP JUMPDEST STOP JUMPDEST CALLVALUE DUP1 ISZERO PUSH2 0x142 JUMPI PUSH1 0x0 DUP1 REVERT JUMPDEST POP PUSH2 0x134 PUSH2 0x425 JUMP JUMPDEST CALLVALUE DUP1 ISZERO PUSH2 0x157 JUMPI PUSH1 0x0 DUP1 REVERT JUMPDEST POP PUSH1 0x1 SLOAD PUSH2 0x170 SWAP1 PUSH2 0x100 SWAP1 DIV PUSH1 0x1 PUSH1 0x1 PUSH1 0xA0 SHL SUB AND DUP2 JUMP JUMPDEST PUSH1 0x40 MLOAD PUSH1 0x1 PUSH1 0x1 PUSH1 0xA0 SHL SUB SWAP1 SWAP2 AND DUP2 MSTORE PUSH1 0x20 ADD JUMPDEST PUSH1 0x40 MLOAD DUP1 SWAP2 SUB SWAP1 RETURN JUMPDEST CALLVALUE DUP1 ISZERO PUSH2 0x199 JUMPI PUSH1 0x0 DUP1 REVERT JUMPDEST POP SELFBALANCE JUMPDEST PUSH1 0x40 MLOAD SWAP1 DUP2 MSTORE PUSH1 0x20 ADD PUSH2 0x184 JUMP JUMPDEST CALLVALUE DUP1 ISZERO PUSH2 0x1B6 JUMPI PUSH1 0x0 DUP1 REVERT JUMPDEST POP PUSH1 0x1 SLOAD PUSH2 0x1C4 SWAP1 PUSH1 0xFF AND DUP2 JUMP JUMPDEST PUSH1 0x40 MLOAD SWAP1 ISZERO ISZERO DUP2 MSTORE PUSH1 0x20 ADD PUSH2 0x184 JUMP JUMPDEST CALLVALUE DUP1 ISZERO PUSH2 0x1E0 JUMPI PUSH1 0x0 DUP1 REVERT JUMPDEST POP PUSH2 0x19C PUSH2 0x1EF CALLDATASIZE PUSH1 0x4 PUSH2 0xBC6 JUMP JUMPDEST PUSH2 0x60E JUMP JUMPDEST CALLVALUE DUP1 ISZERO PUSH2 0x200 JUMPI PUSH1 0x0 DUP1 REVERT JUMPDEST POP PUSH2 0x19C PUSH2 0x20F CALLDATASIZE PUSH1 0x4 PUSH2 0xBF2 JUMP JUMPDEST PUSH2 0x65E JUMP JUMPDEST CALLVALUE DUP1 ISZERO PUSH2 0x220 JUMPI PUSH1 0x0 DUP1 REVERT JUMPDEST POP PUSH2 0x19C PUSH1 0x6 SLOAD DUP2 JUMP JUMPDEST CALLVALUE DUP1 ISZERO PUSH2 0x236 JUMPI PUSH1 0x0 DUP1 REVERT JUMPDEST POP PUSH2 0x19C PUSH2 0x245 CALLDATASIZE PUSH1 0x4 PUSH2 0xC14 JUMP JUMPDEST PUSH2 0x676 JUMP JUMPDEST CALLVALUE DUP1 ISZERO PUSH2 0x256 JUMPI PUSH1 0x0 DUP1 REVERT JUMPDEST POP PUSH2 0x19C PUSH2 0x265 CALLDATASIZE PUSH1 0x4 PUSH2 0xC3D JUMP JUMPDEST PUSH2 0x6A3 JUMP JUMPDEST CALLVALUE DUP1 ISZERO PUSH2 0x276 JUMPI PUSH1 0x0 DUP1 REVERT JUMPDEST POP PUSH2 0x19C PUSH2 0x285 CALLDATASIZE PUSH1 0x4 PUSH2 0xC14 JUMP JUMPDEST PUSH1 0x4 PUSH1 0x20 MSTORE PUSH1 0x0 SWAP1 DUP2 MSTORE PUSH1 0x40 SWAP1 KECCAK256 SLOAD DUP2 JUMP JUMPDEST CALLVALUE DUP1 ISZERO PUSH2 0x2A3 JUMPI PUSH1 0x0 DUP1 REVERT JUMPDEST POP PUSH2 0x19C PUSH2 0x2B2 CALLDATASIZE PUSH1 0x4 PUSH2 0xC14 JUMP JUMPDEST PUSH1 0x1 PUSH1 0x1 PUSH1 0xA0 SHL SUB AND PUSH1 0x0 SWAP1 DUP2 MSTORE PUSH1 0x2 PUSH1 0x20 MSTORE PUSH1 0x40 SWAP1 KECCAK256 SLOAD SWAP1 JUMP JUMPDEST CALLVALUE DUP1 ISZERO PUSH2 0x2D9 JUMPI PUSH1 0x0 DUP1 REVERT JUMPDEST POP PUSH2 0x19C PUSH1 0x0 SLOAD DUP2 JUMP JUMPDEST CALLVALUE DUP1 ISZERO PUSH2 0x2EF JUMPI PUSH1 0x0 DUP1 REVERT JUMPDEST POP PUSH2 0x19C PUSH2 0x2FE CALLDATASIZE PUSH1 0x4 PUSH2 0xC14 JUMP JUMPDEST PUSH1 0x3 PUSH1 0x20 MSTORE PUSH1 0x0 SWAP1 DUP2 MSTORE PUSH1 0x40 SWAP1 KECCAK256 SLOAD DUP2 JUMP JUMPDEST CALLVALUE DUP1 ISZERO PUSH2 0x31C JUMPI PUSH1 0x0 DUP1 REVERT JUMPDEST POP PUSH2 0x19C PUSH2 0x32B CALLDATASIZE PUSH1 0x4 PUSH2 0xC14 JUMP JUMPDEST PUSH1 0x2 PUSH1 0x20 MSTORE PUSH1 0x0 SWAP1 DUP2 MSTORE PUSH1 0x40 SWAP1 KECCAK256 SLOAD DUP2 JUMP JUMPDEST CALLVALUE DUP1 ISZERO PUSH2 0x349 JUMPI PUSH1 0x0 DUP1 REVERT JUMPDEST POP PUSH2 0x19C PUSH3 0xD2F00 DUP2 JUMP JUMPDEST CALLVALUE DUP1 ISZERO PUSH2 0x360 JUMPI PUSH1 0x0 DUP1 REVERT JUMPDEST POP PUSH2 0x19C PUSH2 0x36F CALLDATASIZE PUSH1 0x4 PUSH2 0xC3D JUMP JUMPDEST PUSH2 0x6BF JUMP JUMPDEST PUSH2 0x134 PUSH2 0x6CB JUMP JUMPDEST CALLVALUE DUP1 ISZERO PUSH2 0x388 JUMPI PUSH1 0x0 DUP1 REVERT JUMPDEST POP PUSH2 0x19C PUSH2 0x397 CALLDATASIZE PUSH1 0x4 PUSH2 0xC3D JUMP JUMPDEST PUSH2 0x78C JUMP JUMPDEST CALLVALUE DUP1 ISZERO PUSH2 0x3A8 JUMPI PUSH1 0x0 DUP1 REVERT JUMPDEST POP PUSH2 0x170 PUSH2 0x3B7 CALLDATASIZE PUSH1 0x4 PUSH2 0xC14 JUMP JUMPDEST PUSH1 0x5 PUSH1 0x20 MSTORE PUSH1 0x0 SWAP1 DUP2 MSTORE PUSH1 0x40 SWAP1 KECCAK256 SLOAD PUSH1 0x1 PUSH1 0x1 PUSH1 0xA0 SHL SUB AND DUP2 JUMP JUMPDEST CALLVALUE DUP1 ISZERO PUSH2 0x3DE JUMPI PUSH1 0x0 DUP1 REVERT JUMPDEST POP PUSH2 0x19C PUSH2 0x3ED CALLDATASIZE PUSH1 0x4 PUSH2 0xC14 JUMP JUMPDEST PUSH2 0x79B JUMP JUMPDEST CALLVALUE DUP1 ISZERO PUSH2 0x3FE JUMPI PUSH1 0x0 DUP1 REVERT JUMPDEST POP PUSH2 0x134 PUSH2 0x40D CALLDATASIZE PUSH1 0x4 PUSH2 0xC14 JUMP JUMPDEST PUSH2 0x7FD JUMP JUMPDEST PUSH2 0x134 PUSH2 0x420 CALLDATASIZE PUSH1 0x4 PUSH2 0xC14 JUMP JUMPDEST PUSH2 0x9E7 JUMP JUMPDEST PUSH1 0x7 SLOAD PUSH1 0xFF AND PUSH2 0x448 JUMPI PUSH1 0x40 MLOAD PUSH4 0x45F5CE8B PUSH1 0xE1 SHL DUP2 MSTORE PUSH1 0x4 ADD PUSH1 0x40 MLOAD DUP1 SWAP2 SUB SWAP1 REVERT JUMPDEST PUSH1 0x7 DUP1 SLOAD PUSH1 0xFF NOT AND SWAP1 SSTORE PUSH1 0x1 SLOAD PUSH1 0xFF AND PUSH2 0x475 JUMPI PUSH1 0x40 MLOAD PUSH4 0x21C4E357 PUSH1 0xE2 SHL DUP2 MSTORE PUSH1 0x4 ADD PUSH1 0x40 MLOAD DUP1 SWAP2 SUB SWAP1 REVERT JUMPDEST PUSH1 0x0 PUSH2 0x480 CALLER PUSH2 0x676 JUMP JUMPDEST SWAP1 POP PUSH1 0x0 PUSH2 0x48D DUP3 PUSH2 0x78C JUMP JUMPDEST SWAP1 POP PUSH1 0x0 PUSH2 0x49A DUP3 PUSH2 0x6A3 JUMP JUMPDEST CALLER PUSH1 0x0 SWAP1 DUP2 MSTORE PUSH1 0x3 PUSH1 0x20 SWAP1 DUP2 MSTORE PUSH1 0x40 DUP1 DUP4 KECCAK256 DUP4 SWAP1 SSTORE PUSH1 0x4 SWAP1 SWAP2 MSTORE SWAP1 KECCAK256 TIMESTAMP SWAP1 SSTORE PUSH1 0x6 SLOAD SWAP1 SWAP2 POP PUSH2 0x4C9 SWAP1 DUP5 PUSH2 0xB80 JUMP JUMPDEST PUSH1 0x6 SSTORE PUSH1 0x1 SLOAD PUSH1 0x40 MLOAD PUSH1 0x0 SWAP2 PUSH2 0x100 SWAP1 DIV PUSH1 0x1 PUSH1 0x1 PUSH1 0xA0 SHL SUB AND SWAP1 DUP4 SWAP1 DUP4 DUP2 DUP2 DUP2 DUP6 DUP8 GAS CALL SWAP3 POP POP POP RETURNDATASIZE DUP1 PUSH1 0x0 DUP2 EQ PUSH2 0x51E JUMPI PUSH1 0x40 MLOAD SWAP2 POP PUSH1 0x1F NOT PUSH1 0x3F RETURNDATASIZE ADD AND DUP3 ADD PUSH1 0x40 MSTORE RETURNDATASIZE DUP3 MSTORE RETURNDATASIZE PUSH1 0x0 PUSH1 0x20 DUP5 ADD RETURNDATACOPY PUSH2 0x523 JUMP JUMPDEST PUSH1 0x60 SWAP2 POP JUMPDEST POP POP SWAP1 POP DUP1 PUSH2 0x545 JUMPI PUSH1 0x40 MLOAD PUSH4 0x12171D83 PUSH1 0xE3 SHL DUP2 MSTORE PUSH1 0x4 ADD PUSH1 0x40 MLOAD DUP1 SWAP2 SUB SWAP1 REVERT JUMPDEST PUSH1 0x0 CALLER PUSH2 0x552 DUP6 DUP6 PUSH2 0xB8C JUMP JUMPDEST PUSH1 0x40 MLOAD PUSH1 0x0 DUP2 DUP2 DUP2 DUP6 DUP8 GAS CALL SWAP3 POP POP POP RETURNDATASIZE DUP1 PUSH1 0x0 DUP2 EQ PUSH2 0x58E JUMPI PUSH1 0x40 MLOAD SWAP2 POP PUSH1 0x1F NOT PUSH1 0x3F RETURNDATASIZE ADD AND DUP3 ADD PUSH1 0x40 MSTORE RETURNDATASIZE DUP3 MSTORE RETURNDATASIZE PUSH1 0x0 PUSH1 0x20 DUP5 ADD RETURNDATACOPY PUSH2 0x593 JUMP JUMPDEST PUSH1 0x60 SWAP2 POP JUMPDEST POP POP SWAP1 POP DUP1 PUSH2 0x5B5 JUMPI PUSH1 0x40 MLOAD PUSH4 0x12171D83 PUSH1 0xE3 SHL DUP2 MSTORE PUSH1 0x4 ADD PUSH1 0x40 MLOAD DUP1 SWAP2 SUB SWAP1 REVERT JUMPDEST CALLER PUSH32 0xBC02D675D4F3CB76A691910A19DB1C4E3B02987050CE8759812B2BFE0D6195A9 DUP7 PUSH2 0x5E2 DUP8 DUP8 PUSH2 0xB8C JUMP JUMPDEST PUSH1 0x40 DUP1 MLOAD SWAP3 DUP4 MSTORE PUSH1 0x20 DUP4 ADD SWAP2 SWAP1 SWAP2 MSTORE ADD PUSH1 0x40 MLOAD DUP1 SWAP2 SUB SWAP1 LOG2 POP POP PUSH1 0x7 DUP1 SLOAD PUSH1 0xFF NOT AND PUSH1 0x1 OR SWAP1 SSTORE POP POP POP JUMP JUMPDEST PUSH1 0x0 PUSH2 0x656 PUSH2 0x64A PUSH2 0x641 DUP7 PUSH2 0x63B PUSH2 0x629 DUP3 PUSH2 0x1388 PUSH2 0xB98 JUMP JUMPDEST PUSH2 0x635 DUP10 PUSH2 0x2710 PUSH2 0xB98 JUMP JUMPDEST SWAP1 PUSH2 0xB80 JUMP JUMPDEST SWAP1 PUSH2 0xBA4 JUMP JUMPDEST PUSH2 0x1388 SWAP1 PUSH2 0xB80 JUMP JUMPDEST PUSH2 0x63B DUP5 PUSH2 0x2710 PUSH2 0xB98 JUMP JUMPDEST SWAP5 SWAP4 POP POP POP POP JUMP JUMPDEST PUSH1 0x0 PUSH2 0x66D DUP4 DUP4 PUSH1 0x6 SLOAD PUSH2 0x60E JUMP JUMPDEST SWAP1 POP JUMPDEST SWAP3 SWAP2 POP POP JUMP JUMPDEST PUSH1 0x0 PUSH2 0x670 PUSH2 0x684 DUP4 PUSH2 0x79B JUMP JUMPDEST PUSH1 0x1 PUSH1 0x1 PUSH1 0xA0 SHL SUB DUP5 AND PUSH1 0x0 SWAP1 DUP2 MSTORE PUSH1 0x3 PUSH1 0x20 MSTORE PUSH1 0x40 SWAP1 KECCAK256 SLOAD SWAP1 PUSH2 0xB80 JUMP JUMPDEST PUSH1 0x0 PUSH2 0x670 PUSH1 0x64 PUSH2 0x63B PUSH1 0x0 SLOAD DUP6 PUSH2 0xB98 SWAP1 SWAP2 SWAP1 PUSH4 0xFFFFFFFF AND JUMP JUMPDEST PUSH1 0x0 PUSH2 0x670 DUP3 SELFBALANCE PUSH2 0x65E JUMP JUMPDEST PUSH1 0x1 SLOAD PUSH2 0x100 SWAP1 DIV PUSH1 0x1 PUSH1 0x1 PUSH1 0xA0 SHL SUB AND CALLER EQ PUSH2 0x6FB JUMPI PUSH1 0x40 MLOAD PUSH4 0x5FC483C5 PUSH1 0xE0 SHL DUP2 MSTORE PUSH1 0x4 ADD PUSH1 0x40 MLOAD DUP1 SWAP2 SUB SWAP1 REVERT JUMPDEST PUSH1 0x1 SLOAD PUSH1 0xFF AND ISZERO PUSH2 0x71E JUMPI PUSH1 0x40 MLOAD PUSH3 0xDC149F PUSH1 0xE4 SHL DUP2 MSTORE PUSH1 0x4 ADD PUSH1 0x40 MLOAD DUP1 SWAP2 SUB SWAP1 REVERT JUMPDEST PUSH1 0x6 SLOAD ISZERO PUSH2 0x73E JUMPI PUSH1 0x40 MLOAD PUSH3 0xDC149F PUSH1 0xE4 SHL DUP2 MSTORE PUSH1 0x4 ADD PUSH1 0x40 MLOAD DUP1 SWAP2 SUB SWAP1 REVERT JUMPDEST PUSH1 0x1 DUP1 SLOAD PUSH1 0xFF NOT AND DUP2 OR SWAP1 SSTORE PUSH5 0x141DD76000 PUSH1 0x6 DUP2 SWAP1 SSTORE PUSH1 0x40 MLOAD SWAP1 DUP2 MSTORE CALLER SWAP1 PUSH32 0x37C4B085918AB85DF3C0955512353AE2B5120CD7F55A2244E3DF45AA21EA6DF SWAP1 PUSH1 0x20 ADD PUSH1 0x40 MLOAD DUP1 SWAP2 SUB SWAP1 LOG2 JUMP JUMPDEST PUSH1 0x0 PUSH2 0x670 DUP3 PUSH1 0x6 SLOAD SELFBALANCE PUSH2 0x60E JUMP JUMPDEST PUSH1 0x1 PUSH1 0x1 PUSH1 0xA0 SHL SUB DUP2 AND PUSH1 0x0 SWAP1 DUP2 MSTORE PUSH1 0x4 PUSH1 0x20 MSTORE PUSH1 0x40 DUP2 KECCAK256 SLOAD DUP2 SWAP1 PUSH2 0x7CF SWAP1 PUSH3 0xD2F00 SWAP1 PUSH2 0x7CA SWAP1 TIMESTAMP SWAP1 PUSH2 0xB8C JUMP JUMPDEST PUSH2 0xBB0 JUMP JUMPDEST PUSH1 0x1 PUSH1 0x1 PUSH1 0xA0 SHL SUB DUP5 AND PUSH1 0x0 SWAP1 DUP2 MSTORE PUSH1 0x2 PUSH1 0x20 MSTORE PUSH1 0x40 SWAP1 KECCAK256 SLOAD SWAP1 SWAP2 POP PUSH2 0x7F6 SWAP1 DUP3 SWAP1 PUSH2 0xB98 JUMP JUMPDEST SWAP4 SWAP3 POP POP POP JUMP JUMPDEST PUSH1 0x1 SLOAD PUSH1 0xFF AND PUSH2 0x820 JUMPI PUSH1 0x40 MLOAD PUSH4 0x21C4E357 PUSH1 0xE2 SHL DUP2 MSTORE PUSH1 0x4 ADD PUSH1 0x40 MLOAD DUP1 SWAP2 SUB SWAP1 REVERT JUMPDEST PUSH1 0x1 PUSH1 0x1 PUSH1 0xA0 SHL SUB DUP2 AND CALLER EQ DUP1 PUSH2 0x83E JUMPI POP PUSH1 0x1 PUSH1 0x1 PUSH1 0xA0 SHL SUB DUP2 AND ISZERO JUMPDEST DUP1 PUSH2 0x85F JUMPI POP PUSH1 0x1 PUSH1 0x1 PUSH1 0xA0 SHL SUB DUP2 AND PUSH1 0x0 SWAP1 DUP2 MSTORE PUSH1 0x2 PUSH1 0x20 MSTORE PUSH1 0x40 SWAP1 KECCAK256 SLOAD ISZERO JUMPDEST ISZERO PUSH2 0x877 JUMPI POP PUSH1 0x1 SLOAD PUSH2 0x100 SWAP1 DIV PUSH1 0x1 PUSH1 0x1 PUSH1 0xA0 SHL SUB AND JUMPDEST CALLER PUSH1 0x0 SWAP1 DUP2 MSTORE PUSH1 0x5 PUSH1 0x20 MSTORE PUSH1 0x40 SWAP1 KECCAK256 SLOAD PUSH1 0x1 PUSH1 0x1 PUSH1 0xA0 SHL SUB AND PUSH2 0x8BD JUMPI CALLER PUSH1 0x0 SWAP1 DUP2 MSTORE PUSH1 0x5 PUSH1 0x20 MSTORE PUSH1 0x40 SWAP1 KECCAK256 DUP1 SLOAD PUSH1 0x1 PUSH1 0x1 PUSH1 0xA0 SHL SUB NOT AND PUSH1 0x1 PUSH1 0x1 PUSH1 0xA0 SHL SUB DUP4 AND OR SWAP1 SSTORE JUMPDEST PUSH1 0x0 PUSH2 0x8C8 CALLER PUSH2 0x676 JUMP JUMPDEST SWAP1 POP PUSH1 0x0 PUSH2 0x8D9 DUP3 PUSH3 0xD2F00 PUSH2 0xBA4 JUMP JUMPDEST CALLER PUSH1 0x0 SWAP1 DUP2 MSTORE PUSH1 0x2 PUSH1 0x20 MSTORE PUSH1 0x40 SWAP1 KECCAK256 SLOAD SWAP1 SWAP2 POP PUSH2 0x8F6 SWAP1 DUP3 PUSH2 0xB80 JUMP JUMPDEST CALLER PUSH1 0x0 SWAP1 DUP2 MSTORE PUSH1 0x2 PUSH1 0x20 SWAP1 DUP2 MSTORE PUSH1 0x40 DUP1 DUP4 KECCAK256 SWAP4 SWAP1 SWAP4 SSTORE PUSH1 0x3 DUP2 MSTORE DUP3 DUP3 KECCAK256 DUP3 SWAP1 SSTORE PUSH1 0x4 SWAP1 MSTORE KECCAK256 TIMESTAMP SWAP1 SSTORE PUSH2 0x95D PUSH2 0x931 PUSH1 0x64 PUSH2 0x63B DUP6 PUSH1 0xF PUSH2 0xB98 JUMP JUMPDEST CALLER PUSH1 0x0 SWAP1 DUP2 MSTORE PUSH1 0x5 PUSH1 0x20 SWAP1 DUP2 MSTORE PUSH1 0x40 DUP1 DUP4 KECCAK256 SLOAD PUSH1 0x1 PUSH1 0x1 PUSH1 0xA0 SHL SUB AND DUP4 MSTORE PUSH1 0x3 SWAP1 SWAP2 MSTORE SWAP1 KECCAK256 SLOAD SWAP1 PUSH2 0xB80 JUMP JUMPDEST CALLER PUSH1 0x0 SWAP1 DUP2 MSTORE PUSH1 0x5 PUSH1 0x20 DUP2 DUP2 MSTORE PUSH1 0x40 DUP1 DUP5 KECCAK256 SLOAD PUSH1 0x1 PUSH1 0x1 PUSH1 0xA0 SHL SUB AND DUP5 MSTORE PUSH1 0x3 SWAP1 SWAP2 MSTORE SWAP1 SWAP2 KECCAK256 SWAP2 SWAP1 SWAP2 SSTORE PUSH2 0x99F SWAP1 PUSH2 0x996 SWAP1 DUP5 SWAP1 PUSH2 0xBA4 JUMP JUMPDEST PUSH1 0x6 SLOAD SWAP1 PUSH2 0xB80 JUMP JUMPDEST PUSH1 0x6 SSTORE PUSH1 0x40 MLOAD DUP2 DUP2 MSTORE PUSH1 0x1 PUSH1 0x1 PUSH1 0xA0 SHL SUB DUP5 AND SWAP1 CALLER SWAP1 PUSH32 0xA53E8A589CE50AA24B199C42F0DABB1FD499C2E819C307CD3BEB8F23EA7CF0C3 SWAP1 PUSH1 0x20 ADD PUSH1 0x40 MLOAD DUP1 SWAP2 SUB SWAP1 LOG3 POP POP POP JUMP JUMPDEST PUSH1 0x7 SLOAD PUSH1 0xFF AND PUSH2 0xA0A JUMPI PUSH1 0x40 MLOAD PUSH4 0x45F5CE8B PUSH1 0xE1 SHL DUP2 MSTORE PUSH1 0x4 ADD PUSH1 0x40 MLOAD DUP1 SWAP2 SUB SWAP1 REVERT JUMPDEST PUSH1 0x7 DUP1 SLOAD PUSH1 0xFF NOT AND SWAP1 SSTORE PUSH1 0x1 SLOAD PUSH1 0xFF AND PUSH2 0xA37 JUMPI PUSH1 0x40 MLOAD PUSH4 0x21C4E357 PUSH1 0xE2 SHL DUP2 MSTORE PUSH1 0x4 ADD PUSH1 0x40 MLOAD DUP1 SWAP2 SUB SWAP1 REVERT JUMPDEST PUSH1 0x0 PUSH2 0xA47 CALLVALUE PUSH2 0x20F SELFBALANCE DUP3 PUSH2 0xB8C JUMP JUMPDEST SWAP1 POP PUSH2 0xA5C PUSH2 0xA55 DUP3 PUSH2 0x6A3 JUMP JUMPDEST DUP3 SWAP1 PUSH2 0xB8C JUMP JUMPDEST SWAP1 POP PUSH1 0x0 PUSH2 0xA69 CALLVALUE PUSH2 0x6A3 JUMP JUMPDEST SWAP1 POP PUSH1 0x0 PUSH1 0x1 DUP1 SLOAD SWAP1 PUSH2 0x100 EXP SWAP1 DIV PUSH1 0x1 PUSH1 0x1 PUSH1 0xA0 SHL SUB AND PUSH1 0x1 PUSH1 0x1 PUSH1 0xA0 SHL SUB AND DUP3 PUSH1 0x40 MLOAD PUSH1 0x0 PUSH1 0x40 MLOAD DUP1 DUP4 SUB DUP2 DUP6 DUP8 GAS CALL SWAP3 POP POP POP RETURNDATASIZE DUP1 PUSH1 0x0 DUP2 EQ PUSH2 0xACB JUMPI PUSH1 0x40 MLOAD SWAP2 POP PUSH1 0x1F NOT PUSH1 0x3F RETURNDATASIZE ADD AND DUP3 ADD PUSH1 0x40 MSTORE RETURNDATASIZE DUP3 MSTORE RETURNDATASIZE PUSH1 0x0 PUSH1 0x20 DUP5 ADD RETURNDATACOPY PUSH2 0xAD0 JUMP JUMPDEST PUSH1 0x60 SWAP2 POP JUMPDEST POP POP SWAP1 POP DUP1 PUSH2 0xAF2 JUMPI PUSH1 0x40 MLOAD PUSH4 0x12171D83 PUSH1 0xE3 SHL DUP2 MSTORE PUSH1 0x4 ADD PUSH1 0x40 MLOAD DUP1 SWAP2 SUB SWAP1 REVERT JUMPDEST CALLER PUSH1 0x0 SWAP1 DUP2 MSTORE PUSH1 0x3 PUSH1 0x20 MSTORE PUSH1 0x40 SWAP1 KECCAK256 SLOAD PUSH2 0xB0C SWAP1 DUP5 PUSH2 0xB80 JUMP JUMPDEST CALLER PUSH1 0x0 DUP2 DUP2 MSTORE PUSH1 0x3 PUSH1 0x20 SWAP1 DUP2 MSTORE PUSH1 0x40 SWAP2 DUP3 SWAP1 KECCAK256 SWAP4 SWAP1 SWAP4 SSTORE DUP1 MLOAD CALLVALUE DUP2 MSTORE SWAP3 DUP4 ADD DUP7 SWAP1 MSTORE PUSH1 0x1 PUSH1 0x1 PUSH1 0xA0 SHL SUB DUP8 AND SWAP3 PUSH32 0x278329B9130A1054CE12D9A420FA9A41B4B2081DFD752875CABA188CD2578C01 SWAP2 ADD PUSH1 0x40 MLOAD DUP1 SWAP2 SUB SWAP1 LOG3 PUSH2 0xB6D DUP5 PUSH2 0x7FD JUMP JUMPDEST POP POP PUSH1 0x7 DUP1 SLOAD PUSH1 0xFF NOT AND PUSH1 0x1 OR SWAP1 SSTORE POP POP JUMP JUMPDEST PUSH1 0x0 PUSH2 0x66D DUP3 DUP5 PUSH2 0xC6C JUMP JUMPDEST PUSH1 0x0 PUSH2 0x66D DUP3 DUP5 PUSH2 0xC7F JUMP JUMPDEST PUSH1 0x0 PUSH2 0x66D DUP3 DUP5 PUSH2 0xC92 JUMP JUMPDEST PUSH1 0x0 PUSH2 0x66D DUP3 DUP5 PUSH2 0xCA9 JUMP JUMPDEST PUSH1 0x0 DUP2 DUP4 LT PUSH2 0xBBF JUMPI DUP2 PUSH2 0x66D JUMP JUMPDEST POP SWAP1 SWAP2 SWAP1 POP JUMP JUMPDEST PUSH1 0x0 DUP1 PUSH1 0x0 PUSH1 0x60 DUP5 DUP7 SUB SLT ISZERO PUSH2 0xBDB JUMPI PUSH1 0x0 DUP1 REVERT JUMPDEST POP POP DUP2 CALLDATALOAD SWAP4 PUSH1 0x20 DUP4 ADD CALLDATALOAD SWAP4 POP PUSH1 0x40 SWAP1 SWAP3 ADD CALLDATALOAD SWAP2 SWAP1 POP JUMP JUMPDEST PUSH1 0x0 DUP1 PUSH1 0x40 DUP4 DUP6 SUB SLT ISZERO PUSH2 0xC05 JUMPI PUSH1 0x0 DUP1 REVERT JUMPDEST POP POP DUP1 CALLDATALOAD SWAP3 PUSH1 0x20 SWAP1 SWAP2 ADD CALLDATALOAD SWAP2 POP JUMP JUMPDEST PUSH1 0x0 PUSH1 0x20 DUP3 DUP5 SUB SLT ISZERO PUSH2 0xC26 JUMPI PUSH1 0x0 DUP1 REVERT JUMPDEST DUP2 CALLDATALOAD PUSH1 0x1 PUSH1 0x1 PUSH1 0xA0 SHL SUB DUP2 AND DUP2 EQ PUSH2 0x7F6 JUMPI PUSH1 0x0 DUP1 REVERT JUMPDEST PUSH1 0x0 PUSH1 0x20 DUP3 DUP5 SUB SLT ISZERO PUSH2 0xC4F JUMPI PUSH1 0x0 DUP1 REVERT JUMPDEST POP CALLDATALOAD SWAP2 SWAP1 POP JUMP JUMPDEST PUSH4 0x4E487B71 PUSH1 0xE0 SHL PUSH1 0x0 MSTORE PUSH1 0x11 PUSH1 0x4 MSTORE PUSH1 0x24 PUSH1 0x0 REVERT JUMPDEST DUP1 DUP3 ADD DUP1 DUP3 GT ISZERO PUSH2 0x670 JUMPI PUSH2 0x670 PUSH2 0xC56 JUMP JUMPDEST DUP2 DUP2 SUB DUP2 DUP2 GT ISZERO PUSH2 0x670 JUMPI PUSH2 0x670 PUSH2 0xC56 JUMP JUMPDEST DUP1 DUP3 MUL DUP2 ISZERO DUP3 DUP3 DIV DUP5 EQ OR PUSH2 0x670 JUMPI PUSH2 0x670 PUSH2 0xC56 JUMP JUMPDEST PUSH1 0x0 DUP3 PUSH2 0xCC6 JUMPI PUSH4 0x4E487B71 PUSH1 0xE0 SHL PUSH1 0x0 MSTORE PUSH1 0x12 PUSH1 0x4 MSTORE PUSH1 0x24 PUSH1 0x0 REVERT JUMPDEST POP DIV SWAP1 JUMP INVALID LOG2 PUSH5 0x6970667358 0x22 SLT KECCAK256 0xAE 0xBA 0xC3 SWAP9 DUP5 MUL 0xD3 BALANCE 0xB3 0xF 0xBB 0x27 0x4B ADD 0xC6 PUSH19 0x692C21EFAA89D4C334375F07E452C5DA64736F PUSH13 0x63430008110033000000000000 "},"methodIdentifiers":{"EGGS_TO_HATCH_1MINERS()":"7cdebc21","bakePizza(address)":"f7fb8168","calculateEggBuy(uint256,uint256)":"26fd8422","calculateEggBuySimple(uint256)":"7e56fde5","calculateEggSell(uint256)":"8e316327","calculateTrade(uint256,uint256,uint256)":"229824c4","ceoAddress()":"0a0f8168","claimedEggs(address)":"72670361","devFee(uint256)":"3bc0461a","eatPizza()":"09e1a83d","getBalance()":"12065fe0","getEggsSinceLastHatch(address)":"d7c8843b","getMyEggs(address)":"2ef6a743","getMyMiners(address)":"4b634b06","hatcheryMiners(address)":"79532aa9","initialized()":"158ef93e","lastHatch(address)":"467ece79","marketEggs()":"2e9392bb","marketingFee()":"6b67c4df","openKitchen()":"847349ef","rebakePizza(address)":"e00a9663","referrals(address)":"9ca423b3"}}}}}