{"contracts/CornMiner.sol":{"CornMiner":{"abi":[{"inputs":[],"stateMutability":"nonpayable","type":"constructor"},{"inputs":[],"name":"AlreadyInitialized","type":"error"},{"inputs":[],"name":"NotInitialized","type":"error"},{"inputs":[],"name":"OnlyOwner","type":"error"},{"inputs":[],"name":"ReentrancyGuard","type":"error"},{"inputs":[],"name":"TransferFailed","type":"error"},{"anonymous":false,"inputs":[{"indexed":true,"internalType":"address","name":"user","type":"address"},{"indexed":true,"internalType":"address","name":"referrer","type":"address"},{"indexed":false,"internalType":"uint256","name":"bnbSpent","type":"uint256"},{"indexed":false,"internalType":"uint256","name":"cornsReceived","type":"uint256"}],"name":"BuyCorn","type":"event"},{"anonymous":false,"inputs":[{"indexed":true,"internalType":"address","name":"owner","type":"address"},{"indexed":false,"internalType":"uint256","name":"amount","type":"uint256"}],"name":"EmergencyWithdrawal","type":"event"},{"anonymous":false,"inputs":[{"indexed":true,"internalType":"address","name":"owner","type":"address"},{"indexed":false,"internalType":"uint256","name":"initialCorns","type":"uint256"}],"name":"FarmOpened","type":"event"},{"anonymous":false,"inputs":[{"indexed":true,"internalType":"address","name":"user","type":"address"},{"indexed":true,"internalType":"address","name":"referrer","type":"address"},{"indexed":false,"internalType":"uint256","name":"harvestersBought","type":"uint256"}],"name":"PopCorn","type":"event"},{"anonymous":false,"inputs":[{"indexed":true,"internalType":"address","name":"user","type":"address"},{"indexed":false,"internalType":"uint256","name":"cornsSold","type":"uint256"},{"indexed":false,"internalType":"uint256","name":"bnbReceived","type":"uint256"}],"name":"SellCorn","type":"event"},{"stateMutability":"payable","type":"fallback"},{"inputs":[],"name":"CORN_TO_FEED_1HARVESTER","outputs":[{"internalType":"uint256","name":"","type":"uint256"}],"stateMutability":"view","type":"function"},{"inputs":[{"internalType":"address","name":"ref","type":"address"}],"name":"buyCorn","outputs":[],"stateMutability":"payable","type":"function"},{"inputs":[{"internalType":"uint256","name":"eth","type":"uint256"},{"internalType":"uint256","name":"contractBalance","type":"uint256"}],"name":"calculateCornBuy","outputs":[{"internalType":"uint256","name":"","type":"uint256"}],"stateMutability":"view","type":"function"},{"inputs":[{"internalType":"uint256","name":"eth","type":"uint256"}],"name":"calculateCornBuySimple","outputs":[{"internalType":"uint256","name":"","type":"uint256"}],"stateMutability":"view","type":"function"},{"inputs":[{"internalType":"uint256","name":"corns","type":"uint256"}],"name":"calculateCornSell","outputs":[{"internalType":"uint256","name":"","type":"uint256"}],"stateMutability":"view","type":"function"},{"inputs":[{"internalType":"address","name":"user","type":"address"},{"internalType":"uint256","name":"amount","type":"uint256"}],"name":"calculateDynamicFee","outputs":[{"internalType":"uint256","name":"","type":"uint256"}],"stateMutability":"nonpayable","type":"function"},{"inputs":[{"internalType":"uint256","name":"rt","type":"uint256"},{"internalType":"uint256","name":"rs","type":"uint256"},{"internalType":"uint256","name":"bs","type":"uint256"}],"name":"calculateTrade","outputs":[{"internalType":"uint256","name":"","type":"uint256"}],"stateMutability":"pure","type":"function"},{"inputs":[],"name":"ceoAddress","outputs":[{"internalType":"address payable","name":"","type":"address"}],"stateMutability":"view","type":"function"},{"inputs":[{"internalType":"address","name":"","type":"address"}],"name":"claimedCorns","outputs":[{"internalType":"uint256","name":"","type":"uint256"}],"stateMutability":"view","type":"function"},{"inputs":[{"internalType":"uint256","name":"amount","type":"uint256"}],"name":"devFee","outputs":[{"internalType":"uint256","name":"","type":"uint256"}],"stateMutability":"view","type":"function"},{"inputs":[],"name":"emergencyWithdraw","outputs":[],"stateMutability":"nonpayable","type":"function"},{"inputs":[{"internalType":"address","name":"","type":"address"}],"name":"firstSellTimestamp","outputs":[{"internalType":"uint256","name":"","type":"uint256"}],"stateMutability":"view","type":"function"},{"inputs":[],"name":"getBalance","outputs":[{"internalType":"uint256","name":"","type":"uint256"}],"stateMutability":"view","type":"function"},{"inputs":[{"internalType":"address","name":"adr","type":"address"}],"name":"getCornsSinceLastHatch","outputs":[{"internalType":"uint256","name":"","type":"uint256"}],"stateMutability":"view","type":"function"},{"inputs":[{"internalType":"address","name":"_adr","type":"address"}],"name":"getMyCorns","outputs":[{"internalType":"uint256","name":"","type":"uint256"}],"stateMutability":"view","type":"function"},{"inputs":[{"internalType":"address","name":"_adr","type":"address"}],"name":"getMyHarvesters","outputs":[{"internalType":"uint256","name":"","type":"uint256"}],"stateMutability":"view","type":"function"},{"inputs":[{"internalType":"address","name":"user","type":"address"}],"name":"getUserFeeInfo","outputs":[{"internalType":"uint256","name":"feePercentage","type":"uint256"},{"internalType":"uint256","name":"sellsRemaining","type":"uint256"},{"internalType":"uint256","name":"timeUntilReset","type":"uint256"}],"stateMutability":"view","type":"function"},{"inputs":[{"internalType":"address","name":"","type":"address"}],"name":"hatcheryHarvesters","outputs":[{"internalType":"uint256","name":"","type":"uint256"}],"stateMutability":"view","type":"function"},{"inputs":[],"name":"initialized","outputs":[{"internalType":"bool","name":"","type":"bool"}],"stateMutability":"view","type":"function"},{"inputs":[{"internalType":"address","name":"","type":"address"}],"name":"lastHatch","outputs":[{"internalType":"uint256","name":"","type":"uint256"}],"stateMutability":"view","type":"function"},{"inputs":[],"name":"marketCorns","outputs":[{"internalType":"uint256","name":"","type":"uint256"}],"stateMutability":"view","type":"function"},{"inputs":[],"name":"marketingFee","outputs":[{"internalType":"uint256","name":"","type":"uint256"}],"stateMutability":"view","type":"function"},{"inputs":[],"name":"openFarm","outputs":[],"stateMutability":"payable","type":"function"},{"inputs":[],"name":"owner","outputs":[{"internalType":"address","name":"","type":"address"}],"stateMutability":"view","type":"function"},{"inputs":[{"internalType":"address","name":"ref","type":"address"}],"name":"popCorn","outputs":[],"stateMutability":"nonpayable","type":"function"},{"inputs":[{"internalType":"address","name":"","type":"address"}],"name":"referrals","outputs":[{"internalType":"address","name":"","type":"address"}],"stateMutability":"view","type":"function"},{"inputs":[],"name":"sellCorn","outputs":[],"stateMutability":"nonpayable","type":"function"},{"inputs":[{"internalType":"address","name":"","type":"address"}],"name":"weeklySellCount","outputs":[{"internalType":"uint256","name":"","type":"uint256"}],"stateMutability":"view","type":"function"},{"stateMutability":"payable","type":"receive"}],"evm":{"bytecode":{"linkReferences":{},"object":"6080604052600560019081556002805460ff19908116909155600a8054909116909117905534801561003057600080fd5b5060028054610100600160a81b0319163361010002179055611301806100576000396000f3fe6080604052600436106101a35760003560e01c8063765ecbc4116100e0578063b8f6637011610084578063c91ecf2e11610061578063c91ecf2e1461050d578063db2e21bc1461052d578063e5e2fb1014610542578063f278d74b1461054a57005b8063b8f66370146104a0578063c63db2f0146104c0578063c768f7ba146104e057005b806381d11718116100bd57806381d11718146104065780638da5cb5b146104335780639776c452146104535780639ca423b31461046a57005b8063765ecbc4146103bd57806378b46044146103dd5780637e337178146103f057005b80633bc0461a116101475780634e0dc2ee116101245780634e0dc2ee146103245780636b67c4df146103445780636db1384a1461035a578063747d84401461038757005b80633bc0461a146102b7578063467ece79146102d7578063497cab2c1461030457005b8063229824c411610180578063229824c41461023557806324d3079a146102555780632cf71689146102825780633b6354231461029757005b80630a0f8168146101ac57806312065fe0146101ee578063158ef93e1461020b57005b366101aa57005b005b3480156101b857600080fd5b506002546101d19061010090046001600160a01b031681565b6040516001600160a01b0390911681526020015b60405180910390f35b3480156101fa57600080fd5b50475b6040519081526020016101e5565b34801561021757600080fd5b506002546102259060ff1681565b60405190151581526020016101e5565b34801561024157600080fd5b506101fd61025036600461118e565b610585565b34801561026157600080fd5b506101fd6102703660046111d6565b60066020526000908152604090205481565b34801561028e57600080fd5b506101aa6105d5565b3480156102a357600080fd5b506101fd6102b23660046111f1565b6107bf565b3480156102c357600080fd5b506101fd6102d2366004611213565b6107d7565b3480156102e357600080fd5b506101fd6102f23660046111d6565b60076020526000908152604090205481565b34801561031057600080fd5b506101fd61031f366004611213565b6107f3565b34801561033057600080fd5b506101fd61033f366004611213565b610802565b34801561035057600080fd5b506101fd60015481565b34801561036657600080fd5b506101fd6103753660046111d6565b60046020526000908152604090205481565b34801561039357600080fd5b506101fd6103a23660046111d6565b6001600160a01b031660009081526005602052604090205490565b3480156103c957600080fd5b506101aa6103d83660046111d6565b61080e565b6101aa6103eb3660046111d6565b6109f3565b3480156103fc57600080fd5b506101fd60095481565b34801561041257600080fd5b506101fd6104213660046111d6565b60056020526000908152604090205481565b34801561043f57600080fd5b506000546101d1906001600160a01b031681565b34801561045f57600080fd5b506101fd620d2f0081565b34801561047657600080fd5b506101d16104853660046111d6565b6008602052600090815260409020546001600160a01b031681565b3480156104ac57600080fd5b506101fd6104bb3660046111d6565b610b80565b3480156104cc57600080fd5b506101fd6104db3660046111d6565b610bad565b3480156104ec57600080fd5b506101fd6104fb3660046111d6565b60036020526000908152604090205481565b34801561051957600080fd5b506101fd61052836600461122c565b610c0f565b34801561053957600080fd5b506101aa610d76565b6101aa610ef3565b34801561055657600080fd5b5061056a6105653660046111d6565b610fbb565b604080519384526020840192909252908201526060016101e5565b60006105cd6105c16105b8866105b26105a082611388611148565b6105ac89612710611148565b90611154565b90611160565b61138890611154565b6105b284612710611148565b949350505050565b600a5460ff166105f8576040516345f5ce8b60e11b815260040160405180910390fd5b600a805460ff1916905560025460ff16610625576040516321c4e35760e21b815260040160405180910390fd5b600061063033610b80565b9050600061063d826107f3565b9050600061064b3383610c0f565b3360009081526006602090815260408083208390556007909152902042905560095490915061067a9084611154565b60095560025460405160009161010090046001600160a01b03169083908381818185875af1925050503d80600081146106cf576040519150601f19603f3d011682016040523d82523d6000602084013e6106d4565b606091505b50509050806106f6576040516312171d8360e31b815260040160405180910390fd5b600033610703858561116c565b604051600081818185875af1925050503d806000811461073f576040519150601f19603f3d011682016040523d82523d6000602084013e610744565b606091505b5050905080610766576040516312171d8360e31b815260040160405180910390fd5b337ff8bde6757b82ce039858ba0058689315b57807d694aa964e3e25962d0db8396c86610793878761116c565b6040805192835260208301919091520160405180910390a25050600a805460ff19166001179055505050565b60006107ce8383600954610585565b90505b92915050565b60006107d160646105b26001548561114890919063ffffffff16565b60006107d18260095447610585565b60006107d182476107bf565b60025460ff16610831576040516321c4e35760e21b815260040160405180910390fd5b6001600160a01b03811633148061084f57506001600160a01b038116155b8061087057506001600160a01b038116600090815260056020526040902054155b15610888575060025461010090046001600160a01b03165b336000908152600860205260409020546001600160a01b03166108ce5733600090815260086020526040902080546001600160a01b0319166001600160a01b0383161790555b60006108d933610b80565b905060006108ea82620d2f00611160565b336000908152600560205260409020549091506109079082611154565b3360009081526005602090815260408083209390935560068152828220829055600790522042905561096e61094260646105b285600f611148565b336000908152600860209081526040808320546001600160a01b03168352600690915290205490611154565b336000908152600860209081526040808320546001600160a01b0316835260069091529020556109ab6109a2836005611160565b60095490611154565b6009556040518181526001600160a01b0384169033907f793d02d951962f9d8920f6c37120b756e3c24b16f0aa57bfe8e8babc28d586269060200160405180910390a3505050565b600a5460ff16610a16576040516345f5ce8b60e11b815260040160405180910390fd5b600a805460ff1916905560025460ff16610a43576040516321c4e35760e21b815260040160405180910390fd5b6000610a53346102b2478261116c565b9050610a68610a61826107d7565b829061116c565b90506000610a75346107d7565b6002546040519192506000916101009091046001600160a01b03169083908381818185875af1925050503d8060008114610acb576040519150601f19603f3d011682016040523d82523d6000602084013e610ad0565b606091505b5050905080610af2576040516312171d8360e31b815260040160405180910390fd5b33600090815260066020526040902054610b0c9084611154565b336000818152600660209081526040918290209390935580513481529283018690526001600160a01b038716927f017bdf410810cafade59a00f325789f6d13e4ee94ef3e658d8fd84b3f3859662910160405180910390a3610b6d8461080e565b5050600a805460ff191660011790555050565b60006107d1610b8e83610bad565b6001600160a01b03841660009081526006602052604090205490611154565b6001600160a01b0381166000908152600760205260408120548190610be190620d2f0090610bdc90429061116c565b611178565b6001600160a01b038416600090815260056020526040902054909150610c08908290611148565b9392505050565b6001600160a01b03821660009081526004602052604081205415801590610c5b57506001600160a01b038316600090815260046020526040902054610c589062093a809061126c565b42115b15610c87576001600160a01b038316600090815260036020908152604080832083905560049091528120555b6001600160a01b0383166000908152600460205260408120549003610cc2576001600160a01b03831660009081526004602052604090204290555b6001600160a01b0383166000908152600360205260408120805460019290610ceb90849061126c565b90915550506001546001600160a01b0384166000908152600360208190526040909120541115610d67576001600160a01b0384166000908152600360208190526040822054610d3a919061127f565b610d45906005611292565b905080600154610d55919061126c565b9150601e821115610d6557601e91505b505b6105cd60646105b28584611148565b600a5460ff16610d99576040516345f5ce8b60e11b815260040160405180910390fd5b600a805460ff1916905560025461010090046001600160a01b03163314610dd357604051635fc483c560e01b815260040160405180910390fd5b4780610e1a5760405162461bcd60e51b81526020600482015260126024820152714e6f20424e4220746f20776974686472617760701b604482015260640160405180910390fd5b60025460405182916000916101009091046001600160a01b031690839060006040518083038185875af1925050503d8060008114610e74576040519150601f19603f3d011682016040523d82523d6000602084013e610e79565b606091505b5050905080610e9b576040516312171d8360e31b815260040160405180910390fd5b6002546040518381526101009091046001600160a01b0316907f23d6711a1d031134a36921253c75aa59e967d38e369ac625992824315e204f209060200160405180910390a25050600a805460ff1916600117905550565b60025461010090046001600160a01b03163314610f2357604051635fc483c560e01b815260040160405180910390fd5b60025460ff1615610f465760405162dc149f60e41b815260040160405180910390fd5b60095415610f665760405162dc149f60e41b815260040160405180910390fd5b6002805460ff1916600117905564141dd76000600981905560405133917f04bc8806fe18fed846018d101de036ddc74d94ed33ed358ce06abd1e7785474391610fb191815260200190565b60405180910390a2565b6001600160a01b0381166000908152600460205260408120548190819015611041576001600160a01b0384166000908152600460205260409020546110049062093a809061126c565b421015611041576001600160a01b03841660009081526004602052604090205442906110349062093a809061126c565b61103e919061127f565b90505b6001600160a01b038416600090815260046020526040902054158061108b57506001600160a01b0384166000908152600460205260409020546110889062093a809061126c565b42115b156110a0575050600154905060036000611141565b6001600160a01b038416600090815260036020819052604090912054116110f4576001546001600160a01b0385166000908152600360208190526040909120549194506110ed919061127f565b9150611141565b6001600160a01b0384166000908152600360208190526040822054611119919061127f565b611124906005611292565b9050611139601e82600154610bdc919061126c565b935060009250505b9193909250565b60006107ce8284611292565b60006107ce828461126c565b60006107ce82846112a9565b60006107ce828461127f565b600081831061118757816107ce565b5090919050565b6000806000606084860312156111a357600080fd5b505081359360208301359350604090920135919050565b80356001600160a01b03811681146111d157600080fd5b919050565b6000602082840312156111e857600080fd5b6107ce826111ba565b6000806040838503121561120457600080fd5b50508035926020909101359150565b60006020828403121561122557600080fd5b5035919050565b6000806040838503121561123f57600080fd5b611248836111ba565b946020939093013593505050565b634e487b7160e01b600052601160045260246000fd5b808201808211156107d1576107d1611256565b818103818111156107d1576107d1611256565b80820281158282048414176107d1576107d1611256565b6000826112c657634e487b7160e01b600052601260045260246000fd5b50049056fea264697066735822122078c7bbd44321eba35c8de9bbd68e74b6579b3c6ef3233bb5a8354ad70a6ac0f364736f6c63430008110033","opcodes":"PUSH1 0x80 PUSH1 0x40 MSTORE PUSH1 0x5 PUSH1 0x1 SWAP1 DUP2 SSTORE PUSH1 0x2 DUP1 SLOAD PUSH1 0xFF NOT SWAP1 DUP2 AND SWAP1 SWAP2 SSTORE PUSH1 0xA DUP1 SLOAD SWAP1 SWAP2 AND SWAP1 SWAP2 OR SWAP1 SSTORE CALLVALUE DUP1 ISZERO PUSH2 0x30 JUMPI PUSH1 0x0 DUP1 REVERT JUMPDEST POP PUSH1 0x2 DUP1 SLOAD PUSH2 0x100 PUSH1 0x1 PUSH1 0xA8 SHL SUB NOT AND CALLER PUSH2 0x100 MUL OR SWAP1 SSTORE PUSH2 0x1301 DUP1 PUSH2 0x57 PUSH1 0x0 CODECOPY PUSH1 0x0 RETURN INVALID PUSH1 0x80 PUSH1 0x40 MSTORE PUSH1 0x4 CALLDATASIZE LT PUSH2 0x1A3 JUMPI PUSH1 0x0 CALLDATALOAD PUSH1 0xE0 SHR DUP1 PUSH4 0x765ECBC4 GT PUSH2 0xE0 JUMPI DUP1 PUSH4 0xB8F66370 GT PUSH2 0x84 JUMPI DUP1 PUSH4 0xC91ECF2E GT PUSH2 0x61 JUMPI DUP1 PUSH4 0xC91ECF2E EQ PUSH2 0x50D JUMPI DUP1 PUSH4 0xDB2E21BC EQ PUSH2 0x52D JUMPI DUP1 PUSH4 0xE5E2FB10 EQ PUSH2 0x542 JUMPI DUP1 PUSH4 0xF278D74B EQ PUSH2 0x54A JUMPI STOP JUMPDEST DUP1 PUSH4 0xB8F66370 EQ PUSH2 0x4A0 JUMPI DUP1 PUSH4 0xC63DB2F0 EQ PUSH2 0x4C0 JUMPI DUP1 PUSH4 0xC768F7BA EQ PUSH2 0x4E0 JUMPI STOP JUMPDEST DUP1 PUSH4 0x81D11718 GT PUSH2 0xBD JUMPI DUP1 PUSH4 0x81D11718 EQ PUSH2 0x406 JUMPI DUP1 PUSH4 0x8DA5CB5B EQ PUSH2 0x433 JUMPI DUP1 PUSH4 0x9776C452 EQ PUSH2 0x453 JUMPI DUP1 PUSH4 0x9CA423B3 EQ PUSH2 0x46A JUMPI STOP JUMPDEST DUP1 PUSH4 0x765ECBC4 EQ PUSH2 0x3BD JUMPI DUP1 PUSH4 0x78B46044 EQ PUSH2 0x3DD JUMPI DUP1 PUSH4 0x7E337178 EQ PUSH2 0x3F0 JUMPI STOP JUMPDEST DUP1 PUSH4 0x3BC0461A GT PUSH2 0x147 JUMPI DUP1 PUSH4 0x4E0DC2EE GT PUSH2 0x124 JUMPI DUP1 PUSH4 0x4E0DC2EE EQ PUSH2 0x324 JUMPI DUP1 PUSH4 0x6B67C4DF EQ PUSH2 0x344 JUMPI DUP1 PUSH4 0x6DB1384A EQ PUSH2 0x35A JUMPI DUP1 PUSH4 0x747D8440 EQ PUSH2 0x387 JUMPI STOP JUMPDEST DUP1 PUSH4 0x3BC0461A EQ PUSH2 0x2B7 JUMPI DUP1 PUSH4 0x467ECE79 EQ PUSH2 0x2D7 JUMPI DUP1 PUSH4 0x497CAB2C EQ PUSH2 0x304 JUMPI STOP JUMPDEST DUP1 PUSH4 0x229824C4 GT PUSH2 0x180 JUMPI DUP1 PUSH4 0x229824C4 EQ PUSH2 0x235 JUMPI DUP1 PUSH4 0x24D3079A EQ PUSH2 0x255 JUMPI DUP1 PUSH4 0x2CF71689 EQ PUSH2 0x282 JUMPI DUP1 PUSH4 0x3B635423 EQ PUSH2 0x297 JUMPI STOP JUMPDEST DUP1 PUSH4 0xA0F8168 EQ PUSH2 0x1AC JUMPI DUP1 PUSH4 0x12065FE0 EQ PUSH2 0x1EE JUMPI DUP1 PUSH4 0x158EF93E EQ PUSH2 0x20B JUMPI STOP JUMPDEST CALLDATASIZE PUSH2 0x1AA JUMPI STOP JUMPDEST STOP JUMPDEST CALLVALUE DUP1 ISZERO PUSH2 0x1B8 JUMPI PUSH1 0x0 DUP1 REVERT JUMPDEST POP PUSH1 0x2 SLOAD PUSH2 0x1D1 SWAP1 PUSH2 0x100 SWAP1 DIV PUSH1 0x1 PUSH1 0x1 PUSH1 0xA0 SHL SUB AND DUP2 JUMP JUMPDEST PUSH1 0x40 MLOAD PUSH1 0x1 PUSH1 0x1 PUSH1 0xA0 SHL SUB SWAP1 SWAP2 AND DUP2 MSTORE PUSH1 0x20 ADD JUMPDEST PUSH1 0x40 MLOAD DUP1 SWAP2 SUB SWAP1 RETURN JUMPDEST CALLVALUE DUP1 ISZERO PUSH2 0x1FA JUMPI PUSH1 0x0 DUP1 REVERT JUMPDEST POP SELFBALANCE JUMPDEST PUSH1 0x40 MLOAD SWAP1 DUP2 MSTORE PUSH1 0x20 ADD PUSH2 0x1E5 JUMP JUMPDEST CALLVALUE DUP1 ISZERO PUSH2 0x217 JUMPI PUSH1 0x0 DUP1 REVERT JUMPDEST POP PUSH1 0x2 SLOAD PUSH2 0x225 SWAP1 PUSH1 0xFF AND DUP2 JUMP JUMPDEST PUSH1 0x40 MLOAD SWAP1 ISZERO ISZERO DUP2 MSTORE PUSH1 0x20 ADD PUSH2 0x1E5 JUMP JUMPDEST CALLVALUE DUP1 ISZERO PUSH2 0x241 JUMPI PUSH1 0x0 DUP1 REVERT JUMPDEST POP PUSH2 0x1FD PUSH2 0x250 CALLDATASIZE PUSH1 0x4 PUSH2 0x118E JUMP JUMPDEST PUSH2 0x585 JUMP JUMPDEST CALLVALUE DUP1 ISZERO PUSH2 0x261 JUMPI PUSH1 0x0 DUP1 REVERT JUMPDEST POP PUSH2 0x1FD PUSH2 0x270 CALLDATASIZE PUSH1 0x4 PUSH2 0x11D6 JUMP JUMPDEST PUSH1 0x6 PUSH1 0x20 MSTORE PUSH1 0x0 SWAP1 DUP2 MSTORE PUSH1 0x40 SWAP1 KECCAK256 SLOAD DUP2 JUMP JUMPDEST CALLVALUE DUP1 ISZERO PUSH2 0x28E JUMPI PUSH1 0x0 DUP1 REVERT JUMPDEST POP PUSH2 0x1AA PUSH2 0x5D5 JUMP JUMPDEST CALLVALUE DUP1 ISZERO PUSH2 0x2A3 JUMPI PUSH1 0x0 DUP1 REVERT JUMPDEST POP PUSH2 0x1FD PUSH2 0x2B2 CALLDATASIZE PUSH1 0x4 PUSH2 0x11F1 JUMP JUMPDEST PUSH2 0x7BF JUMP JUMPDEST CALLVALUE DUP1 ISZERO PUSH2 0x2C3 JUMPI PUSH1 0x0 DUP1 REVERT JUMPDEST POP PUSH2 0x1FD PUSH2 0x2D2 CALLDATASIZE PUSH1 0x4 PUSH2 0x1213 JUMP JUMPDEST PUSH2 0x7D7 JUMP JUMPDEST CALLVALUE DUP1 ISZERO PUSH2 0x2E3 JUMPI PUSH1 0x0 DUP1 REVERT JUMPDEST POP PUSH2 0x1FD PUSH2 0x2F2 CALLDATASIZE PUSH1 0x4 PUSH2 0x11D6 JUMP JUMPDEST PUSH1 0x7 PUSH1 0x20 MSTORE PUSH1 0x0 SWAP1 DUP2 MSTORE PUSH1 0x40 SWAP1 KECCAK256 SLOAD DUP2 JUMP JUMPDEST CALLVALUE DUP1 ISZERO PUSH2 0x310 JUMPI PUSH1 0x0 DUP1 REVERT JUMPDEST POP PUSH2 0x1FD PUSH2 0x31F CALLDATASIZE PUSH1 0x4 PUSH2 0x1213 JUMP JUMPDEST PUSH2 0x7F3 JUMP JUMPDEST CALLVALUE DUP1 ISZERO PUSH2 0x330 JUMPI PUSH1 0x0 DUP1 REVERT JUMPDEST POP PUSH2 0x1FD PUSH2 0x33F CALLDATASIZE PUSH1 0x4 PUSH2 0x1213 JUMP JUMPDEST PUSH2 0x802 JUMP JUMPDEST CALLVALUE DUP1 ISZERO PUSH2 0x350 JUMPI PUSH1 0x0 DUP1 REVERT JUMPDEST POP PUSH2 0x1FD PUSH1 0x1 SLOAD DUP2 JUMP JUMPDEST CALLVALUE DUP1 ISZERO PUSH2 0x366 JUMPI PUSH1 0x0 DUP1 REVERT JUMPDEST POP PUSH2 0x1FD PUSH2 0x375 CALLDATASIZE PUSH1 0x4 PUSH2 0x11D6 JUMP JUMPDEST PUSH1 0x4 PUSH1 0x20 MSTORE PUSH1 0x0 SWAP1 DUP2 MSTORE PUSH1 0x40 SWAP1 KECCAK256 SLOAD DUP2 JUMP JUMPDEST CALLVALUE DUP1 ISZERO PUSH2 0x393 JUMPI PUSH1 0x0 DUP1 REVERT JUMPDEST POP PUSH2 0x1FD PUSH2 0x3A2 CALLDATASIZE PUSH1 0x4 PUSH2 0x11D6 JUMP JUMPDEST PUSH1 0x1 PUSH1 0x1 PUSH1 0xA0 SHL SUB AND PUSH1 0x0 SWAP1 DUP2 MSTORE PUSH1 0x5 PUSH1 0x20 MSTORE PUSH1 0x40 SWAP1 KECCAK256 SLOAD SWAP1 JUMP JUMPDEST CALLVALUE DUP1 ISZERO PUSH2 0x3C9 JUMPI PUSH1 0x0 DUP1 REVERT JUMPDEST POP PUSH2 0x1AA PUSH2 0x3D8 CALLDATASIZE PUSH1 0x4 PUSH2 0x11D6 JUMP JUMPDEST PUSH2 0x80E JUMP JUMPDEST PUSH2 0x1AA PUSH2 0x3EB CALLDATASIZE PUSH1 0x4 PUSH2 0x11D6 JUMP JUMPDEST PUSH2 0x9F3 JUMP JUMPDEST CALLVALUE DUP1 ISZERO PUSH2 0x3FC JUMPI PUSH1 0x0 DUP1 REVERT JUMPDEST POP PUSH2 0x1FD PUSH1 0x9 SLOAD DUP2 JUMP JUMPDEST CALLVALUE DUP1 ISZERO PUSH2 0x412 JUMPI PUSH1 0x0 DUP1 REVERT JUMPDEST POP PUSH2 0x1FD PUSH2 0x421 CALLDATASIZE PUSH1 0x4 PUSH2 0x11D6 JUMP JUMPDEST PUSH1 0x5 PUSH1 0x20 MSTORE PUSH1 0x0 SWAP1 DUP2 MSTORE PUSH1 0x40 SWAP1 KECCAK256 SLOAD DUP2 JUMP JUMPDEST CALLVALUE DUP1 ISZERO PUSH2 0x43F JUMPI PUSH1 0x0 DUP1 REVERT JUMPDEST POP PUSH1 0x0 SLOAD PUSH2 0x1D1 SWAP1 PUSH1 0x1 PUSH1 0x1 PUSH1 0xA0 SHL SUB AND DUP2 JUMP JUMPDEST CALLVALUE DUP1 ISZERO PUSH2 0x45F JUMPI PUSH1 0x0 DUP1 REVERT JUMPDEST POP PUSH2 0x1FD PUSH3 0xD2F00 DUP2 JUMP JUMPDEST CALLVALUE DUP1 ISZERO PUSH2 0x476 JUMPI PUSH1 0x0 DUP1 REVERT JUMPDEST POP PUSH2 0x1D1 PUSH2 0x485 CALLDATASIZE PUSH1 0x4 PUSH2 0x11D6 JUMP JUMPDEST PUSH1 0x8 PUSH1 0x20 MSTORE PUSH1 0x0 SWAP1 DUP2 MSTORE PUSH1 0x40 SWAP1 KECCAK256 SLOAD PUSH1 0x1 PUSH1 0x1 PUSH1 0xA0 SHL SUB AND DUP2 JUMP JUMPDEST CALLVALUE DUP1 ISZERO PUSH2 0x4AC JUMPI PUSH1 0x0 DUP1 REVERT JUMPDEST POP PUSH2 0x1FD PUSH2 0x4BB CALLDATASIZE PUSH1 0x4 PUSH2 0x11D6 JUMP JUMPDEST PUSH2 0xB80 JUMP JUMPDEST CALLVALUE DUP1 ISZERO PUSH2 0x4CC JUMPI PUSH1 0x0 DUP1 REVERT JUMPDEST POP PUSH2 0x1FD PUSH2 0x4DB CALLDATASIZE PUSH1 0x4 PUSH2 0x11D6 JUMP JUMPDEST PUSH2 0xBAD JUMP JUMPDEST CALLVALUE DUP1 ISZERO PUSH2 0x4EC JUMPI PUSH1 0x0 DUP1 REVERT JUMPDEST POP PUSH2 0x1FD PUSH2 0x4FB CALLDATASIZE PUSH1 0x4 PUSH2 0x11D6 JUMP JUMPDEST PUSH1 0x3 PUSH1 0x20 MSTORE PUSH1 0x0 SWAP1 DUP2 MSTORE PUSH1 0x40 SWAP1 KECCAK256 SLOAD DUP2 JUMP JUMPDEST CALLVALUE DUP1 ISZERO PUSH2 0x519 JUMPI PUSH1 0x0 DUP1 REVERT JUMPDEST POP PUSH2 0x1FD PUSH2 0x528 CALLDATASIZE PUSH1 0x4 PUSH2 0x122C JUMP JUMPDEST PUSH2 0xC0F JUMP JUMPDEST CALLVALUE DUP1 ISZERO PUSH2 0x539 JUMPI PUSH1 0x0 DUP1 REVERT JUMPDEST POP PUSH2 0x1AA PUSH2 0xD76 JUMP JUMPDEST PUSH2 0x1AA PUSH2 0xEF3 JUMP JUMPDEST CALLVALUE DUP1 ISZERO PUSH2 0x556 JUMPI PUSH1 0x0 DUP1 REVERT JUMPDEST POP PUSH2 0x56A PUSH2 0x565 CALLDATASIZE PUSH1 0x4 PUSH2 0x11D6 JUMP JUMPDEST PUSH2 0xFBB JUMP JUMPDEST PUSH1 0x40 DUP1 MLOAD SWAP4 DUP5 MSTORE PUSH1 0x20 DUP5 ADD SWAP3 SWAP1 SWAP3 MSTORE SWAP1 DUP3 ADD MSTORE PUSH1 0x60 ADD PUSH2 0x1E5 JUMP JUMPDEST PUSH1 0x0 PUSH2 0x5CD PUSH2 0x5C1 PUSH2 0x5B8 DUP7 PUSH2 0x5B2 PUSH2 0x5A0 DUP3 PUSH2 0x1388 PUSH2 0x1148 JUMP JUMPDEST PUSH2 0x5AC DUP10 PUSH2 0x2710 PUSH2 0x1148 JUMP JUMPDEST SWAP1 PUSH2 0x1154 JUMP JUMPDEST SWAP1 PUSH2 0x1160 JUMP JUMPDEST PUSH2 0x1388 SWAP1 PUSH2 0x1154 JUMP JUMPDEST PUSH2 0x5B2 DUP5 PUSH2 0x2710 PUSH2 0x1148 JUMP JUMPDEST SWAP5 SWAP4 POP POP POP POP JUMP JUMPDEST PUSH1 0xA SLOAD PUSH1 0xFF AND PUSH2 0x5F8 JUMPI PUSH1 0x40 MLOAD PUSH4 0x45F5CE8B PUSH1 0xE1 SHL DUP2 MSTORE PUSH1 0x4 ADD PUSH1 0x40 MLOAD DUP1 SWAP2 SUB SWAP1 REVERT JUMPDEST PUSH1 0xA DUP1 SLOAD PUSH1 0xFF NOT AND SWAP1 SSTORE PUSH1 0x2 SLOAD PUSH1 0xFF AND PUSH2 0x625 JUMPI PUSH1 0x40 MLOAD PUSH4 0x21C4E357 PUSH1 0xE2 SHL DUP2 MSTORE PUSH1 0x4 ADD PUSH1 0x40 MLOAD DUP1 SWAP2 SUB SWAP1 REVERT JUMPDEST PUSH1 0x0 PUSH2 0x630 CALLER PUSH2 0xB80 JUMP JUMPDEST SWAP1 POP PUSH1 0x0 PUSH2 0x63D DUP3 PUSH2 0x7F3 JUMP JUMPDEST SWAP1 POP PUSH1 0x0 PUSH2 0x64B CALLER DUP4 PUSH2 0xC0F JUMP JUMPDEST CALLER PUSH1 0x0 SWAP1 DUP2 MSTORE PUSH1 0x6 PUSH1 0x20 SWAP1 DUP2 MSTORE PUSH1 0x40 DUP1 DUP4 KECCAK256 DUP4 SWAP1 SSTORE PUSH1 0x7 SWAP1 SWAP2 MSTORE SWAP1 KECCAK256 TIMESTAMP SWAP1 SSTORE PUSH1 0x9 SLOAD SWAP1 SWAP2 POP PUSH2 0x67A SWAP1 DUP5 PUSH2 0x1154 JUMP JUMPDEST PUSH1 0x9 SSTORE PUSH1 0x2 SLOAD PUSH1 0x40 MLOAD PUSH1 0x0 SWAP2 PUSH2 0x100 SWAP1 DIV PUSH1 0x1 PUSH1 0x1 PUSH1 0xA0 SHL SUB AND SWAP1 DUP4 SWAP1 DUP4 DUP2 DUP2 DUP2 DUP6 DUP8 GAS CALL SWAP3 POP POP POP RETURNDATASIZE DUP1 PUSH1 0x0 DUP2 EQ PUSH2 0x6CF JUMPI PUSH1 0x40 MLOAD SWAP2 POP PUSH1 0x1F NOT PUSH1 0x3F RETURNDATASIZE ADD AND DUP3 ADD PUSH1 0x40 MSTORE RETURNDATASIZE DUP3 MSTORE RETURNDATASIZE PUSH1 0x0 PUSH1 0x20 DUP5 ADD RETURNDATACOPY PUSH2 0x6D4 JUMP JUMPDEST PUSH1 0x60 SWAP2 POP JUMPDEST POP POP SWAP1 POP DUP1 PUSH2 0x6F6 JUMPI PUSH1 0x40 MLOAD PUSH4 0x12171D83 PUSH1 0xE3 SHL DUP2 MSTORE PUSH1 0x4 ADD PUSH1 0x40 MLOAD DUP1 SWAP2 SUB SWAP1 REVERT JUMPDEST PUSH1 0x0 CALLER PUSH2 0x703 DUP6 DUP6 PUSH2 0x116C JUMP JUMPDEST PUSH1 0x40 MLOAD PUSH1 0x0 DUP2 DUP2 DUP2 DUP6 DUP8 GAS CALL SWAP3 POP POP POP RETURNDATASIZE DUP1 PUSH1 0x0 DUP2 EQ PUSH2 0x73F JUMPI PUSH1 0x40 MLOAD SWAP2 POP PUSH1 0x1F NOT PUSH1 0x3F RETURNDATASIZE ADD AND DUP3 ADD PUSH1 0x40 MSTORE RETURNDATASIZE DUP3 MSTORE RETURNDATASIZE PUSH1 0x0 PUSH1 0x20 DUP5 ADD RETURNDATACOPY PUSH2 0x744 JUMP JUMPDEST PUSH1 0x60 SWAP2 POP JUMPDEST POP POP SWAP1 POP DUP1 PUSH2 0x766 JUMPI PUSH1 0x40 MLOAD PUSH4 0x12171D83 PUSH1 0xE3 SHL DUP2 MSTORE PUSH1 0x4 ADD PUSH1 0x40 MLOAD DUP1 SWAP2 SUB SWAP1 REVERT JUMPDEST CALLER PUSH32 0xF8BDE6757B82CE039858BA0058689315B57807D694AA964E3E25962D0DB8396C DUP7 PUSH2 0x793 DUP8 DUP8 PUSH2 0x116C JUMP JUMPDEST PUSH1 0x40 DUP1 MLOAD SWAP3 DUP4 MSTORE PUSH1 0x20 DUP4 ADD SWAP2 SWAP1 SWAP2 MSTORE ADD PUSH1 0x40 MLOAD DUP1 SWAP2 SUB SWAP1 LOG2 POP POP PUSH1 0xA DUP1 SLOAD PUSH1 0xFF NOT AND PUSH1 0x1 OR SWAP1 SSTORE POP POP POP JUMP JUMPDEST PUSH1 0x0 PUSH2 0x7CE DUP4 DUP4 PUSH1 0x9 SLOAD PUSH2 0x585 JUMP JUMPDEST SWAP1 POP JUMPDEST SWAP3 SWAP2 POP POP JUMP JUMPDEST PUSH1 0x0 PUSH2 0x7D1 PUSH1 0x64 PUSH2 0x5B2 PUSH1 0x1 SLOAD DUP6 PUSH2 0x1148 SWAP1 SWAP2 SWAP1 PUSH4 0xFFFFFFFF AND JUMP JUMPDEST PUSH1 0x0 PUSH2 0x7D1 DUP3 PUSH1 0x9 SLOAD SELFBALANCE PUSH2 0x585 JUMP JUMPDEST PUSH1 0x0 PUSH2 0x7D1 DUP3 SELFBALANCE PUSH2 0x7BF JUMP JUMPDEST PUSH1 0x2 SLOAD PUSH1 0xFF AND PUSH2 0x831 JUMPI PUSH1 0x40 MLOAD PUSH4 0x21C4E357 PUSH1 0xE2 SHL DUP2 MSTORE PUSH1 0x4 ADD PUSH1 0x40 MLOAD DUP1 SWAP2 SUB SWAP1 REVERT JUMPDEST PUSH1 0x1 PUSH1 0x1 PUSH1 0xA0 SHL SUB DUP2 AND CALLER EQ DUP1 PUSH2 0x84F JUMPI POP PUSH1 0x1 PUSH1 0x1 PUSH1 0xA0 SHL SUB DUP2 AND ISZERO JUMPDEST DUP1 PUSH2 0x870 JUMPI POP PUSH1 0x1 PUSH1 0x1 PUSH1 0xA0 SHL SUB DUP2 AND PUSH1 0x0 SWAP1 DUP2 MSTORE PUSH1 0x5 PUSH1 0x20 MSTORE PUSH1 0x40 SWAP1 KECCAK256 SLOAD ISZERO JUMPDEST ISZERO PUSH2 0x888 JUMPI POP PUSH1 0x2 SLOAD PUSH2 0x100 SWAP1 DIV PUSH1 0x1 PUSH1 0x1 PUSH1 0xA0 SHL SUB AND JUMPDEST CALLER PUSH1 0x0 SWAP1 DUP2 MSTORE PUSH1 0x8 PUSH1 0x20 MSTORE PUSH1 0x40 SWAP1 KECCAK256 SLOAD PUSH1 0x1 PUSH1 0x1 PUSH1 0xA0 SHL SUB AND PUSH2 0x8CE JUMPI CALLER PUSH1 0x0 SWAP1 DUP2 MSTORE PUSH1 0x8 PUSH1 0x20 MSTORE PUSH1 0x40 SWAP1 KECCAK256 DUP1 SLOAD PUSH1 0x1 PUSH1 0x1 PUSH1 0xA0 SHL SUB NOT AND PUSH1 0x1 PUSH1 0x1 PUSH1 0xA0 SHL SUB DUP4 AND OR SWAP1 SSTORE JUMPDEST PUSH1 0x0 PUSH2 0x8D9 CALLER PUSH2 0xB80 JUMP JUMPDEST SWAP1 POP PUSH1 0x0 PUSH2 0x8EA DUP3 PUSH3 0xD2F00 PUSH2 0x1160 JUMP JUMPDEST CALLER PUSH1 0x0 SWAP1 DUP2 MSTORE PUSH1 0x5 PUSH1 0x20 MSTORE PUSH1 0x40 SWAP1 KECCAK256 SLOAD SWAP1 SWAP2 POP PUSH2 0x907 SWAP1 DUP3 PUSH2 0x1154 JUMP JUMPDEST CALLER PUSH1 0x0 SWAP1 DUP2 MSTORE PUSH1 0x5 PUSH1 0x20 SWAP1 DUP2 MSTORE PUSH1 0x40 DUP1 DUP4 KECCAK256 SWAP4 SWAP1 SWAP4 SSTORE PUSH1 0x6 DUP2 MSTORE DUP3 DUP3 KECCAK256 DUP3 SWAP1 SSTORE PUSH1 0x7 SWAP1 MSTORE KECCAK256 TIMESTAMP SWAP1 SSTORE PUSH2 0x96E PUSH2 0x942 PUSH1 0x64 PUSH2 0x5B2 DUP6 PUSH1 0xF PUSH2 0x1148 JUMP JUMPDEST CALLER PUSH1 0x0 SWAP1 DUP2 MSTORE PUSH1 0x8 PUSH1 0x20 SWAP1 DUP2 MSTORE PUSH1 0x40 DUP1 DUP4 KECCAK256 SLOAD PUSH1 0x1 PUSH1 0x1 PUSH1 0xA0 SHL SUB AND DUP4 MSTORE PUSH1 0x6 SWAP1 SWAP2 MSTORE SWAP1 KECCAK256 SLOAD SWAP1 PUSH2 0x1154 JUMP JUMPDEST CALLER PUSH1 0x0 SWAP1 DUP2 MSTORE PUSH1 0x8 PUSH1 0x20 SWAP1 DUP2 MSTORE PUSH1 0x40 DUP1 DUP4 KECCAK256 SLOAD PUSH1 0x1 PUSH1 0x1 PUSH1 0xA0 SHL SUB AND DUP4 MSTORE PUSH1 0x6 SWAP1 SWAP2 MSTORE SWAP1 KECCAK256 SSTORE PUSH2 0x9AB PUSH2 0x9A2 DUP4 PUSH1 0x5 PUSH2 0x1160 JUMP JUMPDEST PUSH1 0x9 SLOAD SWAP1 PUSH2 0x1154 JUMP JUMPDEST PUSH1 0x9 SSTORE PUSH1 0x40 MLOAD DUP2 DUP2 MSTORE PUSH1 0x1 PUSH1 0x1 PUSH1 0xA0 SHL SUB DUP5 AND SWAP1 CALLER SWAP1 PUSH32 0x793D02D951962F9D8920F6C37120B756E3C24B16F0AA57BFE8E8BABC28D58626 SWAP1 PUSH1 0x20 ADD PUSH1 0x40 MLOAD DUP1 SWAP2 SUB SWAP1 LOG3 POP POP POP JUMP JUMPDEST PUSH1 0xA SLOAD PUSH1 0xFF AND PUSH2 0xA16 JUMPI PUSH1 0x40 MLOAD PUSH4 0x45F5CE8B PUSH1 0xE1 SHL DUP2 MSTORE PUSH1 0x4 ADD PUSH1 0x40 MLOAD DUP1 SWAP2 SUB SWAP1 REVERT JUMPDEST PUSH1 0xA DUP1 SLOAD PUSH1 0xFF NOT AND SWAP1 SSTORE PUSH1 0x2 SLOAD PUSH1 0xFF AND PUSH2 0xA43 JUMPI PUSH1 0x40 MLOAD PUSH4 0x21C4E357 PUSH1 0xE2 SHL DUP2 MSTORE PUSH1 0x4 ADD PUSH1 0x40 MLOAD DUP1 SWAP2 SUB SWAP1 REVERT JUMPDEST PUSH1 0x0 PUSH2 0xA53 CALLVALUE PUSH2 0x2B2 SELFBALANCE DUP3 PUSH2 0x116C JUMP JUMPDEST SWAP1 POP PUSH2 0xA68 PUSH2 0xA61 DUP3 PUSH2 0x7D7 JUMP JUMPDEST DUP3 SWAP1 PUSH2 0x116C JUMP JUMPDEST SWAP1 POP PUSH1 0x0 PUSH2 0xA75 CALLVALUE PUSH2 0x7D7 JUMP JUMPDEST PUSH1 0x2 SLOAD PUSH1 0x40 MLOAD SWAP2 SWAP3 POP PUSH1 0x0 SWAP2 PUSH2 0x100 SWAP1 SWAP2 DIV PUSH1 0x1 PUSH1 0x1 PUSH1 0xA0 SHL SUB AND SWAP1 DUP4 SWAP1 DUP4 DUP2 DUP2 DUP2 DUP6 DUP8 GAS CALL SWAP3 POP POP POP RETURNDATASIZE DUP1 PUSH1 0x0 DUP2 EQ PUSH2 0xACB JUMPI PUSH1 0x40 MLOAD SWAP2 POP PUSH1 0x1F NOT PUSH1 0x3F RETURNDATASIZE ADD AND DUP3 ADD PUSH1 0x40 MSTORE RETURNDATASIZE DUP3 MSTORE RETURNDATASIZE PUSH1 0x0 PUSH1 0x20 DUP5 ADD RETURNDATACOPY PUSH2 0xAD0 JUMP JUMPDEST PUSH1 0x60 SWAP2 POP JUMPDEST POP POP SWAP1 POP DUP1 PUSH2 0xAF2 JUMPI PUSH1 0x40 MLOAD PUSH4 0x12171D83 PUSH1 0xE3 SHL DUP2 MSTORE PUSH1 0x4 ADD PUSH1 0x40 MLOAD DUP1 SWAP2 SUB SWAP1 REVERT JUMPDEST CALLER PUSH1 0x0 SWAP1 DUP2 MSTORE PUSH1 0x6 PUSH1 0x20 MSTORE PUSH1 0x40 SWAP1 KECCAK256 SLOAD PUSH2 0xB0C SWAP1 DUP5 PUSH2 0x1154 JUMP JUMPDEST CALLER PUSH1 0x0 DUP2 DUP2 MSTORE PUSH1 0x6 PUSH1 0x20 SWAP1 DUP2 MSTORE PUSH1 0x40 SWAP2 DUP3 SWAP1 KECCAK256 SWAP4 SWAP1 SWAP4 SSTORE DUP1 MLOAD CALLVALUE DUP2 MSTORE SWAP3 DUP4 ADD DUP7 SWAP1 MSTORE PUSH1 0x1 PUSH1 0x1 PUSH1 0xA0 SHL SUB DUP8 AND SWAP3 PUSH32 0x17BDF410810CAFADE59A00F325789F6D13E4EE94EF3E658D8FD84B3F3859662 SWAP2 ADD PUSH1 0x40 MLOAD DUP1 SWAP2 SUB SWAP1 LOG3 PUSH2 0xB6D DUP5 PUSH2 0x80E JUMP JUMPDEST POP POP PUSH1 0xA DUP1 SLOAD PUSH1 0xFF NOT AND PUSH1 0x1 OR SWAP1 SSTORE POP POP JUMP JUMPDEST PUSH1 0x0 PUSH2 0x7D1 PUSH2 0xB8E DUP4 PUSH2 0xBAD JUMP JUMPDEST PUSH1 0x1 PUSH1 0x1 PUSH1 0xA0 SHL SUB DUP5 AND PUSH1 0x0 SWAP1 DUP2 MSTORE PUSH1 0x6 PUSH1 0x20 MSTORE PUSH1 0x40 SWAP1 KECCAK256 SLOAD SWAP1 PUSH2 0x1154 JUMP JUMPDEST PUSH1 0x1 PUSH1 0x1 PUSH1 0xA0 SHL SUB DUP2 AND PUSH1 0x0 SWAP1 DUP2 MSTORE PUSH1 0x7 PUSH1 0x20 MSTORE PUSH1 0x40 DUP2 KECCAK256 SLOAD DUP2 SWAP1 PUSH2 0xBE1 SWAP1 PUSH3 0xD2F00 SWAP1 PUSH2 0xBDC SWAP1 TIMESTAMP SWAP1 PUSH2 0x116C JUMP JUMPDEST PUSH2 0x1178 JUMP JUMPDEST PUSH1 0x1 PUSH1 0x1 PUSH1 0xA0 SHL SUB DUP5 AND PUSH1 0x0 SWAP1 DUP2 MSTORE PUSH1 0x5 PUSH1 0x20 MSTORE PUSH1 0x40 SWAP1 KECCAK256 SLOAD SWAP1 SWAP2 POP PUSH2 0xC08 SWAP1 DUP3 SWAP1 PUSH2 0x1148 JUMP JUMPDEST SWAP4 SWAP3 POP POP POP JUMP JUMPDEST PUSH1 0x1 PUSH1 0x1 PUSH1 0xA0 SHL SUB DUP3 AND PUSH1 0x0 SWAP1 DUP2 MSTORE PUSH1 0x4 PUSH1 0x20 MSTORE PUSH1 0x40 DUP2 KECCAK256 SLOAD ISZERO DUP1 ISZERO SWAP1 PUSH2 0xC5B JUMPI POP PUSH1 0x1 PUSH1 0x1 PUSH1 0xA0 SHL SUB DUP4 AND PUSH1 0x0 SWAP1 DUP2 MSTORE PUSH1 0x4 PUSH1 0x20 MSTORE PUSH1 0x40 SWAP1 KECCAK256 SLOAD PUSH2 0xC58 SWAP1 PUSH3 0x93A80 SWAP1 PUSH2 0x126C JUMP JUMPDEST TIMESTAMP GT JUMPDEST ISZERO PUSH2 0xC87 JUMPI PUSH1 0x1 PUSH1 0x1 PUSH1 0xA0 SHL SUB DUP4 AND PUSH1 0x0 SWAP1 DUP2 MSTORE PUSH1 0x3 PUSH1 0x20 SWAP1 DUP2 MSTORE PUSH1 0x40 DUP1 DUP4 KECCAK256 DUP4 SWAP1 SSTORE PUSH1 0x4 SWAP1 SWAP2 MSTORE DUP2 KECCAK256 SSTORE JUMPDEST PUSH1 0x1 PUSH1 0x1 PUSH1 0xA0 SHL SUB DUP4 AND PUSH1 0x0 SWAP1 DUP2 MSTORE PUSH1 0x4 PUSH1 0x20 MSTORE PUSH1 0x40 DUP2 KECCAK256 SLOAD SWAP1 SUB PUSH2 0xCC2 JUMPI PUSH1 0x1 PUSH1 0x1 PUSH1 0xA0 SHL SUB DUP4 AND PUSH1 0x0 SWAP1 DUP2 MSTORE PUSH1 0x4 PUSH1 0x20 MSTORE PUSH1 0x40 SWAP1 KECCAK256 TIMESTAMP SWAP1 SSTORE JUMPDEST PUSH1 0x1 PUSH1 0x1 PUSH1 0xA0 SHL SUB DUP4 AND PUSH1 0x0 SWAP1 DUP2 MSTORE PUSH1 0x3 PUSH1 0x20 MSTORE PUSH1 0x40 DUP2 KECCAK256 DUP1 SLOAD PUSH1 0x1 SWAP3 SWAP1 PUSH2 0xCEB SWAP1 DUP5 SWAP1 PUSH2 0x126C JUMP JUMPDEST SWAP1 SWAP2 SSTORE POP POP PUSH1 0x1 SLOAD PUSH1 0x1 PUSH1 0x1 PUSH1 0xA0 SHL SUB DUP5 AND PUSH1 0x0 SWAP1 DUP2 MSTORE PUSH1 0x3 PUSH1 0x20 DUP2 SWAP1 MSTORE PUSH1 0x40 SWAP1 SWAP2 KECCAK256 SLOAD GT ISZERO PUSH2 0xD67 JUMPI PUSH1 0x1 PUSH1 0x1 PUSH1 0xA0 SHL SUB DUP5 AND PUSH1 0x0 SWAP1 DUP2 MSTORE PUSH1 0x3 PUSH1 0x20 DUP2 SWAP1 MSTORE PUSH1 0x40 DUP3 KECCAK256 SLOAD PUSH2 0xD3A SWAP2 SWAP1 PUSH2 0x127F JUMP JUMPDEST PUSH2 0xD45 SWAP1 PUSH1 0x5 PUSH2 0x1292 JUMP JUMPDEST SWAP1 POP DUP1 PUSH1 0x1 SLOAD PUSH2 0xD55 SWAP2 SWAP1 PUSH2 0x126C JUMP JUMPDEST SWAP2 POP PUSH1 0x1E DUP3 GT ISZERO PUSH2 0xD65 JUMPI PUSH1 0x1E SWAP2 POP JUMPDEST POP JUMPDEST PUSH2 0x5CD PUSH1 0x64 PUSH2 0x5B2 DUP6 DUP5 PUSH2 0x1148 JUMP JUMPDEST PUSH1 0xA SLOAD PUSH1 0xFF AND PUSH2 0xD99 JUMPI PUSH1 0x40 MLOAD PUSH4 0x45F5CE8B PUSH1 0xE1 SHL DUP2 MSTORE PUSH1 0x4 ADD PUSH1 0x40 MLOAD DUP1 SWAP2 SUB SWAP1 REVERT JUMPDEST PUSH1 0xA DUP1 SLOAD PUSH1 0xFF NOT AND SWAP1 SSTORE PUSH1 0x2 SLOAD PUSH2 0x100 SWAP1 DIV PUSH1 0x1 PUSH1 0x1 PUSH1 0xA0 SHL SUB AND CALLER EQ PUSH2 0xDD3 JUMPI PUSH1 0x40 MLOAD PUSH4 0x5FC483C5 PUSH1 0xE0 SHL DUP2 MSTORE PUSH1 0x4 ADD PUSH1 0x40 MLOAD DUP1 SWAP2 SUB SWAP1 REVERT JUMPDEST SELFBALANCE DUP1 PUSH2 0xE1A JUMPI PUSH1 0x40 MLOAD PUSH3 0x461BCD PUSH1 0xE5 SHL DUP2 MSTORE PUSH1 0x20 PUSH1 0x4 DUP3 ADD MSTORE PUSH1 0x12 PUSH1 0x24 DUP3 ADD MSTORE PUSH18 0x4E6F20424E4220746F207769746864726177 PUSH1 0x70 SHL PUSH1 0x44 DUP3 ADD MSTORE PUSH1 0x64 ADD PUSH1 0x40 MLOAD DUP1 SWAP2 SUB SWAP1 REVERT JUMPDEST PUSH1 0x2 SLOAD PUSH1 0x40 MLOAD DUP3 SWAP2 PUSH1 0x0 SWAP2 PUSH2 0x100 SWAP1 SWAP2 DIV PUSH1 0x1 PUSH1 0x1 PUSH1 0xA0 SHL SUB AND SWAP1 DUP4 SWAP1 PUSH1 0x0 PUSH1 0x40 MLOAD DUP1 DUP4 SUB DUP2 DUP6 DUP8 GAS CALL SWAP3 POP POP POP RETURNDATASIZE DUP1 PUSH1 0x0 DUP2 EQ PUSH2 0xE74 JUMPI PUSH1 0x40 MLOAD SWAP2 POP PUSH1 0x1F NOT PUSH1 0x3F RETURNDATASIZE ADD AND DUP3 ADD PUSH1 0x40 MSTORE RETURNDATASIZE DUP3 MSTORE RETURNDATASIZE PUSH1 0x0 PUSH1 0x20 DUP5 ADD RETURNDATACOPY PUSH2 0xE79 JUMP JUMPDEST PUSH1 0x60 SWAP2 POP JUMPDEST POP POP SWAP1 POP DUP1 PUSH2 0xE9B JUMPI PUSH1 0x40 MLOAD PUSH4 0x12171D83 PUSH1 0xE3 SHL DUP2 MSTORE PUSH1 0x4 ADD PUSH1 0x40 MLOAD DUP1 SWAP2 SUB SWAP1 REVERT JUMPDEST PUSH1 0x2 SLOAD PUSH1 0x40 MLOAD DUP4 DUP2 MSTORE PUSH2 0x100 SWAP1 SWAP2 DIV PUSH1 0x1 PUSH1 0x1 PUSH1 0xA0 SHL SUB AND SWAP1 PUSH32 0x23D6711A1D031134A36921253C75AA59E967D38E369AC625992824315E204F20 SWAP1 PUSH1 0x20 ADD PUSH1 0x40 MLOAD DUP1 SWAP2 SUB SWAP1 LOG2 POP POP PUSH1 0xA DUP1 SLOAD PUSH1 0xFF NOT AND PUSH1 0x1 OR SWAP1 SSTORE POP JUMP JUMPDEST PUSH1 0x2 SLOAD PUSH2 0x100 SWAP1 DIV PUSH1 0x1 PUSH1 0x1 PUSH1 0xA0 SHL SUB AND CALLER EQ PUSH2 0xF23 JUMPI PUSH1 0x40 MLOAD PUSH4 0x5FC483C5 PUSH1 0xE0 SHL DUP2 MSTORE PUSH1 0x4 ADD PUSH1 0x40 MLOAD DUP1 SWAP2 SUB SWAP1 REVERT JUMPDEST PUSH1 0x2 SLOAD PUSH1 0xFF AND ISZERO PUSH2 0xF46 JUMPI PUSH1 0x40 MLOAD PUSH3 0xDC149F PUSH1 0xE4 SHL DUP2 MSTORE PUSH1 0x4 ADD PUSH1 0x40 MLOAD DUP1 SWAP2 SUB SWAP1 REVERT JUMPDEST PUSH1 0x9 SLOAD ISZERO PUSH2 0xF66 JUMPI PUSH1 0x40 MLOAD PUSH3 0xDC149F PUSH1 0xE4 SHL DUP2 MSTORE PUSH1 0x4 ADD PUSH1 0x40 MLOAD DUP1 SWAP2 SUB SWAP1 REVERT JUMPDEST PUSH1 0x2 DUP1 SLOAD PUSH1 0xFF NOT AND PUSH1 0x1 OR SWAP1 SSTORE PUSH5 0x141DD76000 PUSH1 0x9 DUP2 SWAP1 SSTORE PUSH1 0x40 MLOAD CALLER SWAP2 PUSH32 0x4BC8806FE18FED846018D101DE036DDC74D94ED33ED358CE06ABD1E77854743 SWAP2 PUSH2 0xFB1 SWAP2 DUP2 MSTORE PUSH1 0x20 ADD SWAP1 JUMP JUMPDEST PUSH1 0x40 MLOAD DUP1 SWAP2 SUB SWAP1 LOG2 JUMP JUMPDEST PUSH1 0x1 PUSH1 0x1 PUSH1 0xA0 SHL SUB DUP2 AND PUSH1 0x0 SWAP1 DUP2 MSTORE PUSH1 0x4 PUSH1 0x20 MSTORE PUSH1 0x40 DUP2 KECCAK256 SLOAD DUP2 SWAP1 DUP2 SWAP1 ISZERO PUSH2 0x1041 JUMPI PUSH1 0x1 PUSH1 0x1 PUSH1 0xA0 SHL SUB DUP5 AND PUSH1 0x0 SWAP1 DUP2 MSTORE PUSH1 0x4 PUSH1 0x20 MSTORE PUSH1 0x40 SWAP1 KECCAK256 SLOAD PUSH2 0x1004 SWAP1 PUSH3 0x93A80 SWAP1 PUSH2 0x126C JUMP JUMPDEST TIMESTAMP LT ISZERO PUSH2 0x1041 JUMPI PUSH1 0x1 PUSH1 0x1 PUSH1 0xA0 SHL SUB DUP5 AND PUSH1 0x0 SWAP1 DUP2 MSTORE PUSH1 0x4 PUSH1 0x20 MSTORE PUSH1 0x40 SWAP1 KECCAK256 SLOAD TIMESTAMP SWAP1 PUSH2 0x1034 SWAP1 PUSH3 0x93A80 SWAP1 PUSH2 0x126C JUMP JUMPDEST PUSH2 0x103E SWAP2 SWAP1 PUSH2 0x127F JUMP JUMPDEST SWAP1 POP JUMPDEST PUSH1 0x1 PUSH1 0x1 PUSH1 0xA0 SHL SUB DUP5 AND PUSH1 0x0 SWAP1 DUP2 MSTORE PUSH1 0x4 PUSH1 0x20 MSTORE PUSH1 0x40 SWAP1 KECCAK256 SLOAD ISZERO DUP1 PUSH2 0x108B JUMPI POP PUSH1 0x1 PUSH1 0x1 PUSH1 0xA0 SHL SUB DUP5 AND PUSH1 0x0 SWAP1 DUP2 MSTORE PUSH1 0x4 PUSH1 0x20 MSTORE PUSH1 0x40 SWAP1 KECCAK256 SLOAD PUSH2 0x1088 SWAP1 PUSH3 0x93A80 SWAP1 PUSH2 0x126C JUMP JUMPDEST TIMESTAMP GT JUMPDEST ISZERO PUSH2 0x10A0 JUMPI POP POP PUSH1 0x1 SLOAD SWAP1 POP PUSH1 0x3 PUSH1 0x0 PUSH2 0x1141 JUMP JUMPDEST PUSH1 0x1 PUSH1 0x1 PUSH1 0xA0 SHL SUB DUP5 AND PUSH1 0x0 SWAP1 DUP2 MSTORE PUSH1 0x3 PUSH1 0x20 DUP2 SWAP1 MSTORE PUSH1 0x40 SWAP1 SWAP2 KECCAK256 SLOAD GT PUSH2 0x10F4 JUMPI PUSH1 0x1 SLOAD PUSH1 0x1 PUSH1 0x1 PUSH1 0xA0 SHL SUB DUP6 AND PUSH1 0x0 SWAP1 DUP2 MSTORE PUSH1 0x3 PUSH1 0x20 DUP2 SWAP1 MSTORE PUSH1 0x40 SWAP1 SWAP2 KECCAK256 SLOAD SWAP2 SWAP5 POP PUSH2 0x10ED SWAP2 SWAP1 PUSH2 0x127F JUMP JUMPDEST SWAP2 POP PUSH2 0x1141 JUMP JUMPDEST PUSH1 0x1 PUSH1 0x1 PUSH1 0xA0 SHL SUB DUP5 AND PUSH1 0x0 SWAP1 DUP2 MSTORE PUSH1 0x3 PUSH1 0x20 DUP2 SWAP1 MSTORE PUSH1 0x40 DUP3 KECCAK256 SLOAD PUSH2 0x1119 SWAP2 SWAP1 PUSH2 0x127F JUMP JUMPDEST PUSH2 0x1124 SWAP1 PUSH1 0x5 PUSH2 0x1292 JUMP JUMPDEST SWAP1 POP PUSH2 0x1139 PUSH1 0x1E DUP3 PUSH1 0x1 SLOAD PUSH2 0xBDC SWAP2 SWAP1 PUSH2 0x126C JUMP JUMPDEST SWAP4 POP PUSH1 0x0 SWAP3 POP POP JUMPDEST SWAP2 SWAP4 SWAP1 SWAP3 POP JUMP JUMPDEST PUSH1 0x0 PUSH2 0x7CE DUP3 DUP5 PUSH2 0x1292 JUMP JUMPDEST PUSH1 0x0 PUSH2 0x7CE DUP3 DUP5 PUSH2 0x126C JUMP JUMPDEST PUSH1 0x0 PUSH2 0x7CE DUP3 DUP5 PUSH2 0x12A9 JUMP JUMPDEST PUSH1 0x0 PUSH2 0x7CE DUP3 DUP5 PUSH2 0x127F JUMP JUMPDEST PUSH1 0x0 DUP2 DUP4 LT PUSH2 0x1187 JUMPI DUP2 PUSH2 0x7CE JUMP JUMPDEST POP SWAP1 SWAP2 SWAP1 POP JUMP JUMPDEST PUSH1 0x0 DUP1 PUSH1 0x0 PUSH1 0x60 DUP5 DUP7 SUB SLT ISZERO PUSH2 0x11A3 JUMPI PUSH1 0x0 DUP1 REVERT JUMPDEST POP POP DUP2 CALLDATALOAD SWAP4 PUSH1 0x20 DUP4 ADD CALLDATALOAD SWAP4 POP PUSH1 0x40 SWAP1 SWAP3 ADD CALLDATALOAD SWAP2 SWAP1 POP JUMP JUMPDEST DUP1 CALLDATALOAD PUSH1 0x1 PUSH1 0x1 PUSH1 0xA0 SHL SUB DUP2 AND DUP2 EQ PUSH2 0x11D1 JUMPI PUSH1 0x0 DUP1 REVERT JUMPDEST SWAP2 SWAP1 POP JUMP JUMPDEST PUSH1 0x0 PUSH1 0x20 DUP3 DUP5 SUB SLT ISZERO PUSH2 0x11E8 JUMPI PUSH1 0x0 DUP1 REVERT JUMPDEST PUSH2 0x7CE DUP3 PUSH2 0x11BA JUMP JUMPDEST PUSH1 0x0 DUP1 PUSH1 0x40 DUP4 DUP6 SUB SLT ISZERO PUSH2 0x1204 JUMPI PUSH1 0x0 DUP1 REVERT JUMPDEST POP POP DUP1 CALLDATALOAD SWAP3 PUSH1 0x20 SWAP1 SWAP2 ADD CALLDATALOAD SWAP2 POP JUMP JUMPDEST PUSH1 0x0 PUSH1 0x20 DUP3 DUP5 SUB SLT ISZERO PUSH2 0x1225 JUMPI PUSH1 0x0 DUP1 REVERT JUMPDEST POP CALLDATALOAD SWAP2 SWAP1 POP JUMP JUMPDEST PUSH1 0x0 DUP1 PUSH1 0x40 DUP4 DUP6 SUB SLT ISZERO PUSH2 0x123F JUMPI PUSH1 0x0 DUP1 REVERT JUMPDEST PUSH2 0x1248 DUP4 PUSH2 0x11BA JUMP JUMPDEST SWAP5 PUSH1 0x20 SWAP4 SWAP1 SWAP4 ADD CALLDATALOAD SWAP4 POP POP POP JUMP JUMPDEST PUSH4 0x4E487B71 PUSH1 0xE0 SHL PUSH1 0x0 MSTORE PUSH1 0x11 PUSH1 0x4 MSTORE PUSH1 0x24 PUSH1 0x0 REVERT JUMPDEST DUP1 DUP3 ADD DUP1 DUP3 GT ISZERO PUSH2 0x7D1 JUMPI PUSH2 0x7D1 PUSH2 0x1256 JUMP JUMPDEST DUP2 DUP2 SUB DUP2 DUP2 GT ISZERO PUSH2 0x7D1 JUMPI PUSH2 0x7D1 PUSH2 0x1256 JUMP JUMPDEST DUP1 DUP3 MUL DUP2 ISZERO DUP3 DUP3 DIV DUP5 EQ OR PUSH2 0x7D1 JUMPI PUSH2 0x7D1 PUSH2 0x1256 JUMP JUMPDEST PUSH1 0x0 DUP3 PUSH2 0x12C6 JUMPI PUSH4 0x4E487B71 PUSH1 0xE0 SHL PUSH1 0x0 MSTORE PUSH1 0x12 PUSH1 0x4 MSTORE PUSH1 0x24 PUSH1 0x0 REVERT JUMPDEST POP DIV SWAP1 JUMP INVALID LOG2 PUSH5 0x6970667358 0x22 SLT KECCAK256 PUSH25 0xC7BBD44321EBA35C8DE9BBD68E74B6579B3C6EF3233BB5A835 0x4A 0xD7 EXP PUSH11 0xC0F364736F6C6343000811 STOP CALLER "},"methodIdentifiers":{"CORN_TO_FEED_1HARVESTER()":"9776c452","buyCorn(address)":"78b46044","calculateCornBuy(uint256,uint256)":"3b635423","calculateCornBuySimple(uint256)":"4e0dc2ee","calculateCornSell(uint256)":"497cab2c","calculateDynamicFee(address,uint256)":"c91ecf2e","calculateTrade(uint256,uint256,uint256)":"229824c4","ceoAddress()":"0a0f8168","claimedCorns(address)":"24d3079a","devFee(uint256)":"3bc0461a","emergencyWithdraw()":"db2e21bc","firstSellTimestamp(address)":"6db1384a","getBalance()":"12065fe0","getCornsSinceLastHatch(address)":"c63db2f0","getMyCorns(address)":"b8f66370","getMyHarvesters(address)":"747d8440","getUserFeeInfo(address)":"f278d74b","hatcheryHarvesters(address)":"81d11718","initialized()":"158ef93e","lastHatch(address)":"467ece79","marketCorns()":"7e337178","marketingFee()":"6b67c4df","openFarm()":"e5e2fb10","owner()":"8da5cb5b","popCorn(address)":"765ecbc4","referrals(address)":"9ca423b3","sellCorn()":"2cf71689","weeklySellCount(address)":"c768f7ba"}}}}}