{
  "_format": "hh-sol-artifact-1",
  "contractName": "BakedPizza",
  "sourceName": "contracts/BakedPizza.sol",
  "abi": [
    {
      "inputs": [],
      "stateMutability": "nonpayable",
      "type": "constructor"
    },
    {
      "inputs": [],
      "name": "AlreadyInitialized",
      "type": "error"
    },
    {
      "inputs": [],
      "name": "NotInitialized",
      "type": "error"
    },
    {
      "inputs": [],
      "name": "OnlyOwner",
      "type": "error"
    },
    {
      "inputs": [],
      "name": "ReentrancyGuard",
      "type": "error"
    },
    {
      "inputs": [],
      "name": "TransferFailed",
      "type": "error"
    },
    {
      "anonymous": false,
      "inputs": [
        {
          "indexed": true,
          "internalType": "address",
          "name": "user",
          "type": "address"
        },
        {
          "indexed": true,
          "internalType": "address",
          "name": "referrer",
          "type": "address"
        },
        {
          "indexed": false,
          "internalType": "uint256",
          "name": "bnbSpent",
          "type": "uint256"
        },
        {
          "indexed": false,
          "internalType": "uint256",
          "name": "eggsReceived",
          "type": "uint256"
        }
      ],
      "name": "BakePizza",
      "type": "event"
    },
    {
      "anonymous": false,
      "inputs": [
        {
          "indexed": true,
          "internalType": "address",
          "name": "user",
          "type": "address"
        },
        {
          "indexed": false,
          "internalType": "uint256",
          "name": "eggsSold",
          "type": "uint256"
        },
        {
          "indexed": false,
          "internalType": "uint256",
          "name": "bnbReceived",
          "type": "uint256"
        }
      ],
      "name": "EatPizza",
      "type": "event"
    },
    {
      "anonymous": false,
      "inputs": [
        {
          "indexed": true,
          "internalType": "address",
          "name": "owner",
          "type": "address"
        },
        {
          "indexed": false,
          "internalType": "uint256",
          "name": "initialEggs",
          "type": "uint256"
        }
      ],
      "name": "KitchenOpened",
      "type": "event"
    },
    {
      "anonymous": false,
      "inputs": [
        {
          "indexed": true,
          "internalType": "address",
          "name": "user",
          "type": "address"
        },
        {
          "indexed": true,
          "internalType": "address",
          "name": "referrer",
          "type": "address"
        },
        {
          "indexed": false,
          "internalType": "uint256",
          "name": "minersBought",
          "type": "uint256"
        }
      ],
      "name": "RebakePizza",
      "type": "event"
    },
    {
      "stateMutability": "payable",
      "type": "fallback"
    },
    {
      "inputs": [],
      "name": "EGGS_TO_HATCH_1MINERS",
      "outputs": [
        {
          "internalType": "uint256",
          "name": "",
          "type": "uint256"
        }
      ],
      "stateMutability": "view",
      "type": "function"
    },
    {
      "inputs": [
        {
          "internalType": "address",
          "name": "ref",
          "type": "address"
        }
      ],
      "name": "bakePizza",
      "outputs": [],
      "stateMutability": "payable",
      "type": "function"
    },
    {
      "inputs": [
        {
          "internalType": "uint256",
          "name": "eth",
          "type": "uint256"
        },
        {
          "internalType": "uint256",
          "name": "contractBalance",
          "type": "uint256"
        }
      ],
      "name": "calculateEggBuy",
      "outputs": [
        {
          "internalType": "uint256",
          "name": "",
          "type": "uint256"
        }
      ],
      "stateMutability": "view",
      "type": "function"
    },
    {
      "inputs": [
        {
          "internalType": "uint256",
          "name": "eth",
          "type": "uint256"
        }
      ],
      "name": "calculateEggBuySimple",
      "outputs": [
        {
          "internalType": "uint256",
          "name": "",
          "type": "uint256"
        }
      ],
      "stateMutability": "view",
      "type": "function"
    },
    {
      "inputs": [
        {
          "internalType": "uint256",
          "name": "eggs",
          "type": "uint256"
        }
      ],
      "name": "calculateEggSell",
      "outputs": [
        {
          "internalType": "uint256",
          "name": "",
          "type": "uint256"
        }
      ],
      "stateMutability": "view",
      "type": "function"
    },
    {
      "inputs": [
        {
          "internalType": "uint256",
          "name": "rt",
          "type": "uint256"
        },
        {
          "internalType": "uint256",
          "name": "rs",
          "type": "uint256"
        },
        {
          "internalType": "uint256",
          "name": "bs",
          "type": "uint256"
        }
      ],
      "name": "calculateTrade",
      "outputs": [
        {
          "internalType": "uint256",
          "name": "",
          "type": "uint256"
        }
      ],
      "stateMutability": "pure",
      "type": "function"
    },
    {
      "inputs": [],
      "name": "ceoAddress",
      "outputs": [
        {
          "internalType": "address payable",
          "name": "",
          "type": "address"
        }
      ],
      "stateMutability": "view",
      "type": "function"
    },
    {
      "inputs": [
        {
          "internalType": "address",
          "name": "",
          "type": "address"
        }
      ],
      "name": "claimedEggs",
      "outputs": [
        {
          "internalType": "uint256",
          "name": "",
          "type": "uint256"
        }
      ],
      "stateMutability": "view",
      "type": "function"
    },
    {
      "inputs": [
        {
          "internalType": "uint256",
          "name": "amount",
          "type": "uint256"
        }
      ],
      "name": "devFee",
      "outputs": [
        {
          "internalType": "uint256",
          "name": "",
          "type": "uint256"
        }
      ],
      "stateMutability": "view",
      "type": "function"
    },
    {
      "inputs": [],
      "name": "eatPizza",
      "outputs": [],
      "stateMutability": "nonpayable",
      "type": "function"
    },
    {
      "inputs": [],
      "name": "getBalance",
      "outputs": [
        {
          "internalType": "uint256",
          "name": "",
          "type": "uint256"
        }
      ],
      "stateMutability": "view",
      "type": "function"
    },
    {
      "inputs": [
        {
          "internalType": "address",
          "name": "adr",
          "type": "address"
        }
      ],
      "name": "getEggsSinceLastHatch",
      "outputs": [
        {
          "internalType": "uint256",
          "name": "",
          "type": "uint256"
        }
      ],
      "stateMutability": "view",
      "type": "function"
    },
    {
      "inputs": [
        {
          "internalType": "address",
          "name": "_adr",
          "type": "address"
        }
      ],
      "name": "getMyEggs",
      "outputs": [
        {
          "internalType": "uint256",
          "name": "",
          "type": "uint256"
        }
      ],
      "stateMutability": "view",
      "type": "function"
    },
    {
      "inputs": [
        {
          "internalType": "address",
          "name": "_adr",
          "type": "address"
        }
      ],
      "name": "getMyMiners",
      "outputs": [
        {
          "internalType": "uint256",
          "name": "",
          "type": "uint256"
        }
      ],
      "stateMutability": "view",
      "type": "function"
    },
    {
      "inputs": [
        {
          "internalType": "address",
          "name": "",
          "type": "address"
        }
      ],
      "name": "hatcheryMiners",
      "outputs": [
        {
          "internalType": "uint256",
          "name": "",
          "type": "uint256"
        }
      ],
      "stateMutability": "view",
      "type": "function"
    },
    {
      "inputs": [],
      "name": "initialized",
      "outputs": [
        {
          "internalType": "bool",
          "name": "",
          "type": "bool"
        }
      ],
      "stateMutability": "view",
      "type": "function"
    },
    {
      "inputs": [
        {
          "internalType": "address",
          "name": "",
          "type": "address"
        }
      ],
      "name": "lastHatch",
      "outputs": [
        {
          "internalType": "uint256",
          "name": "",
          "type": "uint256"
        }
      ],
      "stateMutability": "view",
      "type": "function"
    },
    {
      "inputs": [],
      "name": "marketEggs",
      "outputs": [
        {
          "internalType": "uint256",
          "name": "",
          "type": "uint256"
        }
      ],
      "stateMutability": "view",
      "type": "function"
    },
    {
      "inputs": [],
      "name": "marketingFee",
      "outputs": [
        {
          "internalType": "uint256",
          "name": "",
          "type": "uint256"
        }
      ],
      "stateMutability": "view",
      "type": "function"
    },
    {
      "inputs": [],
      "name": "openKitchen",
      "outputs": [],
      "stateMutability": "payable",
      "type": "function"
    },
    {
      "inputs": [
        {
          "internalType": "address",
          "name": "ref",
          "type": "address"
        }
      ],
      "name": "rebakePizza",
      "outputs": [],
      "stateMutability": "nonpayable",
      "type": "function"
    },
    {
      "inputs": [
        {
          "internalType": "address",
          "name": "",
          "type": "address"
        }
      ],
      "name": "referrals",
      "outputs": [
        {
          "internalType": "address",
          "name": "",
          "type": "address"
        }
      ],
      "stateMutability": "view",
      "type": "function"
    },
    {
      "stateMutability": "payable",
      "type": "receive"
    }
  ],
  "bytecode": "0x608060405260056000556001805460ff19908116825560078054909116909117905534801561002d57600080fd5b5060018054610100600160a81b0319163361010002179055610d01806100546000396000f3fe60806040526004361061012d5760003560e01c80636b67c4df116100a5578063847349ef1161006c578063847349ef146103745780638e3163271461037c5780639ca423b31461039c578063d7c8843b146103d2578063e00a9663146103f2578063f7fb81681461041257005b80636b67c4df146102cd57806372670361146102e357806379532aa9146103105780637cdebc211461033d5780637e56fde51461035457005b806326fd8422116100f457806326fd8422146101f45780632e9392bb146102145780632ef6a7431461022a5780633bc0461a1461024a578063467ece791461026a5780634b634b061461029757005b806309e1a83d146101365780630a0f81681461014b57806312065fe01461018d578063158ef93e146101aa578063229824c4146101d457005b3661013457005b005b34801561014257600080fd5b50610134610425565b34801561015757600080fd5b506001546101709061010090046001600160a01b031681565b6040516001600160a01b0390911681526020015b60405180910390f35b34801561019957600080fd5b50475b604051908152602001610184565b3480156101b657600080fd5b506001546101c49060ff1681565b6040519015158152602001610184565b3480156101e057600080fd5b5061019c6101ef366004610bc6565b61060e565b34801561020057600080fd5b5061019c61020f366004610bf2565b61065e565b34801561022057600080fd5b5061019c60065481565b34801561023657600080fd5b5061019c610245366004610c14565b610676565b34801561025657600080fd5b5061019c610265366004610c3d565b6106a3565b34801561027657600080fd5b5061019c610285366004610c14565b60046020526000908152604090205481565b3480156102a357600080fd5b5061019c6102b2366004610c14565b6001600160a01b031660009081526002602052604090205490565b3480156102d957600080fd5b5061019c60005481565b3480156102ef57600080fd5b5061019c6102fe366004610c14565b60036020526000908152604090205481565b34801561031c57600080fd5b5061019c61032b366004610c14565b60026020526000908152604090205481565b34801561034957600080fd5b5061019c620d2f0081565b34801561036057600080fd5b5061019c61036f366004610c3d565b6106bf565b6101346106cb565b34801561038857600080fd5b5061019c610397366004610c3d565b61078c565b3480156103a857600080fd5b506101706103b7366004610c14565b6005602052600090815260409020546001600160a01b031681565b3480156103de57600080fd5b5061019c6103ed366004610c14565b61079b565b3480156103fe57600080fd5b5061013461040d366004610c14565b6107fd565b610134610420366004610c14565b6109e7565b60075460ff16610448576040516345f5ce8b60e11b815260040160405180910390fd5b6007805460ff1916905560015460ff16610475576040516321c4e35760e21b815260040160405180910390fd5b600061048033610676565b9050600061048d8261078c565b9050600061049a826106a3565b336000908152600360209081526040808320839055600490915290204290556006549091506104c99084610b80565b60065560015460405160009161010090046001600160a01b03169083908381818185875af1925050503d806000811461051e576040519150601f19603f3d011682016040523d82523d6000602084013e610523565b606091505b5050905080610545576040516312171d8360e31b815260040160405180910390fd5b6000336105528585610b8c565b604051600081818185875af1925050503d806000811461058e576040519150601f19603f3d011682016040523d82523d6000602084013e610593565b606091505b50509050806105b5576040516312171d8360e31b815260040160405180910390fd5b337fbc02d675d4f3cb76a691910a19db1c4e3b02987050ce8759812b2bfe0d6195a9866105e28787610b8c565b6040805192835260208301919091520160405180910390a250506007805460ff19166001179055505050565b600061065661064a6106418661063b61062982611388610b98565b61063589612710610b98565b90610b80565b90610ba4565b61138890610b80565b61063b84612710610b98565b949350505050565b600061066d838360065461060e565b90505b92915050565b60006106706106848361079b565b6001600160a01b03841660009081526003602052604090205490610b80565b6000610670606461063b60005485610b9890919063ffffffff16565b6000610670824761065e565b60015461010090046001600160a01b031633146106fb57604051635fc483c560e01b815260040160405180910390fd5b60015460ff161561071e5760405162dc149f60e41b815260040160405180910390fd5b6006541561073e5760405162dc149f60e41b815260040160405180910390fd5b6001805460ff19168117905564141dd76000600681905560405190815233907f037c4b085918ab85df3c0955512353ae2b5120cd7f55a2244e3df45aa21ea6df9060200160405180910390a2565b6000610670826006544761060e565b6001600160a01b03811660009081526004602052604081205481906107cf90620d2f00906107ca904290610b8c565b610bb0565b6001600160a01b0384166000908152600260205260409020549091506107f6908290610b98565b9392505050565b60015460ff16610820576040516321c4e35760e21b815260040160405180910390fd5b6001600160a01b03811633148061083e57506001600160a01b038116155b8061085f57506001600160a01b038116600090815260026020526040902054155b15610877575060015461010090046001600160a01b03165b336000908152600560205260409020546001600160a01b03166108bd5733600090815260056020526040902080546001600160a01b0319166001600160a01b0383161790555b60006108c833610676565b905060006108d982620d2f00610ba4565b336000908152600260205260409020549091506108f69082610b80565b3360009081526002602090815260408083209390935560038152828220829055600490522042905561095d610931606461063b85600f610b98565b336000908152600560209081526040808320546001600160a01b03168352600390915290205490610b80565b336000908152600560208181526040808420546001600160a01b0316845260039091529091209190915561099f90610996908490610ba4565b60065490610b80565b6006556040518181526001600160a01b0384169033907fa53e8a589ce50aa24b199c42f0dabb1fd499c2e819c307cd3beb8f23ea7cf0c39060200160405180910390a3505050565b60075460ff16610a0a576040516345f5ce8b60e11b815260040160405180910390fd5b6007805460ff1916905560015460ff16610a37576040516321c4e35760e21b815260040160405180910390fd5b6000610a473461020f4782610b8c565b9050610a5c610a55826106a3565b8290610b8c565b90506000610a69346106a3565b9050600060018054906101000a90046001600160a01b03166001600160a01b03168260405160006040518083038185875af1925050503d8060008114610acb576040519150601f19603f3d011682016040523d82523d6000602084013e610ad0565b606091505b5050905080610af2576040516312171d8360e31b815260040160405180910390fd5b33600090815260036020526040902054610b0c9084610b80565b336000818152600360209081526040918290209390935580513481529283018690526001600160a01b038716927f278329b9130a1054ce12d9a420fa9a41b4b2081dfd752875caba188cd2578c01910160405180910390a3610b6d846107fd565b50506007805460ff191660011790555050565b600061066d8284610c6c565b600061066d8284610c7f565b600061066d8284610c92565b600061066d8284610ca9565b6000818310610bbf578161066d565b5090919050565b600080600060608486031215610bdb57600080fd5b505081359360208301359350604090920135919050565b60008060408385031215610c0557600080fd5b50508035926020909101359150565b600060208284031215610c2657600080fd5b81356001600160a01b03811681146107f657600080fd5b600060208284031215610c4f57600080fd5b5035919050565b634e487b7160e01b600052601160045260246000fd5b8082018082111561067057610670610c56565b8181038181111561067057610670610c56565b808202811582820484141761067057610670610c56565b600082610cc657634e487b7160e01b600052601260045260246000fd5b50049056fea2646970667358221220aebac3988402d331b30fbb274b01c672692c21efaa89d4c334375f07e452c5da64736f6c63430008110033",
  "linkReferences": {},
  "deployedLinkReferences": {}
}